:020000040800F2
:10000000482E0020B1010008473B00083B3400089F
:10001000453B00081F0F0008C9430008000000000E
:10002000000000000000000000000000A33C0008E9
:10003000D314000800000000ED3B0008A53C0008B8
:10004000CB010008CB010008CB010008CB01000860
:10005000CB010008CB010008CB010008CB01000850
:10006000CB010008CB010008CB010008CB01000840
:1000700095120008CB010008CB010008A11200086E
:10008000CB010008CB010008CB010008CB01000820
:10009000CB010008CB010008CB010008CB01000810
:1000A000CB010008513D0008CB010008CB0100083E
:1000B000CB010008CB0100085D3D0008CB01000822
:1000C000CB010008CB010008CB010008CB010008E0
:1000D000CB01000895430008CB010008BD43000890
:1000E000D5140008CB010008CB01000800F002F88D
:1000F00000F04EF80AA090E8000C82448344AAF174
:100100000107DA4501D100F043F8AFF2090EBAE871
:100110000F0013F0010F18BFFB1A43F0010318473B
:10012000A44C0000C44C0000103A24BF78C878C129
:10013000FAD8520724BF30C830C144BF04680C60ED
:10014000704700000023002400250026103A28BF35
:1001500078C1FBD8520728BF30C148BF0B60704739
:10016000642900F0A980782900F0E280732900F06A
:10017000BC83002070471FB500F07CFE0400002007
:10018000002104F011FB401C60601FBD10B510BDC4
:1001900000F04BFE1146FFF7EEFF04F0E1F900F02E
:1001A0006DFE03B4FFF7F2FF03BC00F0B1FE0000E8
:1001B0000948804709480047FEE7FEE7FEE7FEE7FB
:1001C000FEE7FEE7FEE7FEE7FEE7FEE70448054937
:1001D000054A064B70470000093D0008ED00000885
:1001E00048280020482E0020482A0020482A0020C5
:1001F0000FB41CB5074B06AA7B44694600900598CE
:1002000000F049FB0020694600F058FB1CBC5DF87B
:1002100014FB0000C106000070B504468569006843
:10022000C10601D5302600E02026C00707D070BDEA
:10023000D4E9012130469047206A401C20626D1E9F
:10024000F6D570BD70B5044685690078C00707D142
:1002500070BDD4E9012120209047206A401C206213
:100260006D1EF6D570BD70B50C460546012A05D049
:100270002878800600D5EA69002302E0012305E022
:100280005B1C934202D2E05C0028F9D1A869E61811
:10029000C01AA861286A184428622846FFF7BCFFE4
:1002A00004E0D5E9012114F8010B9047B442F8D3DA
:1002B0002846FFF7C7FF70BD2DE9F0410646002430
:1002C00010687529314616A510D0AFF300800028BC
:1002D00002DA404213A507E031688A0701D512A56A
:1002E00002E0490704D511A5012401E0AFF3008025
:1002F00000210A2206F1240709E0B0FBF2FCB0FB62
:10030000F2F302FB1C00303078541846491C0028D8
:10031000F3D123462A463046BDE8F04100F05CBAEE
:10032000000000002D0000002B0000002000000055
:1003300070B504460D4621461068AFF30080218851
:10034000090502D50F4A7A4402E00E4A7A440E3279
:10035000002104F1240305E000F00F060009965D7A
:100360005E54491C0028F7D120780023000704D5EB
:10037000702D02D009B1022311322046BDE8704031
:1003800000F02ABA404A00002DE9F05F8946044691
:100390004FF0000ADFF824B1FB44C0F820A020464B
:1003A000E168884700287DD0252806D0D4E90121BE
:1003B0009047206A401C2062F1E700255F462046F6
:1003C000E16888472028064607DB312E05D2B81998
:1003D00010F8200C08B10543F1E7A80701D525F076
:1003E0000405C4F81CA00027C4F818A02A2E09D0C0
:1003F000304604F015F838B304EB8708303EC8F8EF
:10040000186019E059F8041B204604EB870291613B
:10041000E1688847012F064618D1E069002820DAF4
:1004200025F020051DE0D8F8180000EB800006EB51
:1004300040003038C8F818002046E1688847064672
:1004400003F0EEFF0028EED1012F0AD02E2E08D1A6
:100450002046E16888477F1C0646022F45F02005AC
:10046000C4DBA069002803DA404245F00105A06121
:10047000E80701D025F01005A6B1A6F14100192822
:1004800002D8203645F400654A46314620462560AC
:100490004D46FFF765FE60B1012807D0ED1D25F040
:1004A000070000E007E000F1080978E705F104091A
:1004B00075E730467AE7206ABDE8F09F164A0000EB
:1004C0000FB400B58DB010A9099000910B904FF0BA
:1004D000FF300A9000200C900648784406900648A9
:1004E00078446A4607900F9909A800F017FA0DB0F2
:1004F0005DF814FB5F040000770400002DE9FF5F46
:100500001D464FF0FF3B91464FF000085F46D5E98E
:100510000146A96901987F1C8847296A8246884755
:100520000028F6D1BAF1FF3F0CD0002E24F4C064AD
:1005300019DD600614D5BAF12B0F09D0BAF12D0FD1
:100540000ED103E0584604B0BDE8F09F44F4806447
:10055000A96901987F1C8847761E8246002E02DD1D
:10056000BAF1300F03D0B9F1000F26D032E0A969FB
:10057000761E01987F1C44F400748847002E824642
:1005800005DDBAF1780F06D0BAF1580F03D0B9F1F2
:10059000000F10D01EE0B9F1000F02D0B9F1100F1A
:1005A00018D1A969761E01987F1C24F4007488472D
:1005B0008246102002E0082000E00A20814609E07F
:1005C000A96908FB0908761E01987F1C44F4007491
:1005D00088478246002E05DD4946504600F089F9DD
:1005E0000028EDDAE96901988847A00502D46FF088
:1005F0000100A8E7E00725D1600613D5600502D504
:10060000C8F1000000E0404629680A1D2A60096818
:10061000220501D5087015E0220701D5088011E0F8
:1006200008600FE02868011D29600068210502D5D7
:1006300080F8008006E0210702D5A0F8008001E0E4
:10064000C0F8008038467EE770B5064600F0C0F876
:100650000468054630460A22002100F08FF92C601C
:1006600070BD10B5431C02E010F8011B71B1810789
:10067000FAD14FF0013202C88C1A8C4314EAC2112D
:10068000F9D0C01A0A0603D0C01E10BDC01A10BD92
:100690000A0401D0801E10BD0902FCD0401E10BD0E
:1006A00040EA010370B59B072ED14FF00136042AB2
:1006B0002AD308C810C99D1B9D43121F15EAC615F1
:1006C00017D0D8B2E1B2401A50EA056110D198B201
:1006D000A1B2401A50EA05410AD123F07F4024F02C
:1006E0007F41401A50EA052102D1180EA0EB146098
:1006F00070BDA342DBD018BA21BA884201D90120CB
:1007000070BD4FF0FF3070BD0AB9002070BD10F809
:10071000013B11F8014B63B1A3420AD1521E08D02C
:1007200010F8013B11F8014B1BB1A34201D1521E3D
:10073000EDD1181B70BD4FF000020429C0F01280EB
:1007400010F0030C00F01B80CCF1040CBCF1020F84
:1007500018BF00F8012BA8BF20F8022BA1EB0C0159
:1007600000F00DB85FEAC17C24BF00F8012B00F84F
:10077000012B48BF00F8012B70474FF0000200B575
:10078000134694469646203922BFA0E80C50A0E8B4
:100790000C50B1F12001BFF4F7AF090728BFA0E862
:1007A0000C5048BF0CC05DF804EB890028BF40F82E
:1007B000042B08BF704748BF20F8022B11F0804F70
:1007C00018BF00F8012B7047704770477047000052
:1007D00000487047E42700202DE9F0470D46994670
:1007E0009246044600F124080168880604D5E069B1
:1007F00021F01001216000E00120A84201DD471B2B
:1008000000E00027A1697A1902EB0900081AA0612B
:100810002078C00602D42046FFF7FEFC002608E040
:10082000D4E901211AF806009047206A401C761C82
:1008300020624E45F4DB2078C0060AD52046FFF73B
:10084000EBFC06E0D4E9012130209047206A401CEF
:100850002062381EA7F10107F4DC07E0D4E901218A
:1008600018F805009047206A401C2062281EA5F158
:100870000105F3DC2046FFF7E5FC2078000602D5F1
:100880000220BDE8F0870120FBE7000001694A1C57
:1008900002610878704700B58FB0CDE901310021C1
:1008A000059105497944CDE9031011466846FFF7E3
:1008B0006BFD0FB000BD0000E5FFFFFF0A6802F806
:1008C000010B0A60704710B5436913B1AFF30080A4
:1008D00001E0FFF7C8FC012010BD127800F12401EF
:1008E0000A7000224A700122EDE711684FF0FF32D2
:1008F000E9E73A2800D2303820F02002412A01D31B
:10090000A2F13700884201D34FF0FF30704700005A
:10091000026811441378016018467047D160054998
:1009200079445161044979441162002111611146F1
:1009300000F072B8EDFFFFFFDB000000426842B13B
:10094000016811F8013B23B1521EC0E9001218469C
:1009500070470121C160881E704742685AB1C36860
:10096000016843B983688B4205D0491E521CC0E917
:100970000012002070474FF0FF3070472DE9F0471C
:1009800091460F4680460446002614F8015B2DB1BF
:1009900000F030F80068405DC007F6D12B2D02D082
:1009A0002D2D18D0641E4A463946204600F0EEF937
:1009B00027B13968A14201D1C7F800804FF0020485
:1009C00071050BD54042002803DDFFF701FF0460ED
:1009D000A007BDE8F08746F48066E4E70028F8DA6F
:1009E000FFF7F6FE04606FF00040F2E70048704742
:1009F000E427002010B500F03DFA001D10BD00BF37
:100A0000A93D000010B50446FFF7F4FF0068005D43
:100A100000F0010010BD00002DE9F34F4FF0000A77
:100A20000C4656468DB001200C9001F10C000B9045
:100A300062690B9801219047051E2DD0252D2CD0E1
:100A4000216A8847C0B162690B9801219047216AE9
:100A500088470028F7D16269411E0B98904700E053
:100A6000761CA1690D988847216A88470028F7D12C
:100A7000E1690D988847DBE7A1690D988847A8428E
:100A8000074601D1761CD3E7E1690D9888477F1CA2
:100A900002D1BAF1000F6FD06BE162690B980027A9
:100AA0003D46394690472A2804D162690B980121B6
:100AB00090470125DFF8D08262690B9801219047A9
:100AC000A0F130010A290AD24745E5DC07EB87018E
:100AD00000EB4107303FDFD445F01005ECE7E906B5
:100AE00001D46FF000476C280AD04C2814D0682835
:100AF00015D06A280DD074281CD07A281AD01DE091
:100B000062690B98012190476C2802D045F00405DA
:100B100014E045F002050DE045F020050AE06269A9
:100B20000B9801219047682802D045F0080505E0A0
:100B300045F4006562690B9801219047C4E90157AB
:100B400065283DD019DC58287AD00CDC452837D0F0
:100B500004DC252826D041289ED131E046282FD01C
:100B6000472899D12CE05B2877D0612828D06328CA
:100B70007CD0642823D15AE0F6E06F2848D008DC06
:100B800066281DD067281BD0692821D06E2816D171
:100B900027E0702845D0732868D0752847D078287A
:100BA0000DD14DE0A1690D988847252805463FF4F1
:100BB00069AFE1690D9888476D1C3FF46AAFD8E0D2
:100BC0000D9923466A466FF00100AFF30080C5E03F
:100BD00045F0400023464FF000026060A80736D47D
:100BE0003EE0E8077FF447AF2068011D2160006800
:100BF000290501D506701BE7290701D5068017E7EF
:100C0000A90703D5F117C0E9006111E706600FE7F6
:100C100045F0400023464FF008026060A80716D454
:100C20001EE040F60E0125EA0100606016E045F086
:100C3000400023464FF00A026060A80707D40FE087
:100C400045F040006060A80708D5234610220D99A2
:100C50006FF00100AFF3008080E007E01022234630
:100C60000D996FF00100FFF749FC77E04FF00009A4
:100C700063284F46C8464B46CB4602D05B2806D079
:100C800038E0E80601D40120A060012732E0626963
:100C9000D4F80CB00B98012190475E2807D14FF093
:100CA000010949466269D4F80CB00B989047216954
:100CB00039B900210A4603AB43F82120491C082911
:100CC000FADBD8B3216949B308F1010862690B98CE
:100CD000012190475D28F4D1B9F1000F09D000201F
:100CE00003A951F82020D24341F82020401C0828B5
:100CF000F7DB03AB2069002820794FEA40701ED053
:100D00005B462246CDF80080CDE901970D99002879
:100D10006FF0010020DAAFF300801FE0C11703AAD3
:100D200000EBD1614B1121F01F0102EB8302411A4C
:100D300013680120884003431360C7E719E00D9949
:100D4000224600286FF00100009702DAAFF300801E
:100D500004E0AFF3008001E0AFF3008000280ADA7E
:100D6000401C06D10C9820B14FF0FF300FB0BDE809
:100D7000F08F5046FAE7E90701D10AF1010A06446B
:100D800000200C9054E60000CCCCCC0C2DE9F05F98
:100D9000824615468B4600270AF10104B9460078C1
:100DA000302801D09DB113E014F8010B01277828F9
:100DB00003D0582801D045B10AE00DB1102D07D15C
:100DC000002714F8010B102502E0082500E00A2591
:100DD0000026B0460EE005FB080005FB06F10127E2
:100DE0001FFA80F801EB1046B6F5803F00D3B946F4
:100DF00014F8010B2946FFF77CFD0028EBDABBF164
:100E0000000F05D00FB1641E00E05446CBF800403F
:100E1000B9F1000F06D0FFF7DBFC02210160C81E0C
:100E2000BDE8F09F48EA0640FAE77546FFF7DEFDA9
:100E3000AE4605006946534620F00700854618B0C7
:100E400020B5FFF7C3F9BDE820404FF000064FF092
:100E500000074FF000084FF0000B21F00701AC46EF
:100E6000ACE8C009ACE8C009ACE8C009ACE8C0090E
:100E70008D467047004870470428002010B504468E
:100E8000AFF300802046BDE81040FFF78AB90000AC
:100E90004FF0013C50F8042B51F8043B9A4221D109
:100EA000A2EB0C03934313EACC1317D150F8042B95
:100EB00051F8043B9A4215D1A2EB0C03934313EA79
:100EC000CC130BD150F8042B51F8043B9A4209D1B2
:100ED000A2EB0C03934313EACC13DBD04FF00000DA
:100EE000704700BFD01A01BAB1FA81F101F01801C0
:100EF00022FA01F0CB40C1F12001DBB2C0B2C01A2E
:100F00002CFA01F3D11A914311EAC311E6D17047CB
:100F100001491820ABBEFEE7260002007047FEE73D
:100F20002DE9F04F714C704E87B02078032206EB0C
:100F300080106FA1FFF7B4FB01250028DFF8B48112
:100F4000DFF8B491DFF8B4B120784FF4804A06EBB3
:100F500080102DD003226AA1FFF7A2FB0028694F61
:100F6000207806EB801038D0082267A1FFF798FBA5
:100F700000284AD02078082206EB801065A1FFF7F0
:100F80008FFB00284AD02078052206EB801064A150
:100F9000FFF786FB644F00284DD02078092206EB2E
:100FA000801062A1FFF77CFB634D00285CD05DE000
:100FB000C01CFFF749FB03F083FDC8F8000044465E
:100FC00089F800505146584600F043FD206803F070
:100FD00007FC0B46024659A111E0C01CFFF734FB89
:100FE00003F06EFD386089F800505146584600F015
:100FF00030FD386803F0F4FB0B46024654A107B0FD
:101000005948BDE8F04FFFF7F3B858480570584805
:101010003860584801F06EFC57A108E05D48057043
:1010200000215448C8F8001001F064FC5AA14E4851
:10103000FFF7DEF84FE0387808B15FA1F7E72078D6
:101040006A4606EB801068A1401DFFF739FA9DF84B
:101050000010674803F04AFA03469DF8002065A196
:101060004148FFF7C5F836E0287858B120780922C2
:1010700006EB801064A1FFF713FB002832D128781B
:1010800000282FD0387808B162A1D0E7287808B1BD
:101090003B2100E02021564803F028FA03AE00F07F
:1010A0000104C0F34003C0F38002C0F3C00186E82E
:1010B0001E00C0F30013C0F34012C0F380118DE88E
:1010C0000E00C309287808B15FA200E05FA261A109
:1010D0002548FFF78DF807B051465846BDE8F04F58
:1010E00000F0B7BC66A1A2E7F800002009000020CC
:1010F00044523A0014000020050000200010014076
:1011000046523A0010000020465220537765657021
:101110000000000044522053776565700000000015
:10112000526561643A0000000700002052504C20D4
:10113000436865636B0000000000002050574D5F5E
:1011400044522073657420746F2025640D0A0000DA
:1011500050574D5F465245512073657420746F207F
:101160002564487A0D0A00007801002068000020FC
:10117000000016439C2600204672657175656E63FB
:1011800079207377656570696E6720737461727416
:101190002E0D0A0069000020447574792052617494
:1011A000696F207377656570696E6720737461720B
:1011B000742E0D0A0000000043616E6E6F74207281
:1011C0006561642072656769737465722077686908
:1011D0006C652072656164696E67204C48522044DA
:1011E0006174612E0D0A0000256868780000000017
:1011F0005C0000205B3078253032585D203D203087
:1012000078253032580D0A004C48522043686563F7
:101210006B00000043616E6E6F7420636865636BE2
:10122000204C444320737461747573207768696C33
:10123000652072656164696E67204C485220446184
:1012400074612E0D0A0000004C48520052502B4C85
:10125000000000002573204D6561737572656D6532
:101260006E74205374617475733A20256425642567
:1012700064256425642564256425640D0A00000046
:10128000556E6B6E6F776E20636F6D6D616E640D62
:101290000A000000014800F099B90000A0270020D2
:1012A000014800F093B900005C27002030B590F8A9
:1012B00040500124AC40C56B6C60046863604368B7
:1012C000102B036803D099600068C26030BD9A603B
:1012D0000068C16030BDD1E90103026800207BB124
:1012E000042B0FD0082B0FD01064CA6872B1042AE7
:1012F00010D0082A4A68126810D01064087070472D
:101300005063F2E79063F0E7D063EEE74A68126853
:101310005063F3E74A6812689063EFE7D063EDE744
:1013200010B50C46486800F02BF8A168400899B148
:10133000042915D008296168096815D00864E16896
:10134000002099B1042915D008296168096815D0D1
:1013500008640120207010BD616809684863EEE7E9
:10136000616809688863EAE7C863E8E76168096853
:101370004863EEE7616809688863EAE7C863E8E7FD
:10138000002801D00068C06A704710B5044600F01C
:1013900042F8012000F02AFA21460846FFF79BFF99
:1013A000002020702074204600F088F8BDE810402E
:1013B000012000F01BBA10B50C464868FFF7E0FFAB
:1013C0004008A268002192B1042A14D0082A626859
:1013D000126814D01164E16899B1042915D0082964
:1013E0006168096815D008640220207010BD626829
:1013F00012685163EFE7626812689163EBE7D163AB
:10140000E9E7616809684863EEE76168096888632D
:10141000EAE7C863E8E770B504460025D4E90101AE
:10142000006839B3042927D0082927D00564E0686B
:1014300030B3042828D008286068006828D00564E4
:10144000A06938B3042829D008286069006829D029
:101450000564E06940B304282AD008286069006860
:101460002AD00564A18C0022206A00F0F9FA2570C8
:10147000257470BD4563DAE78563D8E7C563D6E7B1
:10148000606800684563DBE7606800688563D7E7EC
:10149000C563D5E7606900684563DAE7606900689D
:1014A0008563D6E7C563D4E7606900684563D9E71B
:1014B000606900688563D5E7C563D3E710B5044666
:1014C000818C006A012200F0CBFA00202070207489
:1014D00010BD704710B54FF4006000F0B9F9BDE8D9
:1014E00010404FF4805000F0B3B972B6FEE710B56B
:1014F00090F821100022022905D00421816380F890
:101500002020012010BD01680B6823F00E030B6042
:1015100001680B6823F001030B6090F84030C46B46
:10152000012101FA03F3636080F8211080F8202084
:10153000104610BD10B590F821100024022903D0E8
:101540000421816301243DE001680A6822F00E0253
:101550000A6001680A6822F001020A601A4A0168FA
:10156000914201D1012121E0174A1432914201D167
:1015700010211BE0144A2832914201D1891515E04F
:10158000114A3C32914201D189140FE00E4A503287
:10159000914202D14FF4803108E00B4A643291420B
:1015A00002D14FF4801101E04FF08071064A083AF1
:1015B0005160012180F82110002180F82010416B3A
:1015C00001B18847204610BD080002402DE9F05FB8
:1015D000C16B0C6801680B68D0F840C0042202FAA5
:1015E0000CF2494DDFF824A1494E4A4FDFF828B1EB
:1015F000DFF828E122422CD05A072AD50A68920641
:1016000003D40A6822F004020A600168A94201D1E9
:10161000042219E0514501D1402215E0B14202D126
:101620004FF4806210E0B94202D14FF480420BE0E7
:10163000594502D14FF4802206E0714502D14FF4A2
:10164000800201E04FF080622F4908394A60C16A88
:101650003BE04FF0020808FA0CF818EA040F4FF0CC
:1016600000094FF0010235D05FEA837832D50B686C
:101670009B0605D40B6823F00A030B6080F8212039
:101680000168A94201D1022219E0514501D120226D
:1016900015E0B14202D14FF4007210E0B94202D11C
:1016A0004FF400520BE0594502D14FF4003206E0EE
:1016B000714502D14FF4001201E04FF0007212495F
:1016C00008394A6080F82090816A00291AD0BDE864
:1016D000F05F0847082505FA0CF5254212D01B07D4
:1016E00010D50B6823F00E030B6090F84010C36B0D
:1016F00002FA01F15960826380F8212080F820907D
:10170000016BE2E7BDE8F09F080002401C000240C8
:101710003000024044000240580002406C00024089
:1017200030B528B308C8134914221944B1FBF2F1AB
:101730008900C16310498163022141771A6843F629
:10174000F0718A43D0E900142143D0E902452C43CB
:10175000214304692143446921438469214311439E
:10176000196000214163012242770177084630BDAC
:10177000012030BDF8FFFDBF0000024070B50446F7
:1017800090F82000002501280CD0012084F82000CA
:1017900094F821600020012E06D084F82000022554
:1017A000284670BD022070BD022684F82160A06327
:1017B0002068066826F0010606602046FFF776FDE1
:1017C000E06A00282068016802D041F00E0106E0BE
:1017D00021F0040101602068016841F00A01016004
:1017E0002068016841F001010160D9E770B5044645
:1017F00000F03CF90546601C02D00448007804441F
:1018000000F034F9401BA042FAD370BD98000020CC
:1018100010B50121B0F5006F09D0B0F5805F05D19A
:1018200007480078002801D00648017010BD06481E
:10183000017000F01BF905490A30086010BD000076
:1018400007000020080000200C00002030000020CD
:10185000044910B50A68024202D00860FFF7D8FFB9
:1018600010BD0000140401402DE9F84FDFF8B891D5
:10187000002409F1040A0AF1040B23460F270BF197
:10188000040EC9E00125A5402A40AA427DD1674E39
:10189000D1F804C0ACEB0608B44532D014DCBCF17E
:1018A000030F3AD009DCBCF1000F2AD0BCF1010FC4
:1018B0001CD0BCF1020F31D11DE0BCF1110F17D0CB
:1018C000BCF1120F2AD119E0B8F5881F19D006DC37
:1018D000B8F5803F15D0B8F5801F1FD111E0B8F5DD
:1018E000001F0ED0B8F5041F18D10AE0CB6815E030
:1018F000CB681B1D12E0CB6808330FE0CB680C33BC
:101900000CE08B682BB1012B4FF0080303D045612D
:1019100004E0042302E0056100E00023FF2A01D86F
:10192000064601E000F104064FEA840501D9A5F15D
:101930002005D6F8008007FA05FC28EA0C0803FA0F
:1019400005F548EA0508C6F800804D68ED0062D547
:10195000374DAE6946F00106AE61AD6924F003066D
:1019600005F001050095334D06EB050CDCF8085039
:10197000A607360F07FA06F825EA0805DFF8B8804B
:10198000404503D14FF0000817E044E0DFF8AC8099
:10199000404502D14FF001080FE0DFF8A480404538
:1019A00002D14FF0020808E0DFF89880404502D1EC
:1019B0004FF0030801E04FF0040808FA06F848EA7F
:1019C0000508CCF808804D68D9F80060ED034D4655
:1019D00001D5164300E096432E604D68DAF80060AA
:1019E000AD03554601D5164300E096432E604D6881
:1019F000DBF80060ED025D4601D5164300E096433A
:101A00002E604D68DEF80060AD02754601D51643C4
:101A100000E096432E60641C0D682A46E5407FF482
:101A200031AFBDE8F88F0000000401400000111044
:101A3000001002400000014000080140000C01407D
:101A400000100140001401408068084000D00120CF
:101A50007047C2680A4201D0416170470161704716
:101A60000AB1016170470904FBE700000148806882
:101A7000704700009800002070B504001BD094F857
:101A80003D00002520B984F83C50204600F046F97E
:101A9000242084F83D002068016821F001010160E4
:101AA00000F09CFA4D4A6168914201D84C4900E02F
:101AB0004C49884201D2012070BD4B492368B0FBDC
:101AC000F1F15E6826F03F060E435E606368934264
:101AD00006D94FF4967359434FF47A73B1FBF3F17F
:101AE0002368491C1E6A26F03F063143196261686B
:101AF000914210D84900401EB0FBF1F2521CC2F3D3
:101B00000B02042A01D2042022E0B0FBF1F0401CB9
:101B1000C0F30B001CE0A368F3B301EBC10202EBBE
:101B20000116421EB2FBF6F2521C42F4804212052C
:101B300049D093B301EBC10202EB0111401EB0FB8F
:101B4000F1F0401CC0F30B0040F4804040F4004032
:101B50002168CA694CF6FF739A431043C861D4E9FF
:101B60000701084321680A6822F0C0021043086098
:101B7000D4E9030101432068826848F2FF339A43A5
:101B800011438160D4E9050108432168CA6822F045
:101B9000FF021043C86001E00EE016E02068016813
:101BA00041F0010101602564202084F83D00256397
:101BB00084F83E50002070BD01EB4106421EB2FB8E
:101BC000F6F2521CB3E70120C2E701EB4101401ECF
:101BD000B0FBF1F0401CC0F30B00B7E7A08601009A
:101BE00080841E0000093D0040420F002DE9FF4F98
:101BF00083B09A46DDE9119793460446DDF84080AC
:101C0000FFF734FF054694F83D0020287FD11923C3
:101C1000012240492046009501F098FC002876D129
:101C200094F83C00012872D0012084F83C00206820
:101C30000168C90703D1016841F001010160206812
:101C4000016821F400610160212084F83D004020FA
:101C500084F83E0000262664C4F82480A4F82A9064
:101C6000608D20852C48E062CDE9007553465A46C8
:101C70002046049901F0FAFB70B930E02A46394653
:101C8000204601F0E2FC58B1206C042804D1206801
:101C9000016841F400710160012007B0BDE8F08FD8
:101CA000606A216800780861606A401C6062218D6A
:101CB000491E89B22185628D521E62852268536950
:101CC000DB435B070BD469B100781061606A401C8C
:101CD0006062208D401E2085608D401E6085208DB5
:101CE0000028CBD12A463946204601F009FC0028BD
:101CF000CAD154F83D0B016841F400710160202005
:101D000004F81E09E67766770020C6E7FFE70220A1
:101D1000C3E70000020010000000FFFF10B586B00E
:101D20000021009101910291039100680F498842BE
:101D30001AD10F4CA06940F00800A061A069694663
:101D400000F008000490C0200090122001900320B1
:101D500003900848FFF788FDE06940F40010E06157
:101D6000E06900F40010049006B010BD005400407B
:101D700000100240000C01400248816802781144C2
:101D80008160704798000020074810B5016841F055
:101D900010010160032000F079F8002000F006F83F
:101DA00000F024F8002010BD0020024070B50D4D59
:101DB00004464FF47A712878B1FBF0F00A490968BB
:101DC000B1FBF0F000F007FD48B9102C07D200225B
:101DD0002146501E00F03AF800206C6070BD0120D2
:101DE00070BD000098000020940000200E4808B547
:101DF000816941F001018161816901F00101009176
:101E0000C16941F08051C161C06900F0805000900B
:101E1000042000F03BF80548416821F0E06141F002
:101E20000071416008BD0000001002400000014048
:101E3000002809DB00F01F020121914040098000C9
:101E400000F1E020C0F8001170470000F0B40E4B24
:101E50001B680C46C3F30223C3F10705042D00D908
:101E60000425191D072901D2002300E0DB1E0126ED
:101E700006FA05F1491E214099409E40761E164003
:101E80003143F0BC02F0BCBA0CED00E0064900F0B2
:101E9000070208684FF6FF03184040EA0220034A91
:101EA00010430860704700000CED00E00000FA05E8
:101EB0002DE9F0470F46050061D0434E306800F031
:101EC0000700B84209D2306820F00700384330607C
:101ED000306800F00700B84251D128683B4C8107B8
:101EE00012D5400703D5606840F4E0606060287850
:101EF000000703D5606840F4605060606068A968BE
:101F000020F0F000084360602878C00728D0686897
:101F1000012810D02168022810D0890700292EDA64
:101F2000616821F0030101436160FFF79FFD804676
:101F300041F288390DE021688903EFE78901EDE777
:101F4000FFF794FDA0EB0801494502D90320BDE845
:101F5000F0876068696800F00C00B0EB810FEFD18A
:101F6000306800F00700B8420BD9306820F0070055
:101F700038433060306800F00700B84201D00120DB
:101F8000E5E72878400705D56068E96820F4E06057
:101F9000084360602878000706D56068296920F446
:101FA000605040EAC100606000F038F86168084A9B
:101FB000C1F30311515CC840064908600648006837
:101FC000FFF7F4FE0020C2E70020024000100240AC
:101FD000724D0008940000209C0000200448054930
:101FE00000684968044AC1F30221515CC840704747
:101FF0009400002000100240824D0008044805496A
:1020000000684968044AC1F3C221515CC840704766
:102010009400002000100240824D000812A185B0FB
:102020000FC98DE80F0014A0144A0068049051688D
:10203000134801F00C03042B10D0082B0ED1C1F370
:102040008343C9031DF803000AD5516804AAC1F3EC
:102050004041515C0A4A5043B0FBF1F005B0704773
:1020600008494843FAE70000020304050607080987
:102070000A0B0C0D0E0F10100102000000100240A0
:1020800000127A0000093D002DE9F84F040070D0DD
:102090002078C04DC00749D06868C0F3810001288E
:1020A00007D06868C0F38100022809D16868C003BE
:1020B00006D52868800339D560680028E7D035E068
:1020C0006068B0F5803F0BD010B1B0F5A02F11D0F3
:1020D000286820F480302860286820F4802002E0FE
:1020E000286840F480302860606890B1FFF7BEFC3B
:1020F00006460AE0286840F480202860F0E700BF28
:10210000FFF7B4FC801B642873D828688003F7D5D8
:102110000CE0FFF7ABFC064605E000BFFFF7A6FCAE
:10212000801B6428F0D828688003F7D420789A4E62
:1021300080074FF001094FF0000839D5686810F0AA
:102140000C0F07D06868C0F38100022809D16868C5
:10215000C00306D42868800714D52069012808D157
:1021600010E02069B0B1C6F80090FFF77FFC074689
:1021700005E00AE1FFF77AFCC01B0228C4D82868F2
:102180008007F7D52868616920F0F80040EAC100AF
:1021900028600DE0C6F80080FFF768FC074604E001
:1021A000FFF764FCC01B022823D828688007F7D4F7
:1021B000207800072CD57948A169D9B1C0F80090E2
:1021C000FFF754FC074604E0FFF750FCC01B022851
:1021D0000FD8686A8007F7D571484FF4FA51006844
:1021E000B0FBF1F0009000BF0098411E0091FAD2C0
:1021F0000EE080E0C0F80080FFF738FC074604E0FE
:10220000FFF734FCC01B022875D8686A8007F7D432
:102210002078400760D5E8690027C00008D4E86945
:1022200040F08050E861E869012700F0805000909C
:102230005C480168C90513D40168834641F4807184
:102240000160FFF713FC824606E000BFFFF70EFCBB
:10225000A0EB0A0064284ED8DBF80000C005F5D5D5
:10226000E06801280AD008B1052813D0286A20F0B8
:1022700001002862286A20F0040002E0286A40F089
:1022800001002862E06841F2883B98B1FFF7EEFB5D
:1022900082460BE0286A40F004002862EEE700BFA7
:1022A000FFF7E4FBA0EB0A0159455AD8286A8007DA
:1022B000F6D50CE0FFF7DAFB824605E0FFF7D6FB28
:1022C000A0EB0A0159454CD8286A8007F6D41FB103
:1022D000E86920F08050E861E06988B36968C1F37B
:1022E0008101022944D00228C6F8608004D0FFF79B
:1022F000BDFB044638E034E0FFF7B8FB074604E0D6
:10230000FFF7B4FBC01B02282BD828688001F7D444
:10231000206AB0F5803F05D16868A16820F40030DC
:1023200008436860D4E908010843696821F474111E
:1023300008436860C6F86090FFF798FB044606E023
:1023400025E000BFFFF792FB001B022809D8286890
:102350008001F7D51BE000BFFFF788FB001B0228B8
:1023600002D90320BDE8F88F28688001F4D40EE07C
:102370000128F7D06868226A00F48031914204D1C4
:10238000616A00F47010884201D00120EAE7002061
:10239000E8E7000000100240000042428004424290
:1023A000940000200070004070B5040005D00025A6
:1023B000A56294F8510010B106E0012070BD84F8C8
:1023C0005050204600F02EF8022084F8510020687A
:1023D000016821F040010160D4E901010843D4E91A
:1023E00003121143084361690843218B01F4007112
:1023F0000843E1690843216A0843A16A0843216848
:102400000860A069042101EA104021684860206842
:10241000C16921F40061C1616565012084F8510042
:10242000002070BD30B585B0002400940194029462
:10243000039400681549884225D11548C16941F4C3
:102440008041C161C16901F480410491816941F019
:102450000801816180690F4D00F0080004904FF47D
:1024600020400090022001900320039069462846F6
:10247000FFF7FAF94FF48040CDE900046946284699
:102480000294FFF7F1F905B030BD000000380040BC
:1024900000100240000C01402DE9F84F044690F86E
:1024A000500000271D461646894601280DD04FF0E2
:1024B000010B84F850B0FFF7D9FA804694F8510028
:1024C000BA46012804D002278EE00220BDE8F88F2A
:1024D000B9F1000F7DD0002E7BD0032084F851008D
:1024E000C4F854A0C4F83090A686E686C4F838A094
:1024F000A4F83CA0A4F83EA0C4F844A0C4F840A0AE
:10250000A068B0F5004F04D12068016841F4804113
:10251000016020680168490603D4016841F0400168
:102520000160E068B0F5006F606803D030B3012E41
:1025300024D040E008B1012E1CD1206B2168008816
:10254000C86006E020688168890709D5216B098881
:10255000C160206B801C2063E08E401EE08609E095
:10256000FFF784FAA0EB0800A84202D3681C01D050
:1025700031E07DB3E08E0028E4D11FE0206B2168BC
:102580000078087306E020688168890709D5216B07
:1025900009780173206B401C2063E08E401EE086AA
:1025A00009E0FFF763FAA0EB0800A84202D3681C19
:1025B00001D010E075B1E08E0028E4D142462946F2
:1025C000204601F014FB08B120206065A06820B10E
:1025D00007E008E0FFE7032706E02068C16880689D
:1025E0000090606D00B1012784F851B084F850A0CC
:1025F00038466BE72DE9F84F044690F85000002765
:102600000A9E1D4692468B464FF0010901280ED0C6
:10261000012084F85000FFF729FA804694F8510011
:10262000616801280CD0B1F5827F07D102E0022059
:10263000BDE8F88FA16809B9042801D00227C2E0DB
:10264000BBF1000F27D0BAF1000F24D01DB394F8CE
:102650005100042802D0052084F851000020606554
:10266000C4F838A0E587A587C4F830B0E586A5860C
:102670002064606420680168490603D4016841F061
:1026800040010160E068B0F5006F606805D0E8B314
:10269000012D46D07FE0012795E008B1012D39D109
:1026A000206B21680088C860206B801C2063E08E4E
:1026B000401EE0862EE02068816889070FD5E18EF4
:1026C00069B1B9F1010F0AD1216B0988C160206B92
:1026D000801C2063E08E401EE0864FF000092068D9
:1026E0008168C9070CD0E18F51B1C068A16B088027
:1026F000A06B801CA063E08F401EE0874FF00109B3
:10270000FFF7B4F9A0EB0800B04200E009E001D304
:10271000701C50D1E08E0028CDD1E08F0028CAD1A6
:102720003FE0206B216800780873206B401C206319
:10273000E08E401EE0862EE02068816889070FD574
:10274000E18E69B1B9F1010F0AD1216B09780173EA
:10275000206B401C2063E08E401EE0864FF0000995
:1027600020688168C9070CD0E18F51B1C068A16BA6
:102770000870A06B401CA063E08F401EE0874FF004
:102780000109FFF773F9A0EB0800B04202D3701CF7
:1027900001D010E07EB1E08E0028CDD1E08F00287E
:1027A000CAD142463146204601F021FA28B101271C
:1027B0002020606507E0032705E0A06818B92068BD
:1027C000C16880680090012084F85100002084F8DE
:1027D000500038462CE710B5401EB0F1807F01D381
:1027E000012010BD4FF0E02460610F21601701F05F
:1027F00007FE0020A06107202061002010BD704767
:10280000704770B590F83C20012A19D0012400F8D7
:102810003C4F0222427050F83C3C5A689D6822F0BE
:1028200070060A684968324325F0800529435A60DA
:1028300050F83C2C9160447000210170084670BD36
:10284000022070BD10B5040003D094F83D0010B113
:1028500007E0012010BD002084F83C00204600F075
:102860000DF8022084F83D00211D206801F07CFA5B
:10287000012084F83D00002010BD000008B51A4A70
:1028800001681A4891420ED1816941F40061816169
:102890008069002200F40060009002211920FFF7F7
:1028A000D5FA192013E0B1F1804F14D0104A9142AB
:1028B00019D1C16941F00401C161C069012200F070
:1028C0000400009002211E20FFF7C0FA1E20BDE880
:1028D0000840FFF7ADBAC16941F00101C161C069AB
:1028E00000F00100009008BD002C014000100240E3
:1028F000000800400168CA6842F00102CA6000682E
:10290000816801F00701062903D0016841F0010147
:102910000160002070470168CA6822F00102CA60A5
:102920000068016A41F21112114207D1016A921046
:10293000114203D1016821F00101016000207047BC
:1029400070B5044690F83C00012817D0012584F8A2
:102950003C50022084F83D002068826822F0770213
:1029600022F47F4282600868502830D00DDC202895
:102970004DD005DC98B310283BD148E0022070BD53
:10298000302844D0402834D139E0602828D070283D
:1029900006D0B0F5805F2CD0B0F5005F29D10AE0F9
:1029A000CB68D1E90121206801F021FA2068816813
:1029B00041F0770109E0CB68D1E90121206801F0FD
:1029C00016FA2068816841F48041816011E0CA688C
:1029D0004968206801F0C0FA5021206807E016E03D
:1029E000CA684968206801F0C8FA6021206801F0CF
:1029F00008FA84F83D50002084F83C0070BDCA6895
:102A00004968206801F0A8FA40212068EFE72268B1
:102A100001461046EBE7704770B50446006801694F
:102A20004FF00005C943890715D4C168C943890718
:102A300011D4E91E01610120207720688069800798
:102A4000204602D0FFF7E7FF04E000F0BDF8204683
:102A500000F03FF9257720680169C943490717D479
:102A6000C168C943490713D46FF004010161022012
:102A700020772068806910F4407F204602D0FFF75D
:102A8000CAFF04E000F0A0F8204600F022F9257704
:102A900020680169C943090716D4C168C9430907F9
:102AA00012D46FF008010161042020772068C0690A
:102AB0008007204602D0FFF7AEFF04E000F084F864
:102AC000204600F006F9257720680169C943C90648
:102AD00017D4C168C943C90613D46FF0100101614E
:102AE000082020772068C06910F4407F204602D07B
:102AF000FFF791FF04E000F067F8204600F0E9F8E6
:102B0000257720680169C943C90708D1C168C9434D
:102B1000C90704D1891E0161204600F021F920680F
:102B20000169C943090609D4C168C943090605D426
:102B30006FF0800101612046FFF761FE20680169A6
:102B4000C943490609D4C168C943490605D46FF091
:102B500040010161204600F0A7F920680169C943DE
:102B600089060BD4C168C943890607D46FF02001D8
:102B700001612046BDE87040FFF742BE70BD000015
:102B800000B585B000210091019102910391006888
:102B9000B0F1804F11D10A48816941F0040181618F
:102BA0008069694600F00400049003200090022030
:102BB000019003900348FEF757FE05B000BD0000EA
:102BC0000010024000080140704770B5044690F8BC
:102BD0003C000D4601280DD0012684F83C600220FF
:102BE00084F83D0042B1042A18D0082A2AD00C2AC1
:102BF0004DD139E0022070BD206801F00BF920684A
:102C0000816941F0080181612068816921F0040136
:102C10008161206881692A69114311E0206801F00F
:102C200021F92068816941F400618161206881692E
:102C300021F480618161206881692A6941EA022169
:102C4000816124E0206801F039F92068C16941F010
:102C50000801C1612068C16921F00401C1612068D7
:102C6000C1692A69114311E0206801F053F9206815
:102C7000C16941F40061C1612068C16921F48061CA
:102C8000C1612068C1692A6941EA0221C16184F8F1
:102C90003D60002084F83C0070BD10B5040003D0F6
:102CA00094F83D0010B107E0012010BD002084F829
:102CB0003C00204600F00CF8022084F83D00211D65
:102CC000206801F051F8012084F83D00002010BD7B
:102CD0007047704710B504460068012201F07AF889
:102CE00009492068884203D1416C41F400414164A4
:102CF0002068816801F00701062903D0016841F0CE
:102D000001010160002010BD002C014010B50446F7
:102D10000068002201F05EF8104B41F211112068AA
:102D20008A10984209D1036A0B4206D1036A134202
:102D300003D1436C23F4004343642068036A0B42CD
:102D400006D1016A114203D1016821F0010101603D
:102D5000012084F83D00002010BD0000002C01403F
:102D60002DE9F047074600683D4901263D4C002506
:102D7000884235D13C496068DFF8F0800A689042AB
:102D800006D23B490846FEF7CBFA88F8006017E008
:102D90003849096888420DD31144814206D9344923
:102DA0000846FEF708FB88F8005009E03249096838
:102DB000884204D22E490846FEF78DFA00E065608D
:102DC00060682E49401C6060A068884205D34FF4BB
:102DD00000512B48FEF73DFEA560A068401CA06096
:102DE00028493868884238D12078274F401CC0B223
:102DF00020703978DFF894904FF07E5AA1B13228D4
:102E000012D9DFF88C8025705146D8F8000001F007
:102E100013FD2049C8F8000089F80060884203DBF0
:102E20003D701D48FFF777FD1C4F3878002814D0FF
:102E300020781E2811D92570194C5146206801F0C0
:102E4000FBFC1849206089F80060884205DB3D7072
:102E5000BDE8F0471048FFF75EBDBDE8F087000011
:102E6000002C0140880000202000002004000020E9
:102E7000340000201C00002018000020A086010063
:102E800000100140000800406800002005000020FC
:102E90001000002000007A439C26002069000020DA
:102EA000140000200000C842704710B504460068B6
:102EB000416994F83920C1F3C011212A0BD151B1D5
:102EC000416921F080014161206B08B1FEF70FFBE1
:102ED000204601F04BF92068416994F83A20C1F38B
:102EE0008011222A0BD151B1416921F04001416189
:102EF000606B08B1FEF7FBFA204601F029F90020CB
:102F000010BD704770B5026804461068D1685369F7
:102F100010F00F0F50D003F0010501F49076354307
:102F20005DD0C20705D0CA0503D5E26B42F00102AD
:102F3000E263420705D5DA0703D0E26B42F00202F2
:102F4000E263820705D5DA0703D0E26B42F00402A0
:102F5000E263020705D5DA0703D0E26B42F008020C
:102F6000E263E26B002A33D0800604D5880602D5DE
:102F7000204601F004F920684069E16BC0F380103D
:102F8000090700D428B3204601F0E2F8206841691F
:102F900049061AD5416921F040014161606BA0B139
:102FA0001B494163606BFEF7C5FA002810D0606BC7
:102FB000416BBDE870400847830610D58B060ED5DF
:102FC0002046BDE8704001F0DAB82046FFF799FFCF
:102FD00070BD2046FFF795FF0020E06370BD03063B
:102FE00006D50B0604D52046BDE8704001F06EB949
:102FF0004006F3D54806F1D5D168204621F04001BE
:10300000D160202184F8391000F0F2F970BD000081
:103010007940000870B50068104988421CD11048FA
:10302000FFF743FFFDF77CFF0E49104C01200870AD
:103030000D4D2078402105EB8010FDF77CFB2078BA
:1030400080F0010020702078402205EB8011BDE85F
:103050007040034800F0E0B870BD00000038014047
:10306000DC2600200A000020F800002009000020D3
:1030700070B5040004D094F83900002510B106E0C2
:10308000012070BD84F83850204600F023F8242039
:1030900084F839002068C16821F40051C1602046DD
:1030A00001F0B8F82068016921F4904101612068BD
:1030B000416921F02A0141612068C16841F4005151
:1030C000C160E563202084F8390084F83A000020CC
:1030D00070BD00002DE9F04186B0002400940194F9
:1030E00002940394064603684548DFF810C10221A4
:1030F00003220515802763453AD1836943F4804351
:103100008361836903F480430493836943F0040378
:1031100083618069DFF8EC8000F00400049008020D
:10312000CDE90001039269464046FEF79DFBCDE9DB
:103130000054694640460294FEF796FB334D3248F0
:10314000C5E90004C5E9024720202C61C5E9054016
:103150002846EC61FEF7E4FA08B1FEF7C6F975639C
:103160000122032125206E62FEF770FE252040E03B
:10317000DFF89CC063453ED1C36943F48023C3613B
:10318000C36903F480230493836943F008038361D4
:103190008069CDE9005100F00800CDE903201D4D04
:1031A00069462846FEF760FBE814CDE9000469464D
:1031B00028460294FEF758FB144D134844353C381A
:1031C00001C5102091C54FF4405045F810496C617D
:1031D000C5E906400D484430FEF7A2FA08B1FEF7F3
:1031E00084F935630022032127206E62FEF72EFE4C
:1031F0002720FEF71DFE06B0BDE8F0810038014033
:103200000010024000080140580002405C270020E6
:1032100000480040000C0140F8B5044690F83A0020
:1032200020283CD1C1B3BAB394F83800012836D075
:10323000012084F83800A162A2850025E5632220E0
:1032400084F83A00636B17489862636B1648D8623B
:10325000636B16481863606B134645630846666BDC
:10326000216802463046091DFEF788FA2068016889
:103270004168009184F83850C16841F48071C160A0
:103280002068416941F0010141612068416941F0D4
:10329000400141610020F8BDFFE70120FBE702206B
:1032A000F9E70000D34000080F41000889400008FA
:1032B000704770472DE9F843044690F839001F46DF
:1032C00016460D46202850D1A5B19EB194F838007D
:1032D00001284AD0012084F838004FF00008C4F8D3
:1032E0003C80212084F83900FEF7C0FBA68481468B
:1032F000E68426E00120BDE8F883E08C401EE084EF
:10330000A0684B46B0F5805F4FF000024FF080019F
:103310002046009703D001F00AF8E8B90DE001F06B
:1033200006F8C8B928882168C0F3080048602069F9
:1033300008B16D1C05E0AD1C03E0216815F8010B18
:103340004860E08C0028D8D14B460022402120461E
:10335000009700F0ECFF08B10320CCE7202084F8B0
:10336000390084F838800020C5E70220C3E7000058
:1033700070B5044690F83900202830D169B362B3A3
:1033800094F8380001282AD0012084F838002162FE
:10339000A284E2840025E563212084F83900236BB0
:1033A00010489862236B1048D862236B0F4818634B
:1033B000206B134645632668206B321DFEF7DEF94D
:1033C00021686FF04000086084F838502068416937
:1033D00041F080014161002070BD012070BD0220DC
:1033E00070BD0000194100084741000889400008ED
:1033F0000D4A0168914216D1EFF3108172B6828CAA
:103400000A4803681A4402600368094A934203D3D6
:103410000268A2F510520260064A0020107081F383
:10342000108800F0F7BD7047004800402C000020D5
:10343000B82500200B0000207047FEE701684A69AC
:10344000D24352050FD46FF480624A61002140F8E4
:10345000301F202242738173026942F0040202612C
:103460000173012070470020704700002DE9F843E8
:10347000044600680D46DDE908970168984616463F
:1034800041F4807101604B4600224FF0011120464B
:10349000009700F05BF8E0B9216805F0FE000861D4
:1034A0003B464A461549204600F084F888B9206812
:1034B0004169806900903A464946204600F0C5F8C7
:1034C00050B1206C042804D12068016841F40071D7
:1034D00001600120BDE8F883F5B2B8F1010F09D011
:1034E0002168300A08613A464946204600F0ADF8A6
:1034F0000028E6D1206805610020EBE7020001000A
:1035000070B516460D4604460DE02046FFF796FFBF
:1035100008B1012070BD681C05D0FEF7A7FA801B1A
:10352000A84207D835B120684069C0434007ECD4B1
:10353000002070BD002044F8300F20216173A0737B
:10354000216941F0200121612073E2E72DE9F04774
:103550001E4690460D460446C1F30747DDF820900D
:1035600008E0701C06D0FEF781FAA0EB0900B0421B
:103570000FD876B12068012F18D0806925EA0000A5
:103580000004000C14D000214145EAD00020BDE821
:10359000F087002044F8300F20216173A073216967
:1035A00041F02001216120730120F0E74069E5E747
:1035B0000121E9E72DE9F0479A4691460E46044677
:1035C00000254FF02008C1F3074725E02068406937
:1035D000C043400514D42068016841F400710160C3
:1035E00021686FF480604861256384F83D8084F829
:1035F0003E50206C40F00400206484F83C501FE0F2
:10360000B9F1FF3F08D0FEF731FAA0EB0A014945B6
:103610000CD8B9F1000F09D02068012F13D08069B0
:1036200026EA00000004000C0BD0CFE744F8305F1E
:1036300084F80D80A573206940F020002061257377
:103640000120BDE8F0874069EAE770B516460D46EF
:1036500004460DE02046FFF7F1FE08B1012070BDE1
:10366000681C05D0FEF702FA801BA84207D835B1C6
:1036700020684069C0430006ECD4002070BD0020E3
:1036800044F8300F20216173A073216941F02001BB
:1036900021612073E2E700002DE9F041294CE07838
:1036A00080F00100E0704FF480412748FEF7D1F927
:1036B000E078DFF8988000264FF4805704F1300559
:1036C000A8B123A12748FCF793FD267100223946B3
:1036D0004046FEF7C5F9D5E90101FFF7FBFAE968B5
:1036E0006868FFF7F7FA2048FFF704F925E0D5E905
:1036F0000101FFF70BFBE9686868FFF707FB1A4851
:10370000FFF709F919A11748FCF772FD01223946A4
:103710004046FEF7A5F926711B48FFF7C6FBEFF3FD
:10372000108572B60F484030A0626062E6714FF4B7
:103730001051FDF700F885F310880120A071BDE855
:10374000F08100000400002000100140000C014046
:1037500052656164696E67204C485220446174610F
:103760002E0D0A00780100201C26002053746F7073
:10377000706564204C485220446174612052656138
:1037800064696E672E0D0A001C2700200D4808B5DD
:10379000416941F0010141614069002200F00100EE
:1037A000009001210C20FEF751FB0C20FEF740FB9E
:1037B000012211460F20FEF749FBBDE808400F200B
:1037C000FEF736BB001002402DE9F04786B000241A
:1037D00039480094019402940394816941F01001E6
:1037E0008161816901F010010491816941F020013A
:1037F0008161816901F020010491816941F0040136
:103800008161816901F004010491816941F008013D
:1038100081618069DFF8A48000F008000490002234
:103820004FF400514046FEF71BF901229103404638
:10383000FEF716F9DFF888A0002204215046FEF7B3
:103840000FF90122DFF87C90170339464846FEF74E
:1038500007F94FF4C04001250226CDE90005CDE966
:10386000024669464046FDF7FFFF0420CDE900050A
:10387000CDE9024669465046FDF7F6FF0320CDE943
:103880000240CDE9007569464846FDF7EDFF4FF46B
:10389000C05000900C48CDE9010569465046FDF73F
:1038A000E3FF002211462820FEF7D0FA2820FEF779
:1038B000BFFA06B0BDE8F0870010024000100140DA
:1038C00000080140000C0140000021100D4810B517
:1038D0000B4901600C49416000214FF48042816036
:1038E000C0E9031241618161C1610162FEF7C4F860
:1038F000002803D0BDE81040FDF7F7BD10BD000063
:1039000000540040A4000020A0860100104810B51B
:103910000E4901604FF482714160002102228160F2
:10392000C0E9031201224261520282611022C0E901
:103930000721416281620A21C162FEF735FD00283C
:1039400003D0BDE81040FDF7D0BD10BD00380040E9
:10395000C425002010B586B00024174800940194B7
:103960000294039404941349059401604721C0E92B
:1039700001140921C0E903148021C0E90541FEF7C3
:1039800061FF08B1FDF7B1FD4FF48050009069462A
:103990000948FEF7D5FF08B1FDF7A7FD049404A977
:1039A00005480594FEF72DFF002801D0FDF79DFD89
:1039B00006B010BD002C01401C26002010B58EB0B2
:1039C00000240794089409940A940B941C216846D7
:1039D0000C94FCF7D2FE23484FF08041016040F286
:1039E0001F11C0E901143121C0E903148021816154
:1039F000FEF728FF08B1FDF778FD4FF480500790DF
:103A000007A91848FEF79CFF08B1FDF76EFD1548A1
:103A1000FFF743F908B1FDF768FD0B940BA91148B6
:103A20000C94FEF7EEFE08B1FDF75FFD60200090FC
:103A30001920CDE9010404200490002269460948B8
:103A4000FFF7C3F808B1FDF750FD042269460548A9
:103A5000FFF7BBF808B1FDF748FD0248FFF790F803
:103A60000EB010BD5C26002010B586B000241748AB
:103A70000094019402940394049413490594016002
:103A800041F61F41C0E901140921C0E90314846112
:103A9000FEF7D8FE08B1FDF728FD4FF480500090E6
:103AA00069460A48FEF74CFF08B1FDF71EFD049475
:103AB00004A906480594FEF7A4FE002801D0FDF7EE
:103AC00014FD06B010BD0000000800409C26002038
:103AD0000C4810B50A4901604FF4165141600021AD
:103AE00081600C22C160C0E904128161C161FFF7ED
:103AF000BFFA002803D0BDE81040FDF7F6BC10BDAA
:103B000000380140DC2600200C4810B50A4901604D
:103B10000B494160002181600822C160C0E90412A4
:103B20008161C161FFF7A4FA002803D0BDE810400D
:103B3000FDF7DBBC10BD0000004800401C27002042
:103B400080841E00FEE7FEE770B5002404F1B0009B
:103B5000C0B200F027F8002000F024F8102000F098
:103B600021F80025002000F02FF86D1CEDB2802D0B
:103B7000F8D3641CE4B2082CE8D370BD10B58D20D6
:103B800000F010F8142000F00DF8BDE81040AF2050
:103B900000F008B810B5C820FDF728FEBDE81040B9
:103BA00000F014BC01B584B001214FF4807204A868
:103BB0008DE807000B46002278210248FEF716F830
:103BC00005B000BDA400002001B584B001214FF470
:103BD000807204A88DE807000B4640227821024835
:103BE000FEF704F805B000BDA4000020704738B50A
:103BF0000B46009204460022802100F008F80028BD
:103C000004D0606D40F020006065032038BD2DE9D0
:103C1000F0411D4617460E460446DDF8188008E0C0
:103C2000681C06D0FDF722FFA0EB0800A8420BD2CB
:103C300055B12068806836EA000030D00020B842D4
:103C4000EED10020BDE8F0812068416821F0E0015C
:103C500041606068B0F5827F0BD1A068B0F5004F7D
:103C600002D0B0F5806F04D12068016821F04001D6
:103C70000160A06AB0F5005F09D12068016821F4F5
:103C8000005101602068016841F400510160012089
:103C900084F85100002084F850000320D2E701206E
:103CA000CDE77047FEF768B830B58FB02821684679
:103CB000FCF763FD14210AA8FCF75FFD012108044D
:103CC000CDE900100024029402250491CDE90750AB
:103CD0004FF4E01009906846FEF7D6F908B172B6C5
:103CE000FEE70F20CDE90A054FF48060CDE90C40D6
:103CF00002210AA80E94FEF7DBF8002801D072B664
:103D0000FEE70FB030BD00000D48016841F0010131
:103D1000016041680B4A1140416001680A4A114044
:103D20000160016821F480210160416821F4FE01F5
:103D300041604FF41F0181600449C003086070476F
:103D4000001002400000FFF8FFFFF6FE08ED00E063
:103D50000148FEF761BE00001C2600200148FEF766
:103D60005BBE00009C260020F0B50268164B174C85
:103D7000174D4FF08047984205D0B84203D0A0427B
:103D800001D0A84203D122F070064A68324398421B
:103D900005D0B84203D0A04201D0A84203D122F4FA
:103DA0004074CA6822434C6922F0800222430260B8
:103DB0008A68C2620A688262984201D10969016315
:103DC00001214161F0BD0000002C014000040040D1
:103DD0000008004010B501F01F030121046A99405A
:103DE0008C430462016A9A401143016210BD10B510
:103DF000846842EA032224F47F440A432243826017
:103E000010BD826822F070020A4342F0070181600F
:103E10007047000030B5026A22F001020262026AB5
:103E20004368846924F073050C682C4322F0020572
:103E30008A682A430A4DA8420BD122F00805CA68B5
:103E400023F440732A434D6922F004021D438B6919
:103E50002B434360846149684163026230BD0000C6
:103E6000002C014030B5026A22F010020262026AA0
:103E7000436884690D6824F4E64444EA05248D68A7
:103E800022F0200242EA05120B4DA8420ED1CD6865
:103E900022F0800242EA05124D6923F4406343EAAE
:103EA00085038D6922F0400243EA85034360846103
:103EB00049688163026230BD002C014030B5026A5E
:103EC00022F480720262036A4268C46923F40073B8
:103ED00024F073050C682C438D6843EA05230C4DD0
:103EE000A8420ED1CD6823F4006343EA05234D694F
:103EF00022F4405242EA05128D6923F4806342EABB
:103F000005124260C4614968C163036230BD0000AC
:103F1000002C014030B5026A22F480520262046A29
:103F20004268C3690D6823F4E64343EA05238D68BC
:103F300024F4005444EA0534064DA84204D14D69E6
:103F400022F4804242EA85124260C36149680164FA
:103F5000046230BD002C014010B5036A046A24F0ED
:103F600001040462846924F0F00444EA021423F09A
:103F70000A020A438461026210BD10B5036A23F08D
:103F8000100303628369046A23F4704343EA023234
:103F900024F0A00343EA01118261016210BD000018
:103FA000F0B5EFF3108272B6184C656A184BA66A2A
:103FB000ED1AADB2F61AB6B2B54201D3AD1B02E0AE
:103FC000751BC5F51055ADB242F2FF36751BADB28B
:103FD0008D4203D282F310880020F0BD002503F546
:103FE00010560DE0475DD4F824C08CF80070676A65
:103FF0007F1C6762676AB74200D363626D1CADB213
:104000008D42EFD382F310880120F0BD0400002020
:10401000B801002010B5EFF3108072B6134CE179AF
:1040200019B9616AA26A914202D180F3108810BD69
:10403000A16A626AA36A9A4203D9626AA36AD21A1F
:1040400004E00B4AA36AD21A02F51052012392B27D
:10405000E37180F310880748FFF78AF90028E6D05B
:10406000EFF3108072B60021E171DEE7040000205A
:10407000B80100201C27002010B5406A0021C1852E
:10408000C184FEF73EFF10BD70B5446A20684069E8
:1040900094F83910C0F3C0100025212904D118B1BB
:1040A000E584204600F062F82068406994F83A10F0
:1040B000C0F38010222904D118B1E585204600F014
:1040C00047F8E06B40F01000E0632046FEF719FF70
:1040D00070BD10B50146406A09680968890613D4A5
:1040E0000021C1850168CA6822F48072CA60016833
:1040F0004A6922F001024A6101684A6922F04002DD
:104100004A61202180F83A10FFF7D2F810BD10B5AF
:10411000406AFFF7CEF810BD10B50146406A096845
:10412000096889060CD40021C18401684A6922F01B
:1041300080024A610068C16841F04001C16010BD61
:10414000FFF756F910BD10B5406AFFF775F910BDBD
:104150000168CA6822F49072CA6001684A6922F054
:1041600001024A61202180F83A1070470168CA684C
:1041700022F0C002CA60202180F83910704710B5C3
:1041800090F83A10222901D0022010BD8168B1F5C3
:10419000805F11D00169002901681FD0496801F0D2
:1041A0007F03816A4A1C82620B70C18D491E09041B
:1041B000090CC18518D02BE00269816A002A0268C7
:1041C000526805D0D2B20A80816A491C8162ECE74C
:1041D000C2F308020A80816A891CF7E74A68816A8B
:1041E0004B1C83620A70E0E70168CA6822F0200273
:1041F000CA600168CA6822F48072CA6001684A69AC
:1042000022F001024A61202180F83A10FFF750F8AD
:10421000002010BD2DE9F041044600680169E26804
:1042200021F44051114301612169A068084361698B
:1042300008432168CA6841F20C639A430243CA608A
:1042400020684169A26921F44071114341611E490E
:10425000206864253226884202D1FDF7CFFE01E0B6
:10426000FDF7BCFE00EBC00101EB001160686FF0D0
:1042700018078000B1FBF0F2B2FBF5F2B1FBF0F3EE
:104280007A4303EB8202B1FBF0F306EB0212B2FBBE
:10429000F5F2B3FBF5F302F0F00202EB0312B1FB0F
:1042A000F0F3B1FBF0F0B0FBF5F0784303EB8000E6
:1042B00006EB0010B0FBF5F0216800F00F00104491
:1042C0008860BDE8F08100000038014090F83910A6
:1042D000212901D0022070478168B1F5805F016A11
:1042E0000BD04A1C0262026809785160C18C491ED9
:1042F0000904090CC1840ED017E009880268C1F3D3
:104300000801516001690029016A02D0491C01625B
:10431000ECE7891CFBE70168CA6822F08002CA60EA
:104320000068C16841F04001C160002070472DE97C
:10433000F041984617460E460446069D1DE0681C4F
:104340001BD02DB1FDF792FBA0EB0800A84214D9B9
:104350002068C16821F4D071C1602068416921F0F2
:1043600001014161202084F8390084F83A000020DE
:1043700084F838000320BDE8F0812068006836EA40
:10438000000004D00020B842D9D00020F3E701207B
:10439000F9E70000084808B500680168C943C90684
:1043A00005D40168406800900348FEF733FEBDE87D
:1043B00008400148FEF7A6BDDC2600200148FEF7B4
:1043C000A1BD00001C270020FEE70000FEB5002470
:1043D000094F4FF4807501263819CDE900060123F5
:1043E0000022782102950548FDF700FC641CE4B228
:1043F0001B2CF1D3FEBD00006A000020A4000020A9
:104400000907090E002804DB00F1E02080F8001401
:10441000704700F00F0000F1E02080F8141D704795
:1044200030380A2801D2012070470020704770B54B
:104430000546382100F05AF804463921284600F094
:1044400055F844EA00243A21284600F04FF844EA9F
:10445000004070BD70B50C46054601220B2100F0EE
:1044600064F83F21284600F041F8D42801D001200B
:1044700070BD44F050020121284600F056F8012298
:104480000521284600F051F801220C21284600F0B1
:104490004CF8A0220A21284600F047F8A522302136
:1044A000284600F042F800223121284600F03DF86D
:1044B00000223221284600F038F800223321284615
:1044C00000F033F800223421284600F02EF8064987
:1044D0000120002208700B21284600F026F86420F5
:1044E000FDF784F9002070BD000000203EB50446B1
:1044F00041F080008DF8040000208DF8050021892E
:1045000000226068FDF7ACFA4FF0FF300090022304
:1045100002AA01A92068FEF76DF8218901226068CE
:10452000FDF79EFA9DF809003EBD38B5044601F03E
:104530007F008DF800008DF801202189002260683D
:10454000FDF78EFA4FF0FF33022269462068FDF72F
:10455000A3FF218901226068FDF782FA38BD0000BF
:10456000FDF712FCFFF7A0FBFFF72EF9FFF70EF99E
:10457000FFF7AEFAFFF722FAFFF7A8F9FFF7C6F93F
:10458000FFF7C2FAFFF770FAFFF7E4F9644C6348EB
:104590006179402200EB81116248FEF73DFE6148DF
:1045A0000068C16841F01001C160FFF7F3FAFFF73E
:1045B000CBFAFFF7E3FA04F13000FCF7E6FE5748C8
:1045C00059A18030FBF714FE54488030FCF749F8BD
:1045D000524982B24FF0FF394B4680315148FEF7C5
:1045E00069FE062104F15800FFF734FF80B14B4803
:1045F00054A18030FBF7FCFD48488030FCF731F8CF
:10460000464982B24B4680314648FEF753FE11E0E0
:10461000424857A18030FBF7EBFD40488030FCF763
:1046200020F83E4982B24B4680313E48FEF742FEBA
:104630000120A070DFF860A10025207A68B1FDF7A5
:1046400015FAE16A884208D925724FF4006153488F
:10465000FDF7FAF908B9FFF71FF86078E0B15048A4
:10466000E16800F04BF94FF07C578046394600F086
:10467000E3F800F005FA064660615146206900F053
:104680003DF9414600F034FA394600F0D5F800F023
:10469000F7F9E0617008A061A07848B3E07838B31A
:1046A000207928B325711E485830FFF7C0FE3D4ED3
:1046B0002062010A30707170010CB170000EF07050
:1046C0005146E06800F014FA00F0DAF93071000A9F
:1046D0007071206900F0D4F9B0712078F071AA20CF
:1046E000307209213046FFF75BFC08B1FFF792FCFE
:1046F000A0790028A1D009488030FBF7B2FF074914
:1047000082B24B4680310748FEF7D4FD0348A571BD
:1047100040218030FCF70FF88FE70000F800002000
:1047200004000020DC2600205B4452563838333326
:104730005D4F7363696C6C6174696F6E204F6E2E90
:104740000D0A00005B4C4443313130315D4C444331
:104750003131303120496E697469616C697A6174F4
:10476000696F6E204661696C65642E0D0A00000059
:104770005B4C4443313130315D4C44433131303155
:1047800020496E697469616C697A6174696F6E2021
:10479000446F6E652E0D0A000000C84200080140FB
:1047A0000050C347B825002010B500290AD008786A
:1047B000002807D005487844FCF76AFB002801D0A0
:1047C000002010BD0248784410BD00002E060000F5
:1047D000260600000808A0F500114FEA31017047D5
:1047E00043004FEAD30C4FEA3C0C43401FBF400745
:1047F0000CF1605113F0FE4F70471CF0006F03D1B5
:1048000000200CF0004170470CF0004343EA507068
:1048100010B540EACC0000F0ECF900BF00000092B7
:104820004FEA0001FFF7D6BF4FF000414FF0000004
:10483000A1F500217047000090EA010F48BF81F008
:10484000004100F12882421A3CBF801A89184FEAC1
:10485000D0524FF07F4C1CEA410FA2EBD15318BF4E
:104860009CEA026F00F03B804FF0004C4CEA0020C5
:104870004CEA012121FA03FC10EB0C0C1ED202F1D0
:10488000FF325FEA1C2040EBC25038BF70471CF07B
:104890007F0F4FEA400C18BFBCF17F4F38BF704705
:1048A000C3F12003994008BF20F00100BCF17F4F05
:1048B00038BF7047A0F1C04000F0E1B94FEA3C00BA
:1048C000000A40EBC25028BF1CF0FF0F4FEA400C1B
:1048D000E6D018BFBCF17F4F38BF7047EAE79CEACB
:1048E000026F05D010EA5C0F08BF00F0004070476F
:1048F00010B500F07EF900BF64FBBE3E4FF47F0CA4
:104900001CEAD0121EBF1CEAD11392EA0C0F93EAE4
:104910000C0F00F0858090EA010F48BF42F48072CE
:1049200040F4000C41F400002CF07F4120F07F4067
:1049300000B58142A2EB03020FF2081CACEB504E13
:10494000C0F100009EF800E04FEA4E0E00FB0EFCA6
:1049500038BF49004FEA2C1C02F5FA020CFB0EF39B
:104960004FEACE1E4FEA112C4FEAC1210EEB635ED7
:1049700042EB22420EFB0CFC4FEA1C5300FB0311DE
:104980004FEA112C4FEA01310EFB0CFC4FEADC4CD4
:1049900000FB0C11C14228BF09184CEB03335DF832
:1049A00004EB10EB410143EBC250B2F57C0F38BF72
:1049B000704729D512F0F00F1CBF00F1C04000F085
:1049C00000407047008182838485868788898B8C2C
:1049D0008D8E8F919293959697999A9C9D9FA0A268
:1049E000A3A5A7A8AAACAEB0B2B3B5B7B9BCBEC0B8
:1049F000C2C5C7C9CCCED1D4D7D9DCDFE2E6E9EC59
:104A0000F0F3F7FAFE0000004FEA400C0CF1807C56
:104A1000BCF17E4F28BF7047B0F1C04000F02FB905
:104A200090EA010F0CEAD11348BF42F4807262454C
:104A300038BF634507D213F47F0F16D080EA010018
:104A400000F00040704710B500F0D3F8097EFC3E3E
:104A500000F005B880EA010000F00040704780EAED
:104A6000010000F0004000F00AB912F47F0F04BF0B
:104A70000248704780EA010000F001B90000C07FE1
:104A8000C10DD1F19E0206DB4FEA002343F0004343
:104A900023FA02F07047004207D54FEA4001B1F116
:104AA000FE4F02D24FF00000704710B500F0A1F8A1
:104AB00049922480002070476FEA20007047000070
:104AC00010F0004148BF4042B0FA80F310FA03F200
:104AD000C3F19D030BD051EAC35101EB12205306E1
:104AE00038BF704700F1010008BF20F00100704797
:104AF0004FF47F0C1CEAD0121EBF1CEAD11392EABD
:104B00000C0F93EA0C0F00F0478090EA010F48BFAA
:104B100042F480724FF0004C4CEA00204CEA012134
:104B200002EB0302A0FB0113A2F50002002918BF4B
:104B300043F001035B0028BF4FEA330342EB2242FC
:104B40005FEA132C4CEBC2502EBFBCEB436FB2F5A7
:104B50007C0F70474FEA036CBCF1004F08BF20F098
:104B60000100B2F57C0F38BF70470BD582F0FF0211
:104B700012F5803FC8BF704700F1C040D8BF00F0B9
:104B80000040704700F5000C5FEA4C0C48BF7047CE
:104B9000B0F1C04000F073B890EA010F0CEAD113F5
:104BA00048BF42F48072624538BF634504D280EA50
:104BB000010000F00040704710B500F01AF800BF87
:104BC0008900013E00F007B800F009B85FEA410C27
:104BD0005FEA1C6C08D080EA010000F050B85FEA80
:104BE000400C5FEA1C6CF6D14FF00040A0F580004D
:104BF00070470EF1020E2EF0030E5EF8044B2442B5
:104C000004D44FEA4102B2F17F4F11D84FEA40037A
:104C1000B3F17F4F0CD80ED14FEAD07CB2F17F4F69
:104C20000CEB4C0C0CF1020C08BF4CEBD17C04E0FB
:104C30004FF0080C01E04FEAD17C0CEB4C0324FA56
:104C400003F404F00704B4F1040C06D20EEB840C58
:104C5000BDE810404CF0010C6047DFE80CF007089D
:104C600002024FF00040A0F5800010BD084642004F
:104C700018BFD2F1807288BF00F0004010BDFF2144
:104C800041EAD050C005704790EA010F48BF81F05B
:104C900000413FF5D8AD421A04D882F00042A0EBA3
:104CA000020011444FEAD0524FF07F4C1CEA410FF2
:104CB000A2EBD15318BF9CEA026F4AD04FF0004CD0
:104CC0004CEA00204CEA012121FA03FCB0EB0C0C69
:104CD0000FD412F0FE0F36D05FEA4C001DD5001243
:104CE00040EBC25038BF70471CF03F0F18BF7047F1
:104CF0000BE0A2F101025FEA1C2040EBC25038BF7A
:104D000070471CF07F0F18BF7047C3F12003994014
:104D100014BF401E20F00100704780084FEA1223A4
:104D200008BF7047B0FA80FCA2EB0C02CCF1280C53
:104D300060FA0CF093EA122F04BF00EBC2507047E8
:104D40004FEAC3707047130A5FEADC1008BF704770
:104D5000F6E79CEA026F04D010EA5C0F08BF00205F
:104D6000704710B5FFF745FF40DFF63E81F0004089
:104D70007047000000000000000001020304060765
:104D800008090000000001020304303132333435D9
:104D90003637383941424344454640305800303177
:104DA0003233343536373839616263646566403092
:104DB000780004000008000000000000000200016C
:104DC00000001000F44E000800000020A4000000C5
:104DD00028010008984F0008A4000020A42D00001E
:104DE000440100081001000043000000F8FFFFFF2D
:104DF00000404040404040404040414141414140EE
:104E000040404040404040404040404040404040A2
:104E10004005020202020202020202020202020231
:104E20000220202020202020202020020202020236
:104E3000020290909090909010101010101010108E
:104E4000101010101010101010101010020202029A
:104E500002028888888888880808080808080808DE
:104E600008080808080808080808080802020202DA
:104E700040000000000000000000000000000000F2
:104E80000000000000000000000000000000000022
:104E90000000000000000000000000000000000012
:104EA0000000000000000000000000000000000002
:104EB00000000000000000000000000000000000F2
:104EC00000000000000000000000000000000000E2
:104ED00000000000000000000000000000000000D2
:104EE00000000000000000000000000000000000C2
:104EF00000000000000000000001000000000000B1
:104F0000000000000000484300004842000000008C
:104F1000000000000000000000000000B8010020B8
:104F2000B801002000000000000000005C26002006
:104F3000000000000400000000000000000000006D
:104F40000000000000000000000801400400000014
:104F5000C4250020000C0140001000000000AE003D
:104F60001040B081FFA1A6A83FC8D300D580D805C6
:104F7000D9F1DA12D8308D14AF0000000000000023
:104F800000000000000000000024F4000100000008
:084F9000100000000000000009
:04000005080000ED02
:00000001FF
