S31508000000682F0020C5010008EF4A0008874300084A
S31508000010ED4A0008B31D00084D5400080000000012
S315080000200000000000000000000000004B4C000823
S31508000030CF23000800000000954B00084D4C00082F
S31508000040DF010008DF010008DF010008DF01000802
S31508000050DF010008DF010008DF010008DF010008F2
S31508000060DF010008DF010008DF010008DF010008E2
S3150800007031210008DF010008DF0100083D210008E2
S31508000080DF010008DF010008DF010008DF010008C2
S31508000090DF010008DF010008DF010008DF010008B2
S315080000A0DF010008F94C0008DF010008DF0100083D
S315080000B0DF010008054D0008114D0008DF010008A2
S315080000C0DF010008DF010008DF010008DF01000882
S315080000D0DF01000819540008DF0100084154000830
S315080000E0D1230008DF010008DF01000800F002F84C
S315080000F000F059F80AA090E8000C82448344AAF15B
S315080001000107DA4501D100F04EF8AFF2090EBAE858
S315080001100F0013F0010F18BFFB1A43F0010318472D
S315080001206460000084600000103A24BF78C878C173
S31508000130FAD8520724BF30C830C144BF04680C60DF
S31508000140704700000023002400250026103A28BF27
S3150800015078C1FBD8520728BF30C148BF0B6070472B
S31508000160662905F09A87642900F0CA80752900F087
S31508000170C780782900F00081732900F042860020A4
S3150800018070471FB500F0CAFE04000020002105F0E4
S315080001905BFC401C60600020002105F03FFCE0602D
S315080001A01FBD10B510BD01F0C7F91146FFF7E9FFED
S315080001B005F02CFA01F0E5F903B4FFF7F2FF03BCEA
S315080001C001F028FA0948804709480047FEE7FEE794
S315080001D0FEE7FEE7FEE7FEE7FEE7FEE7FEE7FEE7E9
S315080001E004480549054A064B70470000B14C00080B
S315080001F0ED00000868290020682F0020682B0020E1
S31508000200682B00200FB41CB5074B06AA7B44694629
S315080002100090059800F0C3FD0020694600F0D2FD65
S315080002201CBC5DF814FB0000B50B00000FB41CB530
S315080002300C0007AA009001D02044401E074B7B44BF
S3150800024069460190069800F0AAFD002C03D069467D
S31508000250002000F0B7FD1CBC5DF814FB8D0B0000F8
S3150800026070B5044685690068C10601D5302600E0E8
S315080002702026C00707D070BDD4E901213046904733
S31508000280206A401C20626D1EF6D570BD70B5044606
S3150800029085690078C00707D170BDD4E901212020FF
S315080002A09047206A401C20626D1EF6D570BD70B559
S315080002B00C460546012A05D02878800600D5EA6945
S315080002C0002302E0012305E05B1C934202D2E05CB6
S315080002D00028F9D1A869E618C01AA861286A18443E
S315080002E028622846FFF7BCFF04E0D5E9012114F887
S315080002F0010B9047B442F8D32846FFF7C7FF70BDF5
S315080003002DE9F0410646002410687529314616A5E0
S3150800031010D0AFF30080002802DA404213A507E0A8
S3150800032031688A0701D512A502E0490704D511A547
S31508000330012401E0AFF3008000210A2206F1240718
S3150800034009E0B0FBF2FCB0FBF2F302FB1C00303014
S3150800035078541846491C0028F3D123462A463046C5
S31508000360BDE8F04100F0AEBA000000002D00000024
S315080003702B0000002000000070B504460D462146FB
S315080003801068AFF300802188090502D50F4A7A4420
S3150800039002E00E4A7A440E32002104F1240305E0F5
S315080003A000F00F060009965D5E54491C0028F7D137
S315080003B020780023000704D5702D02D009B1022346
S315080003C011322046BDE8704000F07CBA245D00007A
S315080003D02DE9F05F894604464FF0000ADFF874B14C
S315080003E0FB44C0F820A02046E1688847002874D05E
S315080003F0252806D0D4E901219047206A401C2062AE
S31508000400F1E700265F462046E1688847202805462A
S3150800041007DB312D05D2781910F8200C08B10643F0
S31508000420F1E7B00701D526F00406C4F81CA000279A
S31508000430C4F818A02A2D09D0284605F047F838B37D
S3150800044004EB8708303DC8F8185019E059F8041B22
S31508000450204604EB87029161E1688847012F05462B
S3150800046018D1E069002820DA26F020061DE0D8F821
S31508000470180000EB800005EB40003038C8F818007B
S315080004802046E1688847054605F020F80028EED1A1
S31508000490012F0AD02E2D08D12046E16888477F1CF7
S315080004A00546022F46F02006C4DBA069002803DAB9
S315080004B0404246F00106A061F00701D026F010067A
S315080004C06C2D0BD0682D09D04C2D39D06A2D35D01E
S315080004D0742D35D07A2D33D016E038E0E1682F46F2
S315080004E020468847B842054609D16C2F26D04FF4D6
S315080004F08060E168064320468847054604E06C2F7D
S315080005001AD04FF4807006430DB3A5F1410019289F
S3150800051002D8203546F400664A4629462046266013
S315080005204E46FFF71DFE80B101280BD0F61D26F0BA
S31508000530070000F1080956E74020E4E78020D8E7DD
S315080005400020D6E706F104094DE7284652E7206A57
S31508000550BDE8F09FFA5C00000FB400B58DB010A995
S31508000560099000910B904FF0FF300A9000200C90F4
S31508000570064878440690064878446A4607900F99D4
S3150800058009A800F057FC0DB05DF814FBDF08000061
S31508000590F70800002DE9FF5F1D464FF0FF3B914627
S315080005A04FF000085F46D5E90146A96901987F1C06
S315080005B08847296A824688470028F6D1BAF1FF3F5C
S315080005C00CD0002E24F4C06419DD600614D5BAF1E7
S315080005D02B0F09D0BAF12D0F0ED103E0584604B0FF
S315080005E0BDE8F09F44F48064A96901987F1C884798
S315080005F0761E8246002E02DDBAF1300F03D0B9F11D
S31508000600000F26D032E0A969761E01987F1C44F4B3
S3150800061000748847002E824605DDBAF1780F06D0A9
S31508000620BAF1580F03D0B9F1000F10D01EE0B9F196
S31508000630000F02D0B9F1100F18D1A969761E0198DA
S315080006407F1C24F4007488478246102002E00820A4
S3150800065000E00A20814609E0A96908FB0908761E18
S3150800066001987F1C44F4007488478246002E05DDF5
S315080006704946504600F0C9FB0028EDDAE9690198B9
S315080006808847A00502D46FF00100A8E7E00725D146
S31508000690600613D5600502D5C8F1000000E04046A3
S315080006A029680A1D2A600968220501D5087015E01F
S315080006B0220701D5088011E008600FE02868011DAF
S315080006C029600068210502D580F8008006E0210728
S315080006D002D5A0F8008001E0C0F8008038467EE721
S315080006E070B5064600F0EAF80468054630460A2260
S315080006F0002100F0CFFB2C6070BD10B5431C02E052
S3150800070010F8011B71B18107FAD14FF0013202C806
S315080007108C1A8C4314EAC211F9D0C01A0A0603D0FF
S31508000720C01E10BDC01A10BD0A0401D0801E10BD1F
S315080007300902FCD0401E10BD40EA010370B59B07B4
S315080007402ED14FF00136042A2AD308C810C99D1B9A
S315080007509D43121F15EAC61517D0D8B2E1B2401A42
S3150800076050EA056110D198B2A1B2401A50EA054183
S315080007700AD123F07F4024F07F41401A50EA052130
S3150800078002D1180EA0EB146070BDA342DBD018BAD4
S3150800079021BA884201D9012070BD4FF0FF3070BDE3
S315080007A00AB9002070BD10F8013B11F8014B63B17E
S315080007B0A3420AD1521E08D010F8013B11F8014B8A
S315080007C01BB1A34201D1521EEDD1181B70BD4FF0CB
S315080007D000020429C0F0128010F0030C00F01B8000
S315080007E0CCF1040CBCF1020F18BF00F8012BA8BF0E
S315080007F020F8022BA1EB0C0100F00DB85FEAC17CD2
S3150800080024BF00F8012B00F8012B48BF00F8012B84
S3150800081070474FF0000200B51346944696462039B5
S3150800082022BFA0E80C50A0E80C50B1F12001BFF49B
S31508000830F7AF090728BFA0E80C5048BF0CC05DF801
S3150800084004EB890028BF40F8042B08BF704748BF4F
S3150800085020F8022B11F0804F18BF00F8012B7047C3
S3150800086010B5044610F0030F08BF11F0030F40F04F
S3150800087015804FF0013E121FC0F20E8051F8043B5E
S31508000880A3EB0E0C2CEA030C1CEACE1C08BF40F89E
S31508000890043BF0D0A1F1040102F10402521E08DB68
S315080008A011F8013B002B00F8013BF7D11146FFF781
S315080008B08EFF204610BD7047704770470048704746
S315080008C0042900202DE9F0470D469946924604462C
S315080008D000F124080168880604D5E06921F01001B2
S315080008E0216000E00120A84201DD471B00E0002747
S315080008F0A1697A1902EB0900081AA0612078C006D6
S3150800090002D42046FFF7ACFC002608E0D4E9012112
S315080009101AF806009047206A401C761C20624E454D
S31508000920F4DB2078C0060AD52046FFF799FC06E0D6
S31508000930D4E9012130209047206A401C2062381EE5
S31508000940A7F10107F4DC07E0D4E9012118F805004E
S315080009509047206A401C2062281EA5F10105F3DC99
S315080009602046FFF793FC2078000602D50220BDE852
S31508000970F0870120FBE770472DE9FF4F0C461E461E
S315080009804FF0FF378BB0D2E90001DDF860800A909E
S315080009908A46C1F30A5505B93D46002108464FF077
S315080009A00000BAF1000F00F4400005DA00EB800001
S315080009B04FF4400101EA50004FEA9059B9F1010F8E
S315080009C000DDB9460A9850EA4A000ED044F610509F
S315080009D0A5F2FF3545432F14B8F1000F1ED0754216
S315080009E0291E1EDDC9F100021CE0B8F1010F4FF007
S315080009F0000001D0302103E0F24305E02154401CF9
S31508000A00B042FBDB30460022002121540B99C1F885
S31508000A100880C1E900200FB0BDE8F08FBD1B6D1C32
S31508000A20DEE74A4600DA694206A800F013FD06AB7F
S31508000A3093E8070003AB83E8070050460A9900F0DD
S31508000A40F0FD8DE80700A0F500501F3800900398C8
S31508000A50002D0ADD42F21F014A460844002303A975
S31508000A600390684601F059F809E0A0F500504A4697
S31508000A701F38002303A90390684601F063F88DE840
S31508000A8007000004000C03D04FF0FF30410800E0D7
S31508000A901046B8F1000F03D00022009215461EE05A
S31508000AA0751E05D400F03EFA303262556D1EF9D532
S31508000AB0B3460122084302D000227F1C04E02078B6
S31508000AC0302801D100227F1E002A099784D01DE014
S31508000AD0112D07DA00F026FA303262556D1C50EAFD
S31508000AE00102F5D1084302D00098C8B10EE00021F2
S31508000AF0681E05E0235C625C63542254401E491C50
S31508000B008142F7DBAB46A81B401E0990002004F87B
S31508000B100B000B98099AC0F80880C0E9002B7AE701
S31508000B2011264FF0000857E72DE9F04F884604468E
S31508000B30D21D22F0070191B0D1E90001CDE90A01E1
S31508000B4004F0A0FC02460B98C00F01D02D2007E048
S31508000B502068810701D52B2002E0202101EAC00088
S31508000B60032A099001D0072A05DB03464146204699
S31508000B7000F026FA0BE12078800601D5E06900E04E
S31508000B800620B8F1650F814606D0B8F1660F18D071
S31508000B90B8F1670F70D131E00020B9F1110F00905C
S31508000BA001DB112301E009F101030AAA01A90CA836
S31508000BB0FFF7E2FEDDE90C70002609F10105834620
S31508000BC047E001204B4600904FF000470AAA01A9CA
S31508000BD00CA8FFF7D1FEDDE90DB00C995D4600269D
S31508000BE010B909F101000D18B9EB050003D4C0F1DD
S31508000BF0FF3609F10105A5EB09002BE0B9F1010F54
S31508000C0001DA4FF001090020B9F1110F00904846AA
S31508000C1001DD112300E003460AAA01A90CA8FFF783
S31508000C20ABFEDDE90C704D460026834620780007AA
S31508000C300AD4AB4500DA5D4601A8012D04DD411949
S31508000C4011F8011C302907D04F4502DA17F1040FB5
S31508000C5004DA012082460FE06D1EEEE7002F02DC63
S31508000C60ED1B3E4403E0781CA84200DD7D1CB81B42
S31508000C7000F1010A4FF000472078000703D4AA457F
S31508000C8001DB4FF0FF3A0021B7F1004F0DF14308A1
S31508000C908DF8431024D002202B23002F01DA7F423F
S31508000CA02D230A21021EA0F1010000DC5FB197FB8B
S31508000CB0F1FC97FBF1F201FB1C7C17460CF1300C9A
S31508000CC008F801CDEEE7A8F10100037021880905AF
S31508000CD001D5452100E06521A0F1010800F8011CB5
S31508000CE009980FA9A1EB0807FF1D00B101204119BA
S31508000CF001EBEA70A1693844081A401EA061207801
S31508000D00C00602D42046FFF7ABFA099828B1D4E901
S31508000D1001219047206A401C20622078C00622D50F
S31508000D202046FFF79DFA1EE0002E04DBB34502DDE0
S31508000D3001A8805D00E03020D4E901219047206AAF
S31508000D40401C2062761CAAF101005FEA000A0AD15B
S31508000D5000F0E4F8C0680168405CD4E901219047D6
S31508000D60206A401C2062281EA5F10105DCDC07E08C
S31508000D70D4E9012118F8010B9047206A401C20622B
S31508000D80381EA7F10107F3DC2046FFF77FFA032098
S31508000D9011B041E601694A1C02610878704700B53E
S31508000DA08FB0CDE901310021059105497944CDE996
S31508000DB0031011466846FFF70BFB0FB000BD000095
S31508000DC0E5FFFFFF0A6802F8010B0A607047D1E9E0
S31508000DD000239A4202D2531C0B601070704710B55C
S31508000DE0436913B1AFF3008001E0FFF760FA012011
S31508000DF010BD127800F124010A7000224A700122FF
S31508000E00EDE711684FF0FF32E9E73A2800D23038AB
S31508000E1020F02002412A01D3A2F13700884201D3EB
S31508000E204FF0FF30704700000268114413780160E4
S31508000E3018467047D1600549794451610449794497
S31508000E40116200211161114600F0FAB8EDFFFFFFAB
S31508000E506D010000426842B1016811F8013B23B1F7
S31508000E60521EC0E90012184670470121C160881E4B
S31508000E70704742685AB1C368016843B983688B42B0
S31508000E8005D0491E521CC0E90012002070474FF0D9
S31508000E90FF3070472DE9F04791460F4680460446D5
S31508000EA0002614F8015B2DB100F030F80068405DAB
S31508000EB0C007F6D12B2D02D02D2D18D0641E4A4618
S31508000EC03946204600F076FA27B13968A14201D1A1
S31508000ED0C7F800804FF0020471050BD54042002880
S31508000EE003DDFFF7EBFC0460A007BDE8F08746F4D6
S31508000EF08066E4E70028F8DAFFF7E0FC04606FF0A4
S31508000F000040F2E7004870470429002010B500F0B9
S31508000F1005F8001D10BD00BF314B000000487047A2
S31508000F202429002030B5B0F10A024FEA900E71F17B
S31508000F3000034EEA817EB0EB0E0061EB91014FEAA9
S31508000F40101E4EEA017E10EB0E0041EB11114FEA1E
S31508000F50102E4EEA016E10EB0E0041EB11214FEAFE
S31508000F60104E4EEA014E10EB0E0041EB11414018AF
S31508000F7041F100014FEAD00040EA41704FEAD10141
S31508000F8010EB80054FEA810444EA907444EB0104AF
S31508000F906D1944EB0404521BA3414FF0000348BFEC
S31508000FA00A3200D530BD401C41F1000130BD10B5F4
S31508000FB00446FFF7ABFF0068005D00F0010010BDB6
S31508000FC02DE9F0411F46044603260168072A01F465
S31508000FD0006004DB08B116A505E016A503E008B114
S31508000FE015A500E015A521F010002060A069C01E17
S31508000FF0A0610FB1401EA0612046FFF731F94FB13D
S31508001000D4E9012138469047206A401C2062C01C5A
S31508001010206206E0206AFAE7D4E9012115F8010BF7
S315080010209047761EF8D22046FFF730F9BDE8F081E2
S315080010304E414E006E616E00494E4600696E66006E
S315080010402DE9F34F4FF0000A0C4656468DB00120A5
S315080010500C9001F10C000B9062690B9801219047E6
S31508001060051E2DD0252D2CD0216A8847C0B162696E
S315080010700B9801219047216A88470028F7D16269B1
S31508001080411E0B98904700E0761CA1690D98884789
S31508001090216A88470028F7D1E1690D988847DBE778
S315080010A0A1690D988847A842074601D1761CD3E75F
S315080010B0E1690D9888477F1C02D1BAF1000F6FD0FD
S315080010C06BE162690B9800273D46394690472A2806
S315080010D004D162690B98012190470125DFF8D08277
S315080010E062690B9801219047A0F130010A290AD2BA
S315080010F04745E5DC07EB870100EB4107303FDFD4C6
S3150800110045F01005ECE7E90601D46FF000476C28B6
S315080011100AD04C2814D0682815D06A280DD074280F
S315080011201CD07A281AD01DE062690B9801219047D5
S315080011306C2802D045F0040514E045F002050DE0E0
S3150800114045F020050AE062690B9801219047682856
S3150800115002D045F0080505E045F4006562690B987C
S3150800116001219047C4E9015765283DD019DC582864
S315080011707AD00CDC452837D004DC252826D041282F
S315080011809ED131E046282FD0472899D12CE05B28FC
S3150800119077D0612828D063287CD0642823D15AE0E8
S315080011A0F6E06F2848D008DC66281DD067281BD0D3
S315080011B0692821D06E2816D127E0702845D07328D3
S315080011C068D0752847D078280DD14DE0A1690D98CB
S315080011D08847252805463FF469AFE1690D98884791
S315080011E06D1C3FF46AAFD8E00D9923466A466FF046
S315080011F00100AFF30080C5E045F0400023464FF0FC
S3150800120000026060A80736D43EE0E8077FF447AFDF
S315080012102068011D21600068290501D506701BE7B5
S31508001220290701D5068017E7A90703D5F117C0E9ED
S31508001230006111E706600FE745F0400023464FF0CE
S3150800124008026060A80716D41EE040F60E0125EADB
S315080012500100606016E045F0400023464FF00A02A0
S315080012606060A80707D40FE045F040006060A80753
S3150800127008D5234610220D996FF00100AFF30080C0
S3150800128080E007E0102223460D996FF00100FFF772
S3150800129081F977E04FF0000963284F46C8464B4668
S315080012A0CB4602D05B2806D038E0E80601D40120F8
S315080012B0A060012732E06269D4F80CB00B980121CE
S315080012C090475E2807D14FF0010949466269D4F86C
S315080012D00CB00B989047216939B900210A4603AB2F
S315080012E043F82120491C0829FADBD8B3216949B3F8
S315080012F008F1010862690B98012190475D28F4D12D
S31508001300B9F1000F09D0002003A951F82020D243D3
S3150800131041F82020401C0828F7DB03AB2069002889
S3150800132020794FEA40701ED05B462246CDF80080F1
S31508001330CDE901970D9900286FF0010020DAAFF387
S3150800134000801FE0C11703AA00EBD1614B1121F001
S315080013501F0102EB8302411A1368012088400343E8
S315080013601360C7E719E00D99224600286FF00100BF
S31508001370009702DAAFF3008004E0AFF3008001E0E3
S31508001380AFF3008000280ADA401C06D10C9820B179
S315080013904FF0FF300FB0BDE8F08F5046FAE7E90787
S315080013A001D10AF1010A064400200C9054E6000017
S315080013B0CCCCCC0C2DE9F05F824615468B4600272F
S315080013C00AF10104B9460078302801D09DB113E02E
S315080013D014F8010B0127782803D0582801D045B105
S315080013E00AE00DB1102D07D1002714F8010B1025BE
S315080013F002E0082500E00A250026B0460EE005FBB7
S31508001400080005FB06F101271FFA80F801EB1046D4
S31508001410B6F5803F00D3B94614F8010B2946FFF705
S31508001420F4FC0028EBDABBF1000F05D00FB1641EFF
S3150800143000E05446CBF80040B9F1000F06D0FFF79C
S315080014403DFA02210160C81EBDE8F09F48EA064041
S31508001450FAE700002DE9F047814616468AB0354876
S3150800146078440DC88DE80D0032487844801C03ACDA
S315080014700DC884E80D0041F69B300844372190FBDF
S31508001480F1F290FBF1F5A5F1800501FB12041B3C76
S3150800149002D56442012000E00020DFF898A08046CB
S315080014A00027FA44AAF1BE0A0EE0E0070AD032463F
S315080014B0684607EB470101230AEB810100F042FB6E
S315080014C08DE8070064107F1C002CEED1194F7F446D
S315080014D0AE3F19E0E80715D007EB04100DF1180A1E
S315080014E090E80E008AE80E00C068F04201D198190B
S315080014F008903246012306A903A800F023FB03AB94
S3150800150083E807006D10641C002DE3D14FF001033A
S3150800151032466946B8F1000F03A802D000F0FDFA7A
S3150800152001E000F00FFBC9E90001C9F808200AB07C
S31508001530BDE8F087084D00007546FFF7E3FCAE46A8
S3150800154005006946534620F00700854618B020B5C1
S31508001550FEF746FEBDE820404FF000064FF00007B4
S315080015604FF000084FF0000B21F00701AC46ACE83D
S31508001570C009ACE8C009ACE8C009ACE8C0098D46AA
S31508001580704710B50446AFF300802046BDE810400A
S31508001590FEF712BE4FF0013C50F8042B51F8043BFD
S315080015A09A4221D1A2EB0C03934313EACC1317D129
S315080015B050F8042B51F8043B9A4215D1A2EB0C03C0
S315080015C0934313EACC130BD150F8042B51F8043B80
S315080015D09A4209D1A2EB0C03934313EACC13DBD04E
S315080015E04FF00000704700BFD01A01BAB1FA81F176
S315080015F001F0180122FA01F0CB40C1F12001DBB25B
S31508001600C0B2C01A2CFA01F3D11A914311EAC311D8
S31508001610E6D1704701491820ABBEFEE72600020056
S3150800162070475FEA400C08BF91F0000F4FEA8C2321
S315080016304FEAC12243EA51514FEA1C5018BF00F540
S31508001640F0404FEA300018BF41F000415FEA6C5C99
S3150800165000F02980BCF1FF3F08BF40F0804070478A
S31508001660130C06BF12044FF0100C4FF0000C130EAB
S3150800167004BF12020CF1080C130F04BF12010CF17F
S31508001680040C930F04BF92000CF1020CD30F04BF95
S3150800169052000CF1010C11464FF00002A0F11F0098
S315080016A0A0EB0C00704711F0004F08BF704731F0EF
S315080016B000413FF4D5AF0B0C06BF09044FF0100CE0
S315080016C04FF0000C0B0E04BF09020CF1080C0B0FAF
S315080016D004BF09010CF1040C8B0F04BF89000CF13F
S315080016E0020CCB0F04BF49000CF1010CCCF120030E
S315080016F0A0EB0C0022FA03F302FA0CF241EA03010A
S3150800170000F10100704720F07F4C80EA030023F0C7
S315080017107F47ACEB070303F57C5300F0004003F169
S31508001720FF032DE980494FEA154B09B44FEA1443E4
S3150800173025EA0B4E24EA03480FF2042606EB132784
S3150800174049083E785FEA320203FB0667C7F50007D9
S3150800175007FB06F64FEA54374FEAD64606F1020665
S3150800176007FB066CCCF1005C4FEA1C472CEA074CD9
S3150800177007FB06F40CFB06F504EB15464FEA96162E
S3150800178034BF00204FF000404FEAD13706FB07FC74
S315080017904FEA1C4C0CFB0BF7D21B03FB0CF761EB57
S315080017A007010CFB0EF7B0EB074072EB17420CFB78
S315080017B008F734BFA2EB0742B2EB074261EB1741C9
S315080017C04FEA0C444FEA910706FB07FC4FEA1C4C0C
S315080017D00CFB0BF7B0EBC74072EB573203FB0CF769
S315080017E034BFA2EBC742B2EBC74261EB57310CFBE1
S315080017F00EF7B0EBC70072EB57720CFB08F734BF55
S31508001800A2EBC702B2EBC70261EB5771039F4FEA1F
S31508001810816141EA921104EBCC044FEAD1374FEAD1
S31508001820826206FB07FC42EA90124FEA80604FEAA2
S315080018301C4C0CFB0BF7D21B03FB0CF761EB0701E7
S315080018400CFB0EF7B0EB074072EB17420CFB08F7E0
S3150800185034BFA2EB0742B2EB074261EB17414FEAEE
S315080018608C554FEA910704EB9C2406FB07FC4FEACC
S315080018701C4C0CFB0BF7B0EBC74072EB573203FB63
S315080018800CF734BFA2EBC742B2EBC74261EB573144
S315080018900CFB0EF7B0EBC70072EB57720CFB08F7A0
S315080018A034BFA2EBC702B2EBC70261EB577115EB67
S315080018B04C254FEA816141EA92114FEA82624FEA6A
S315080018C0D13742EA901206FB07FC44F100044FEABE
S315080018D080604FEA1C4C0CFB0BF7D21B03FB0CF782
S315080018E061EB07010CFB0EF7B0EB074072EB1742F2
S315080018F00CFB08F734BFA2EB0742B2EB074261EBD9
S31508001900174115EB1C154FEA813141EA92414FEA1E
S31508001910823242EA90424FEA80304FEA0C7644F12E
S31508001920000448EA03434EEA0B484FF0000EB2EBB8
S31508001930080C71EB030724BF624639464EEB0E0EC0
S315080019404FF0000B0018524149414BEB0B0BB2EB21
S31508001950080C71EB03077BF1000B24BF624639467E
S315080019604EEB0E0E4FF0000B0018524149414BEB5F
S315080019700B0BB2EB080C71EB03077BF1000B24BFD2
S31508001980624639464EEB0E0E51EA020718BF46F07C
S31508001990010616EB0E7655F1000254F1000103D547
S315080019A0BDE88901BDE80088BDE88901BDE80048B1
S315080019B0B619524141EB0101A3F10103704780803A
S315080019C07F7E7D7C7B7A797877767675747372718B
S315080019D071706F6E6E6D6C6C6B6A6A696868676643
S315080019E066656464636362616160605F5F5E5E5DD5
S315080019F05D5C5C5B5B5A5A59595858575756565549
S31508001A0055555454535352525251515050504F4FAA
S31508001A104F4E4E4D4D4D4C4C4C4B4B4B4A4A4A49FA
S31508001A20494948484847474747464646454545443D
S31508001A304444444343434342424242414141002BCA
S31508001A409C4630D477002BD01CB54FEA370703B431
S31508001A504FF010004FF01001BAF1000F06D0BCF19C
S31508001A60000FDCBF40F0080040F008014FF000000E
S31508001A700FBCBDE810400BF1010BBBF1010F08BF0D
S31508001A805FEA170722BF12F1010211F101014FF0B7
S31508001A90004143F1000300F0004043EA00007047AC
S31508001AA0F9D35708D0E746EA064613F1400F4FEA3E
S31508001AB016461FDD13F1200FDFBF16430A46002125
S31508001AC020335B42BED0C3F1200746EA064602FA37
S31508001AD007F74FEA164646EA0706C3F1200722FA31
S31508001AE003F201FA07F721FA03F14FF0000342EA7D
S31508001AF00702A7E746EA020646EA06464FEA1646F8
S31508001B0046EA0106BCBF46EA0646360C4FF0000315
S31508001B104FF000024FF0000194E72DE9804C9A46F9
S31508001B20934670B491E8380007C831EA400C48BFBC
S31508001B3034EA430C03D5FFF7E6FDFFF780FFF0BC58
S31508001B40BDE8008C2DE9804C9A46934670B491E81E
S31508001B50380007C810F0804F08BF13F0804F03D134
S31508001B6000F005F8FFF76BFFF0BCBDE8008C20F02D
S31508001B707F4780EA030023F07F4C07EB0C03A3F5AD
S31508001B807C5300F00040A3F1FE0392F0000F00F032
S31508001B90B38095F0000F00F077802DE901494FEAF0
S31508001BA011404FEA144621EA004800FB06FC24EAE5
S31508001BB0064708FB06F607FB08F800FB07F718EBCD
S31508001BC006484CEB164C4FEA124B18EB07484FEAFF
S31508001BD015464CEB174022EA0B4E0BFB06FC25EA92
S31508001BE006470EFB06F607FB0EFE0BFB07F71EEB7A
S31508001BF0064E4CEB164C4FF000061EEB074E4CEB10
S31508001C00174B18EB0B0840F1000018EB0E0B58EBBE
S31508001C10000840F100008F1A4FF000013CBFC9438D
S31508001C20661B14BFB5EB040C00213CBFC943F61B69
S31508001C304FEA17444EEA8E0E27EA04454FEA1C4738
S31508001C4004FB07622CEA074C05FB07F70CFB05F6B5
S31508001C5004FB0CFC16EB074642EB174216EB0C4648
S31508001C6042EB1C421BEB060658EB0202414146EAD0
S31508001C709E0601D5BDE80189B619524141EB01011D
S31508001C80A3F10103BDE801894FEA14454FEA11475C
S31508001C9024EA054621EA074C05FB07F406FB07F785
S31508001CA00CFB06F105FB0CFC11EB074144EB174452
S31508001CB04FEA124711EB0C4144EB1C4422EA074C4D
S31508001CC005FB07F206FB07F70CFB06F605FB0CFC03
S31508001CD016EB074642EB174216EB0C4642EB1C4541
S31508001CE06A1854F1000148BF7047B619524141EBD2
S31508001CF00101A3F10103704795F0000F37D04FEAB1
S31508001D0011424FEA144721EA024624EA074C02FB2D
S31508001D1007F106FB07F70CFB06F402FB0CFC14EBB9
S31508001D20074441EB17414FEA154714EB0C4441EBC6
S31508001D301C4125EA074C02FB07F506FB07F70CFBD7
S31508001D4006F602FB0CFC16EB074645EB174516EBA9
S31508001D500C4645EB1C42121951F1000148BF704769
S31508001D60B619524141EB0101A3F1010370474FEA4D
S31508001D7014454FEA114724EA054621EA074C05FBB4
S31508001D8007F106FB07F70CFB06F24FF0000605FB0A
S31508001D900CFC12EB074241EB174112EB0C4251EBDC
S31508001DA01C4148BF7047921841EB0101A3F101039A
S31508001DB07047FEE72DE9F04F754F744C87B03878B9
S31508001DC0032204EBC01073A1FEF7B6FC0125002818
S31508001DD0DFF8C491DFF8C481DFF8C4B138784FF46E
S31508001DE0804A04EBC01030D003226EA1FEF7A4FC93
S31508001DF06D4E00283ED03878B84604EBC01007224E
S31508001E006AA1FEF799FC6B4F00284ED098F800009F
S31508001E10464604EBC010072267A1FEF78DFC002892
S31508001E204DD03078052204EBC01065A1FEF784FC7E
S31508001E30002852D03078092204EBC01062A1FEF7C0
S31508001E407BFC644D002861D062E0C01CFEF748FCAC
S31508001E5003F086FFC9F800004C4688F80050514642
S31508001E60584600F061FD206803F00AFE0B4602465C
S31508001E7059A114E0387804EBC010C01CFEF730FCFA
S31508001E8003F06EFF306088F800505146584600F05F
S31508001E904BFD306803F0F4FD0B46024654A107B02B
S31508001EA05A48BDE8F04FFEF7ADB959483060594871
S31508001EB00570594801F09CFC3D7058A109E05D4841
S31508001EC00021C9F800100570534801F091FC3D70D7
S31508001ED059A14E48FEF796F94FE0387808B15DA14A
S31508001EE0F7E730786A4604EBC01066A1401DFEF796
S31508001EF033FB9DF80010654803F04EFB03469DF83A
S31508001F00002063A14148FEF77DF936E0287858B1EC
S31508001F103078092204EBC01062A1FEF70DFC0028F8
S31508001F2032D1287800282FD0387808B160A1D0E7B8
S31508001F30287808B13B2100E02021544803F02CFB07
S31508001F4003AE00F00104C0F34003C0F38002C0F3FF
S31508001F50C00186E81E00C0F30013C0F34012C0F3A8
S31508001F6080118DE80E00C309287808B15DA200E04B
S31508001F705DA25FA12548FEF745F907B051465846C8
S31508001F80BDE8F04F00F0D0BC64A1A2E7180100201C
S31508001F901200002044523A001C0000200A000020CB
S31508001FA00010014046523A001800002046522053BD
S31508001FB063616E000C0000204452205363616E007A
S31508001FC0526561643A00000052504C2043686563CC
S31508001FD06B0000000000002050574D5F44522073EC
S31508001FE0657420746F20252E326625250D0A00009B
S31508001FF050574D5F465245512073657420746F20C3
S31508002000252E3266487A0D0A0000000018020020C4
S315080020100000164384000020BC2700204672657124
S3150800202075656E6379207363616E2073746172746B
S315080020302E0D0A00850000204475747920526174BB
S31508002040696F207363616E2073746172742E0D0A52
S315080020500000000043616E6E6F7420726561642033
S315080020607265676973746572207768696C65207232
S31508002070656164696E67204C485220446174612E1C
S315080020800D0A000025686878000000007800002026
S315080020905B3078253032585D203D20307825303247
S315080020A0580D0A004C485220436865636B000000CF
S315080020B043616E6E6F7420636865636B204C44439E
S315080020C020737461747573207768696C652072650E
S315080020D06164696E67204C485220446174612E0D14
S315080020E00A0000004C48520052502B4C00000000D9
S315080020F02573204D6561737572656D656E74205321
S3150800210074617475733A20256425642564256425ED
S31508002110642564256425640D0A000000556E6B6EFF
S315080021206F776E20636F6D6D616E640D0A00000037
S31508002130014800F0C3B90000C0280020014800F09B
S31508002140BDB900007C28002030B590F84050012425
S31508002150AC40C56B6C60046863604368102B036809
S3150800216003D099600068C26030BD9A600068C1609B
S3150800217030BDD1E90103026800207BB1042B0FD0E2
S31508002180082B0FD01064CA6872B1042A10D0082A26
S315080021904A68126810D01064087070475063F2E7F6
S315080021A09063F0E7D063EEE74A6812685063F3E796
S315080021B04A6812689063EFE7D063EDE710B50C46FE
S315080021C0486800F02BF8A168400899B1042915D091
S315080021D008296168096815D00864E168002099B182
S315080021E0042915D008296168096815D008640120F2
S315080021F0207010BD616809684863EEE76168096880
S315080022008863EAE7C863E8E7616809684863EEE750
S31508002210616809688863EAE7C863E8E7002801D0C7
S315080022200068C06A704710B5044600F042F80120FD
S3150800223000F054FA21460846FFF79BFF002020705D
S315080022402074204600F0B8F8BDE81040012000F0E0
S3150800225045BA10B50C464868FFF7E0FF4008A26883
S31508002260002192B1042A14D0082A6268126814D090
S315080022701164E16899B1042915D0082961680968CB
S3150800228015D008640220207010BD62681268516378
S31508002290EFE7626812689163EBE7D163E9E7616883
S315080022A009684863EEE7616809688863EAE7C8630E
S315080022B0E8E770B504460025D4E90101006839B39A
S315080022C0042927D0082927D00564E06830B30428F4
S315080022D028D008286068006828D00564A06938B343
S315080022E0042829D008286069006829D00564E069AF
S315080022F040B304282AD00828606900682AD00564F3
S31508002300A18C0022206A00F016FB2570257470BD8A
S315080023104563DAE78563D8E7C563D6E7606800688A
S315080023204563DBE7606800688563D7E7C563D5E77B
S31508002330606900684563DAE7606900688563D6E71F
S31508002340C563D4E7606900684563D9E760690068D2
S315080023508563D5E7C563D3E770B5044609480D46D6
S315080023600122818C006A00F0E6FAD4E9010101F045
S315080023702FFCE168606801F02BFC2846BDE8704038
S3150800238001F036BA5000002070B5044609480D46DB
S315080023900022818C006A00F0CEFAD4E9010101F02E
S315080023A033FCE168606801F02FFC2846BDE8704000
S315080023B001F02FBA5000002010B50446818C006A3F
S315080023C0012200F0B8FA00202070207410BD704772
S315080023D04FF4006000F0ACB972B6FEE710B590F89D
S315080023E021100022022905D00421816380F82020CB
S315080023F0012010BD01680B6823F00E030B6001680D
S315080024000B6823F001030B6090F84030C46B012180
S3150800241001FA03F3636080F8211080F82020104643
S3150800242010BD000010B590F821100024022903D031
S315080024300421816301243DE001680A6822F00E0246
S315080024400A6001680A6822F001020A601A4A0168ED
S31508002450914201D1012121E0174A1432914201D15A
S3150800246010211BE0144A2832914201D1891515E042
S31508002470114A3C32914201D189140FE00E4A50327A
S31508002480914202D14FF4803108E00B4A64329142FE
S3150800249002D14FF4801101E04FF08071064A083AE4
S315080024A05160012180F82110002180F82010416B2D
S315080024B001B18847204610BD080002402DE9F05FAB
S315080024C0C16B0C6801680B68D0F840C0042202FA98
S315080024D00CF2494DDFF824A1494E4A4FDFF828B1DE
S315080024E0DFF828E122422CD05A072AD50A68920634
S315080024F003D40A6822F004020A600168A94201D1DD
S31508002500042219E0514501D1402215E0B14202D119
S315080025104FF4806210E0B94202D14FF480420BE0DA
S31508002520594502D14FF4802206E0714502D14FF495
S31508002530800201E04FF080622F4908394A60C16A7B
S315080025403BE04FF0020808FA0CF818EA040F4FF0BF
S3150800255000094FF0010235D05FEA837832D50B685F
S315080025609B0605D40B6823F00A030B6080F821202C
S315080025700168A94201D1022219E0514501D1202260
S3150800258015E0B14202D14FF4007210E0B94202D10F
S315080025904FF400520BE0594502D14FF4003206E0E1
S315080025A0714502D14FF4001201E04FF00072124952
S315080025B008394A6080F82090816A00291AD0BDE857
S315080025C0F05F0847082505FA0CF5254212D01B07C7
S315080025D010D50B6823F00E030B6090F84010C36B00
S315080025E002FA01F15960826380F8212080F8209070
S315080025F0016BE2E7BDE8F09F080002401C000240BC
S315080026003000024044000240580002406C0002407C
S3150800261030B528B308C8134914221944B1FBF2F19E
S315080026208900C16310498163022141771A6843F61C
S31508002630F0718A43D0E900142143D0E902452C43BE
S315080026402143046921434469214384692143114391
S31508002650196000214163012242770177084630BD9F
S31508002660012030BDF8FFFDBF0000024070B50446EA
S3150800267090F82000002501280CD0012084F82000BD
S3150800268094F821600020012E06D084F82000022547
S31508002690284670BD022070BD022684F82160A0631A
S315080026A02068066826F0010606602046FFF74CFDFE
S315080026B0E06A00282068016802D041F00E0106E0B1
S315080026C021F0040101602068016841F00A010160F7
S315080026D02068016841F001010160D9E770B5044638
S315080026E000F02EF90546601C02D004480078044420
S315080026F000F026F9401BA042FAD370BDB8000020AE
S3150800270010B5B0F5006F0FD100F01AF907490A782D
S315080027101AB14A68821A642A06D301220A704860E6
S31508002720BDE8104001F05EBF10BD0000A400002007
S31508002730044910B50A68024202D00860FFF7E0FFB4
S3150800274010BD0000140401402DE9F84FDFF8B891D8
S31508002750002409F1040A0AF1040B23460F270BF19A
S31508002760040EC9E00125A5402A40AA427DD1674E3C
S31508002770D1F804C0ACEB0608B44532D014DCBCF181
S31508002780030F3AD009DCBCF1000F2AD0BCF1010FC7
S315080027901CD0BCF1020F31D11DE0BCF1110F17D0CE
S315080027A0BCF1120F2AD119E0B8F5881F19D006DC3A
S315080027B0B8F5803F15D0B8F5801F1FD111E0B8F5E0
S315080027C0001F0ED0B8F5041F18D10AE0CB6815E033
S315080027D0CB681B1D12E0CB6808330FE0CB680C33BF
S315080027E00CE08B682BB1012B4FF0080303D0456131
S315080027F004E0042302E0056100E00023FF2A01D873
S31508002800064601E000F104064FEA840501D9A5F160
S315080028102005D6F8008007FA05FC28EA0C0803FA12
S3150800282005F548EA0508C6F800804D68ED0062D54A
S31508002830374DAE6946F00106AE61AD6924F0030670
S3150800284005F001050095334D06EB050CDCF808503C
S31508002850A607360F07FA06F825EA0805DFF8B8804E
S31508002860404503D14FF0000817E044E0DFF8AC809C
S31508002870404502D14FF001080FE0DFF8A48040453B
S3150800288002D14FF0020808E0DFF89880404502D1EF
S315080028904FF0030801E04FF0040808FA06F848EA82
S315080028A00508CCF808804D68D9F80060ED034D4658
S315080028B001D5164300E096432E604D68DAF80060AD
S315080028C0AD03554601D5164300E096432E604D6884
S315080028D0DBF80060ED025D4601D5164300E096433D
S315080028E02E604D68DEF80060AD02754601D51643C8
S315080028F000E096432E60641C0D682A46E5407FF486
S3150800290031AFBDE8F88F0000000401400000111047
S31508002910001002400000014000080140000C014080
S315080029200010014000140140C2680A4201D041610A
S315080029307047016170470AB1016170470904FBE7F6
S315080029400148806870470000B800002070B5040090
S315080029501BD094F83D00002520B984F83C50204649
S3150800296000F046F9242084F83D002068016821F02B
S315080029700101016000F09CFA4D4A6168914201D854
S315080029804C4900E04C49884201D2012070BD4B49B0
S315080029902368B0FBF1F15E6826F03F060E435E60E1
S315080029A06368934206D94FF4967359434FF47A7382
S315080029B0B1FBF3F12368491C1E6A26F03F06314332
S315080029C019626168914210D84900401EB0FBF1F2C5
S315080029D0521CC2F30B02042A01D2042022E0B0FBE7
S315080029E0F1F0401CC0F30B001CE0A368F3B301EB45
S315080029F0C10202EB0116421EB2FBF6F2521C42F469
S31508002A008042120549D093B301EBC10202EB0111D2
S31508002A10401EB0FBF1F0401CC0F30B0040F48040B0
S31508002A2040F400402168CA694CF6FF739A43104384
S31508002A30C861D4E90701084321680A6822F0C00280
S31508002A4010430860D4E9030101432068826848F20C
S31508002A50FF339A4311438160D4E90501084321688D
S31508002A60CA6822F0FF021043C86001E00EE016E0D3
S31508002A702068016841F0010101602564202084F87E
S31508002A803D00256384F83E50002070BD01EB4106E9
S31508002A90421EB2FBF6F2521CB3E70120C2E701EB75
S31508002AA04101401EB0FBF1F0401CC0F30B00B7E734
S31508002AB0A086010080841E0000093D0040420F00E8
S31508002AC02DE9FF4F83B09A46DDE9119793460446F0
S31508002AD0DDF84080FFF734FF054694F83D002028CE
S31508002AE07FD11923012240492046009501F0D4FCE4
S31508002AF0002876D194F83C00012872D0012084F889
S31508002B003C0020680168C90703D1016841F001014A
S31508002B1001602068016821F400610160212084F8C1
S31508002B203D00402084F83E0000262664C4F8248030
S31508002B30A4F82A90608D20852C48E062CDE90075BE
S31508002B4053465A462046049901F036FC70B930E0DF
S31508002B502A463946204601F01EFD58B1206C042845
S31508002B6004D12068016841F400710160012007B0B2
S31508002B70BDE8F08F606A216800780861606A401CC9
S31508002B806062218D491E89B22185628D521E628539
S31508002B9022685369DB435B070BD469B1007810617F
S31508002BA0606A401C6062208D401E2085608D401E34
S31508002BB06085208D0028CBD12A463946204601F06B
S31508002BC045FC0028CAD154F83D0B016841F4007150
S31508002BD00160202004F81E09E67766770020C6E71C
S31508002BE0FFE70220C3E70000020010000000FFFF15
S31508002BF010B586B0002100910191029103910068F9
S31508002C000F4988421AD10F4CA06940F00800A0610C
S31508002C10A069694600F008000490C02000901220C0
S31508002C200190032003900848FFF78EFDE06940F401
S31508002C300010E061E06900F40010049006B010BDD1
S31508002C400054004000100240000C01400248816810
S31508002C500278114481607047B8000020074810B513
S31508002C60016841F010010160032000F079F80020A6
S31508002C7000F006F800F024F8002010BD00200240FD
S31508002C8070B50D4D04464FF47A712878B1FBF0F013
S31508002C900A490968B1FBF0F000F007FD48B9102CA5
S31508002CA007D200222146501E00F03AF800206C6038
S31508002CB070BD012070BD0000B8000020B4000020DF
S31508002CC00E4808B5816941F001018161816901F009
S31508002CD001010091C16941F08051C161C06900F0EC
S31508002CE080500090042000F03BF80548416821F028
S31508002CF0E06141F00071416008BD0000001002402B
S31508002D0000000140002809DB00F01F020121914064
S31508002D104009800000F1E020C0F80011704700006B
S31508002D20F0B40E4B1B680C46C3F30223C3F1070528
S31508002D30042D00D90425191D072901D2002300E016
S31508002D40DB1E012606FA05F1491E214099409E40E0
S31508002D50761E16403143F0BC02F0A8BB0CED00E02D
S31508002D60064900F0070208684FF6FF03184040EAD4
S31508002D700220034A10430860704700000CED00E08B
S31508002D800000FA052DE9F0470F46050061D0434ECD
S31508002D90306800F00700B84209D2306820F0070012
S31508002DA038433060306800F00700B84251D12868CF
S31508002DB03B4C810712D5400703D5606840F4E060B4
S31508002DC060602878000703D5606840F4605060604A
S31508002DD06068A96820F0F000084360602878C0079A
S31508002DE028D06868012810D02168022810D08907E1
S31508002DF000292EDA616821F0030101436160FFF7BB
S31508002E009FFD804641F288390DE021688903EFE786
S31508002E108901EDE7FFF794FDA0EB0801494502D9C2
S31508002E200320BDE8F0876068696800F00C00B0EB25
S31508002E30810FEFD1306800F00700B8420BD930682F
S31508002E4020F0070038433060306800F00700B842C9
S31508002E5001D00120E5E72878400705D56068E968CC
S31508002E6020F4E060084360602878000706D56068AB
S31508002E70296920F4605040EAC100606000F038F823
S31508002E806168084AC1F30311515CC84006490860E5
S31508002E9006480068FFF7F4FE0020C2E7002002405B
S31508002EA0001002409E600008B4000020BC0000200C
S31508002EB00448054900684968044AC1F30221515C7F
S31508002EC0C8407047B400002000100240AE600008F9
S31508002ED00448054900684968044AC1F3C221515C9F
S31508002EE0C8407047B400002000100240AE600008D9
S31508002EF012A185B00FC98DE80F0014A0144A006806
S31508002F0004905168134801F00C03042B10D0082BC9
S31508002F100ED1C1F38343C9031DF803000AD55168CE
S31508002F2004AAC1F34041515C0A4A5043B0FBF1F090
S31508002F3005B0704708494843FAE70000020304054C
S31508002F40060708090A0B0C0D0E0F101001020000E7
S31508002F500010024000127A0000093D002DE9F84FE2
S31508002F60040070D02078C04DC00749D06868C0F307
S31508002F708100012807D06868C0F38100022809D1BA
S31508002F806868C00306D52868800339D560680028B4
S31508002F90E7D035E06068B0F5803F0BD010B1B0F5EA
S31508002FA0A02F11D0286820F480302860286820F4E3
S31508002FB0802002E0286840F480302860606890B17C
S31508002FC0FFF7BEFC06460AE0286840F48020286021
S31508002FD0F0E700BFFFF7B4FC801B642873D82868A5
S31508002FE08003F7D50CE0FFF7ABFC064605E000BF0B
S31508002FF0FFF7A6FC801B6428F0D828688003F7D45E
S3150800300020789A4E80074FF001094FF0000839D50D
S31508003010686810F00C0F07D06868C0F381000228B2
S3150800302009D16868C00306D42868800714D52069C2
S31508003030012808D110E02069B0B1C6F80090FFF762
S315080030407FFC074605E00AE1FFF77AFCC01B022869
S31508003050C4D828688007F7D52868616920F0F80081
S3150800306040EAC10028600DE0C6F80080FFF768FC5A
S31508003070074604E0FFF764FCC01B022823D828682B
S315080030808007F7D4207800072CD57948A169D9B1EB
S31508003090C0F80090FFF754FC074604E0FFF750FC21
S315080030A0C01B02280FD8686A8007F7D571484FF405
S315080030B0FA510068B0FBF1F0009000BF0098411E7D
S315080030C00091FAD20EE080E0C0F80080FFF738FCE5
S315080030D0074604E0FFF734FCC01B022875D8686A67
S315080030E08007F7D42078400760D5E8690027C00034
S315080030F008D4E86940F08050E861E869012700F0E3
S31508003100805000905C480168C90513D4016883465D
S3150800311041F480710160FFF713FC824606E000BFA8
S31508003120FFF70EFCA0EB0A0064284ED8DBF8000077
S31508003130C005F5D5E06801280AD008B1052813D0DE
S31508003140286A20F001002862286A20F0040002E0BC
S31508003150286A40F001002862E06841F2883B98B18D
S31508003160FFF7EEFB82460BE0286A40F0040028626F
S31508003170EEE700BFFFF7E4FBA0EB0A0159455AD872
S31508003180286A8007F6D50CE0FFF7DAFB824605E0E9
S31508003190FFF7D6FBA0EB0A0159454CD8286A8007E9
S315080031A0F6D41FB1E86920F08050E861E06988B379
S315080031B06968C1F38101022944D00228C6F86080F3
S315080031C004D0FFF7BDFB044638E034E0FFF7B8FB50
S315080031D0074604E0FFF7B4FBC01B02282BD8286873
S315080031E08001F7D4206AB0F5803F05D16868A168E8
S315080031F020F4003008436860D4E908010843696888
S3150800320021F4741108436860C6F86090FFF798FBCC
S31508003210044606E025E000BFFFF792FB001B0228E4
S3150800322009D828688001F7D51BE000BFFFF788FB9F
S31508003230001B022802D90320BDE8F88F2868800100
S31508003240F4D40EE00128F7D06868226A00F48031C9
S31508003250914204D1616A00F47010884201D00120BD
S31508003260EAE70020E8E700000010024000004242BA
S3150800327080044242B40000200070004070B504008B
S3150800328005D00025A56294F8510010B106E001208A
S3150800329070BD84F85050204600F02EF8022084F8BD
S315080032A051002068016821F040010160D4E901015C
S315080032B00843D4E903121143084361690843218B83
S315080032C001F400710843E1690843216A0843A16AC9
S315080032D0084321680860A069042101EA10402168B2
S315080032E048602068C16921F40061C16165650120F3
S315080032F084F85100002070BD30B585B000240094D4
S3150800330001940294039400681549884225D115480A
S31508003310C16941F48041C161C16901F480410491E8
S31508003320816941F00801816180690F4D00F008004C
S3150800333004904FF42040009002200190032003904F
S3150800334069462846FFF700FA4FF48040CDE90004A5
S31508003350694628460294FFF7F7F905B030BD000024
S315080033600038004000100240000C01402DE9F84FDB
S31508003370044690F8500000271D461646894601283F
S315080033800DD04FF0010B84F850B0FFF7D9FA8046FC
S3150800339094F85100BA46012804D002278EE002208C
S315080033A0BDE8F88FB9F1000F7DD0002E7BD0032041
S315080033B084F85100C4F854A0C4F83090A686E6866E
S315080033C0C4F838A0A4F83CA0A4F83EA0C4F844A0C9
S315080033D0C4F840A0A068B0F5004F04D12068016881
S315080033E041F48041016020680168490603D40168F8
S315080033F041F040010160E068B0F5006F606803D0F5
S3150800340030B3012E24D040E008B1012E1CD1206B28
S3150800341021680088C86006E020688168890709D5A0
S31508003420216B0988C160206B801C2063E08E401EDA
S31508003430E08609E0FFF784FAA0EB0800A84202D369
S31508003440681C01D031E07DB3E08E0028E4D11FE08E
S31508003450206B21680078087306E020688168890770
S3150800346009D5216B09780173206B401C2063E08E17
S31508003470401EE08609E0FFF763FAA0EB0800A842C1
S3150800348002D3681C01D010E075B1E08E0028E4D1A3
S3150800349042462946204601F07EFB08B12020606599
S315080034A0A06820B107E008E0FFE7032706E02068E8
S315080034B0C16880680090606D00B1012784F851B03A
S315080034C084F850A038466BE72DE9F84F044690F883
S315080034D0500000270A9E1D4692468B464FF001096A
S315080034E001280ED0012084F85000FFF729FA8046FB
S315080034F094F85100616801280CD0B1F5827F07D194
S3150800350002E00220BDE8F88FA16809B9042801D0B5
S315080035100227C2E0BBF1000F27D0BAF1000F24D072
S315080035201DB394F85100042802D0052084F85100F0
S3150800353000206065C4F838A0E587A587C4F830B0D0
S31508003540E586A5862064606420680168490603D478
S31508003550016841F040010160E068B0F5006F6068FD
S3150800356005D0E8B3012D46D07FE0012795E008B1E4
S31508003570012D39D1206B21680088C860206B801C1A
S315080035802063E08E401EE0862EE020688168890769
S315080035900FD5E18E69B1B9F1010F0AD1216B0988FE
S315080035A0C160206B801C2063E08E401EE0864FF0D1
S315080035B0000920688168C9070CD0E18F51B1C0683D
S315080035C0A16B0880A06B801CA063E08F401EE0877B
S315080035D04FF00109FFF7B4F9A0EB0800B04200E08C
S315080035E009E001D3701C50D1E08E0028CDD1E08FC0
S315080035F00028CAD13FE0206B216800780873206B49
S31508003600401C2063E08E401EE0862EE0206881681C
S3150800361089070FD5E18E69B1B9F1010F0AD1216B7E
S3150800362009780173206B401C2063E08E401EE086FB
S315080036304FF0000920688168C9070CD0E18F51B1A5
S31508003640C068A16B0870A06B401CA063E08F401E89
S31508003650E0874FF00109FFF773F9A0EB0800B042C5
S3150800366002D3701C01D010E07EB1E08E0028CDD1C7
S31508003670E08F0028CAD142463146204601F08BFA2F
S3150800368028B101272020606507E0032705E0A06828
S3150800369018B92068C16880680090012084F8510034
S315080036A0002084F8500038462CE710B5401EB0F1CB
S315080036B0807F01D3012010BD4FF0E02460610F2107
S315080036C0601701F0F3FE0020A061072020610020AA
S315080036D010BD7047704770B590F83C20012A19D084
S315080036E0012400F83C4F0222427050F83C3C5A68CC
S315080036F09D6822F070060A684968324325F08005FD
S3150800370029435A6050F83C2C91604470002101709E
S31508003710084670BD022070BD10B5040003D094F8A9
S315080037203D0010B107E0012010BD002084F83C00E0
S31508003730204600F00DF8022084F83D00211D20687F
S3150800374001F0ECFA012084F83D00002010BD0000CD
S3150800375008B5234A0168234891420ED1816941F48C
S31508003760006181618069012200F4006000900221F5
S315080037701920FFF7D5FA19202EE0B1F1804F11D0A4
S31508003780194A914217D1C16941F00201C161C06964
S31508003790002200F00200009002211D20FFF7C0FA67
S315080037A01D2019E0C16941F00101C161C06900F03D
S315080037B00100009008BD0D4A9142FBD1C16941F054
S315080037C00401C161C069012200F0040000900221D1
S315080037D01E20FFF7A5FA1E20BDE80840FFF792BA9B
S315080037E0002C014000100240000400400008004080
S315080037F00168CA6842F00102CA600068816801F07F
S315080038000701062903D0016841F001010160002083
S3150800381070470168CA6822F00102CA600068016A36
S3150800382041F21112114207D1016A9210114203D1D5
S31508003830016821F0010101600020704770B5044657
S3150800384090F83C00012817D0012584F83C50022046
S3150800385084F83D002068826822F0770222F47F42CD
S3150800386082600868502830D00DDC20284DD005DC51
S3150800387098B310283BD148E0022070BD302844D0C8
S31508003880402834D139E0602828D0702806D0B0F511
S31508003890805F2CD0B0F5005F29D10AE0CB68D1E96A
S315080038A00121206801F07DFA2068816841F07701DE
S315080038B009E0CB68D1E90121206801F072FA206895
S315080038C0816841F48041816011E0CA6849682068CE
S315080038D001F01CFB5021206807E016E0CA68496819
S315080038E0206801F024FB6021206801F064FA84F85E
S315080038F03D50002084F83C0070BDCA6849682068BD
S3150800390001F004FB40212068EFE7226801461046D3
S31508003910EBE7704770B50446006801694FF000058B
S31508003920C943890715D4C168C943890711D4E91E53
S31508003930016101202077206880698007204602D02F
S31508003940FFF7E7FF04E000F0BDF8204600F03FF976
S31508003950257720680169C943490717D4C168C9434F
S31508003960490713D46FF0040101610220207720680B
S31508003970806910F4407F204602D0FFF7CAFF04E0B2
S3150800398000F0A0F8204600F022F9257720680169A2
S31508003990C943090716D4C168C943090712D46FF089
S315080039A008010161042020772068C0698007204645
S315080039B002D0FFF7AEFF04E000F084F8204600F0DE
S315080039C006F9257720680169C943C90617D4C1686D
S315080039D0C943C90613D46FF0100101610820207786
S315080039E02068C06910F4407F204602D0FFF791FF97
S315080039F004E000F067F8204600F0E9F8257720682B
S31508003A000169C943C90708D1C168C943C90704D1AF
S31508003A10891E0161204600F021F920680169C94321
S31508003A20090609D4C168C943090605D46FF080019F
S31508003A3001612046FFF74DFE20680169C943490622
S31508003A4009D4C168C943490605D46FF0400101612C
S31508003A50204600F0CFF920680169C94389060BD4CE
S31508003A60C168C943890607D46FF020010161204661
S31508003A70BDE87040FFF72EBE70BD000000B585B0EA
S31508003A80002100910191029103910068B0F1804FE5
S31508003A9011D10A48816941F004018161806969464A
S31508003AA000F0040004900320009002200190039087
S31508003AB00348FEF749FE05B000BD000000100240AD
S31508003AC000080140704770B5044690F83C000D4662
S31508003AD001280DD0012684F83C60022084F83D00B8
S31508003AE042B1042A18D0082A2AD00C2A4DD139E026
S31508003AF0022070BD206801F067F92068816941F0ED
S31508003B00080181612068816921F0040181612068CA
S31508003B1081692A69114311E0206801F07DF920685E
S31508003B20816941F4006181612068816921F48061BD
S31508003B308161206881692A6941EA0221816124E05C
S31508003B40206801F095F92068C16941F00801C16152
S31508003B502068C16921F00401C1612068C1692A6928
S31508003B60114311E0206801F0AFF92068C16941F4FA
S31508003B700061C1612068C16921F48061C161206862
S31508003B80C1692A6941EA0221C16184F83D600020C1
S31508003B9084F83C0070BD10B5040003D094F83D00CD
S31508003BA010B107E0012010BD002084F83C00204633
S31508003BB000F00CF8022084F83D00211D206801F071
S31508003BC0ADF8012084F83D00002010BD704770470D
S31508003BD010B504460068012201F0D6F809492068A4
S31508003BE0884203D1416C41F40041416420688168F0
S31508003BF001F00701062903D0016841F001010160BF
S31508003C00002010BD002C014010B5044600680022B3
S31508003C1001F0BAF8104B41F2111120688A10984247
S31508003C2009D1036A0B4206D1036A134203D1436CD6
S31508003C3023F4004343642068036A0B4206D1016AF1
S31508003C40114203D1016821F001010160012084F8C5
S31508003C503D00002010BD0000002C01402DE9F05F5A
S31508003C60064600684C4901274C4C0025884235D148
S31508003C704B49A068DFF82C810968884206D24A4970
S31508003C800846FEF79BFA88F8007017E0474A12685C
S31508003C9090420DD31144814206D943490846FEF79E
S31508003CA0D8FA88F8005009E041490968884204D2E0
S31508003CB03D490846FEF75DFA00E0A560A0683D4963
S31508003CC0401CA060E068884205D34FF400513A488A
S31508003CD0FEF72AFEE560E068401CE0603749306878
S31508003CE0884256D16078DFF8D880401CC0B2607030
S31508003CF098F80010DFF8CC90DFF8CCA04FF4805B82
S31508003D0001B332281ED9314E65704FF07C513068A8
S31508003D1001F0E2FE2E49306089F80070884211DD14
S31508003D2088F800508AF800502A4830602A48FFF779
S31508003D3070FD012259462948FEF7FDFD28491A4813
S31508003D40FEF722FB274E3078002822D060781E28FE
S31508003D501FD96570244C4FF07E51206801F0BCFED7
S31508003D602249206089F80070884212DD35708AF889
S31508003D7000501F4820601848FFF74BFD012259469E
S31508003D801648FEF7D8FDBDE8F05F15490648FEF768
S31508003D90FBBABDE8F09F0000002C0140A4000020FB
S31508003DA028000020090000205000002024000020E0
S31508003DB020000020A08601000010014000080040F5
S31508003DC0840000200A0000200C00002018000020B3
S31508003DD000007A4300004843BC270020000C01403D
S31508003DE0FC260020850000201C0000200000C84298
S31508003DF000004842704710B504460068416994F8C7
S31508003E003920C1F3C011212A0BD151B1416921F0E2
S31508003E1080014161206B08B1FEF7E0FA204601F007
S31508003E20E7F92068416994F83A20C1F38011222AFB
S31508003E300BD151B1416921F040014161606B08B174
S31508003E40FEF7CCFA204601F0C5F9002010BD7047F0
S31508003E5070B5026804461068D168536910F00F0FF0
S31508003E6050D003F0010501F4907635435DD0C207C2
S31508003E7005D0CA0503D5E26B42F00102E2634207A8
S31508003E8005D5DA0703D0E26B42F00202E263820745
S31508003E9005D5DA0703D0E26B42F00402E2630207B3
S31508003EA005D5DA0703D0E26B42F00802E263E26B5B
S31508003EB0002A33D0800604D5880602D5204601F0AC
S31508003EC0A0F920684069E16BC0F38010090700D4A7
S31508003ED028B3204601F07EF92068416949061AD5BB
S31508003EE0416921F040014161606BA0B11B49416302
S31508003EF0606BFEF797FA002810D0606B416BBDE83F
S31508003F0070400847830610D58B060ED52046BDE8B7
S31508003F10704001F076B92046FFF799FF70BD20463C
S31508003F20FFF795FF0020E06370BD030606D50B0674
S31508003F3004D52046BDE8704001F00ABA4006F3D51C
S31508003F404806F1D5D168204621F04001D1602021EC
S31508003F5084F8391000F0F2F970BD0000FD50000831
S31508003F6070B50068104988421CD11048FFF743FF16
S31508003F70FDF720FF0E49104C012008700D4D2078E2
S31508003F80802105EBC010FCF722FC207880F00100A8
S31508003F9020702078802205EBC011BDE870400348E8
S31508003FA000F0E0B870BD000000380140FC27002092
S31508003FB013000020180100201200002070B504002C
S31508003FC004D094F83900002510B106E0012070BD30
S31508003FD084F83850204600F023F8242084F8390065
S31508003FE02068C16821F40051C160204601F054F9E7
S31508003FF02068016921F4904101612068416921F036
S315080040002A0141612068C16841F40051C160E56335
S31508004010202084F8390084F83A00002070BD00009A
S315080040202DE9F04186B0002400940194029403948B
S31508004030064603684548DFF810C102210322051524
S31508004040802763453AD1836943F480438361836952
S3150800405003F480430493836943F00403836180690E
S31508004060DFF8EC8000F0040004900802CDE90001B6
S31508004070039269464046FEF767FBCDE90054694658
S3150800408040460294FEF760FB334D3248C5E900040A
S31508004090C5E9024720202C61C5E905402846EC61A0
S315080040A0FEF7B6FA08B1FEF797F975630122032100
S315080040B025206E62FEF734FE252040E0DFF89CC01E
S315080040C063453ED1C36943F48023C361C36903F4DE
S315080040D080230493836943F0080383618069CDE9EB
S315080040E0005100F00800CDE903201D4D6946284619
S315080040F0FEF72AFBE814CDE900046946284602942F
S31508004100FEF722FB144D134844353C3801C51020F0
S3150800411091C54FF4405045F810496C61C5E9064011
S315080041200D484430FEF774FA08B1FEF755F93563C1
S315080041300022032127206E62FEF7F2FD2720FEF7F4
S31508004140E1FD06B0BDE8F0810038014000100240EC
S3150800415000080140580002407C2800200048004022
S31508004160000C0140F8B5044690F83A0020283CD1E6
S31508004170C1B3BAB394F83800012836D0012084F8C0
S315080041803800A162A2850025E563222084F83A005A
S31508004190636B17489862636B1648D862636B164858
S315080041A01863606B134645630846666B21680246CA
S315080041B03046091DFEF75AFA2068016841680091E1
S315080041C084F83850C16841F48071C160206841693B
S315080041D041F0010141612068416941F040014161B6
S315080041E00020F8BDFFE70120FBE70220F9E7000001
S315080041F057510008935100080D5100087047704741
S315080042002DE9F843044690F839001F4616460D4630
S31508004210202850D1A5B19EB194F8380001284AD07B
S31508004220012084F838004FF00008C4F83C802120AB
S3150800423084F83900FEF784FBA6848146E68426E0E6
S315080042400120BDE8F883E08C401EE084A0684B4658
S31508004250B0F5805F4FF000024FF0800120460097CE
S3150800426003D001F0A6F8E8B90DE001F0A2F8C8B944
S3150800427028882168C0F308004860206908B16D1CC9
S3150800428005E0AD1C03E0216815F8010B4860E08CD9
S315080042900028D8D14B46002240212046009701F03D
S315080042A088F808B10320CCE7202084F8390084F880
S315080042B038800020C5E70220C3E7000070B5044631
S315080042C090F83900202830D169B362B394F83800E1
S315080042D001282AD0012084F838002162A284E284C9
S315080042E00025E563212084F83900236B104898627D
S315080042F0236B1048D862236B0F481863206B13464C
S3150800430045632668206B321DFEF7B0F921686FF009
S315080043104000086084F838502068416941F08001FF
S315080043204161002070BD012070BD022070BD0000F3
S315080043309D510008CB5100080D5100080D4A01682F
S31508004340914216D1EFF3108172B6828C0A4803683F
S315080043501A4402600368094A934203D30268A2F525
S3150800436010520260064A0020107081F3108800F08F
S3150800437093BE7047004800403C0000209826002065
S31508004380140000207047FEE701684A69D2435205C7
S315080043900FD46FF480624A61002140F8301F202252
S315080043A042738173026942F00402026101730120BB
S315080043B070470020704700002DE9F843044600685E
S315080043C00D46DDE9089701689846164641F480715E
S315080043D001604B4600224FF001112046009700F07D
S315080043E05BF8E0B9216805F0FE0008613B464A46DD
S315080043F01549204600F084F888B920684169806923
S3150800440000903A464946204600F0C5F850B1206C5F
S31508004410042804D12068016841F400710160012074
S31508004420BDE8F883F5B2B8F1010F09D02168300A62
S3150800443008613A464946204600F0ADF80028E6D11C
S31508004440206805610020EBE70200010070B51646FA
S315080044500D4604460DE02046FFF796FF08B10120F9
S3150800446070BD681C05D0FEF76BFA801BA84207D8FA
S3150800447035B120684069C0434007ECD4002070BDC0
S31508004480002044F8300F20216173A073216941F0A0
S31508004490200121612073E2E72DE9F0471E46904688
S315080044A00D460446C1F30747DDF8209008E0701C66
S315080044B006D0FEF745FAA0EB0900B0420FD876B150
S315080044C02068012F18D0806925EA00000004000C36
S315080044D014D000214145EAD00020BDE8F08700202D
S315080044E044F8300F20216173A073216941F020013F
S315080044F0216120730120F0E74069E5E70121E9E73A
S315080045002DE9F0479A4691460E46044600254FF097
S315080045102008C1F3074725E020684069C0434005E5
S3150800452014D42068016841F40071016021686FF4B1
S3150800453080604861256384F83D8084F83E50206C8D
S3150800454040F00400206484F83C501FE0B9F1FF3FB6
S3150800455008D0FEF7F5F9A0EB0A0149450CD8B9F1E0
S31508004560000F09D02068012F13D0806926EA0000C1
S315080045700004000C0BD0CFE744F8305F84F80D80B8
S31508004580A573206940F02000206125730120BDE84D
S31508004590F0874069EAE770B516460D4604460DE011
S315080045A02046FFF7F1FE08B1012070BD681C05D052
S315080045B0FEF7C6F9801BA84207D835B120684069BE
S315080045C0C0430006ECD4002070BD002044F8300F2C
S315080045D020216173A073216941F0200121612073B4
S315080045E0E2E700002DE9F041184CDFF864804FF44B
S315080045F0804620780125A8B1012824D1207A0028F0
S3150800460021D125720027E762C4E90E77C4E910773D
S31508004610FEF796F9A062677231464046FEF784F9BE
S315080046200CA10CE0207980F001002071314640464B
S31508004630FEF77AF9207908B10CA100E010A1174815
S31508004640FBF7E0FDE572BDE8F081000008000020F8
S315080046500010014043616C6962726174696F6E2073
S31508004660737461727465642E0D0A00005265616484
S31508004670696E67204C485220446174612E0D0A0009
S3150800468053746F70706564204C485220446174619D
S315080046902052656164696E672E0D0A0018020020B3
S315080046A00D4808B5416941F00101416140690022A0
S315080046B000F00100009011460C20FEF731FB0C209B
S315080046C0FEF720FB012211460F20FEF729FBBDE865
S315080046D008400F20FEF716BB001002402DE9F04FE8
S315080046E085B0002444480094019402940394816997
S315080046F041F010018161816901F01001049181691D
S3150800470041F020018161816901F0200104918169EC
S3150800471041F004018161816901F004010491816914
S3150800472041F0080181618069344F00F00800049067
S3150800473000224FF400513846FEF7FDF80122910396
S315080047403846FEF7F8F84FF4805A012251462C48AD
S31508004750FEF7F1F8002208212948FEF7ECF84FF495
S31508004760C04001250226CDE90005CDE90246694685
S315080047703846FDF7E9FF4FF00408DFF888B0CDE9C1
S3150800478000860327694658460397FDF7DDFF4FF075
S315080047900809CDE90094694658460294FDF7D4FF06
S315080047A0CDE9008769461648FDF7CEFFCDF800A08B
S315080047B00397CDE9015469461148FDF7C5FFE8029C
S315080047C000901148CDE9010569465846FDF7BCFF3A
S315080047D0CDF800900396CDE9015469460848FDF7DF
S315080047E0B3FF002211462820FEF79AFA2820FEF782
S315080047F089FA05B0BDE8F08F0010024000100140AC
S31508004800000C014000080140000021100D4810B5B9
S315080048100B4901600C49416000214FF480428160D8
S31508004820C0E9031241618161C1610162FEF78EF838
S31508004830002803D0BDE81040FDF7CEBD10BD00002E
S3150800484000540040C4000020A0860100104810B59E
S315080048500E4901604FF48271416000210222816095
S31508004860C0E9031201224261520282611022C0E9A4
S315080048700721416281620A21C162FEF7FFFC002816
S3150800488003D0BDE81040FDF7A7BD10BD00380040B5
S31508004890A426002010B586B0002417480094019479
S315080048A00294039404941349059401604721C0E9CE
S315080048B001140921C0E903148021C0E90541FEF766
S315080048C02BFF08B1FDF788FD4FF48050009069462C
S315080048D00948FEF7B3FF08B1FDF77EFD049404A965
S315080048E005480594FEF7F7FE002801D0FDF774FD8C
S315080048F006B010BD002C0140FC26002010B58EB075
S3150800490000240794089409940A940B941C21684679
S315080049100C94FBF77EFF23484FF08041016040F27C
S315080049201F11C0E901143121C0E9031480218161F6
S31508004930FEF7F2FE08B1FDF74FFD4FF480500790E1
S3150800494007A91848FEF77AFF08B1FDF745FD15488F
S31508004950FFF721F908B1FDF73FFD0B940BA91148A4
S315080049600C94FEF7B8FE08B1FDF736FD60200090FE
S315080049701920CDE90104042004900022694609485B
S31508004980FFF7A1F808B1FDF727FD04226946054897
S31508004990FFF799F808B1FDF71FFD0248FFF76EF813
S315080049A00EB010BD3C27002010B586B0002416486E
S315080049B000940194029403940494124905940160A6
S315080049C04721C0E901146321C0E903148461FEF795
S315080049D0A3FE08B1FDF700FD4FF48050009069462C
S315080049E00948FEF72BFF08B1FDF7F6FC049404A965
S315080049F005480594FEF76FFE002801D0FDF7ECFC8C
S31508004A0006B010BD000400407C27002010B586B013
S31508004A1000241748009401940294039404941349BB
S31508004A200594016041F61F41C0E901140921C0E956
S31508004A3003148461FEF770FE08B1FDF7CDFC4FF450
S31508004A408050009069460A48FEF7F8FE08B1FDF75F
S31508004A50C3FC049404A906480594FEF73CFE002806
S31508004A6001D0FDF7B9FC06B010BD000000080040F3
S31508004A70BC2700200C4810B50A4901600B49416063
S31508004A80002181600C22C160C0E904128161C16104
S31508004A90FFF794FA002803D0BDE81040FDF79CBC48
S31508004AA010BD000000380140FC27002040420F00DE
S31508004AB00C4810B50A4901600B4941600021816024
S31508004AC00822C160C0E904128161C161FFF776FA64
S31508004AD0002803D0BDE81040FDF77EBC10BD0000DD
S31508004AE0004800403C28002080841E00FEE7FEE7C0
S31508004AF070B5002404F1B000C0B200F027F8002019
S31508004B0000F024F8102000F021F80025002000F01D
S31508004B102FF86D1CEDB2802DF8D3641CE4B2082C76
S31508004B20E8D370BD10B58D2000F010F8142000F001
S31508004B300DF8BDE81040AF2000F008B810B5C82041
S31508004B40FDF7CCFDBDE8104000F082BC01B584B08D
S31508004B5001214FF4807204A88DE807000B46002255
S31508004B6078210248FDF7ACFF05B000BDC40000205F
S31508004B7001B584B001214FF4807204A88DE80700BE
S31508004B800B46402278210248FDF79AFF05B000BD82
S31508004B90C4000020704738B50B4600920446002230
S31508004BA0802100F008F8002804D0606D40F020004D
S31508004BB06065032038BD2DE9F0411D4617460E46AF
S31508004BC00446DDF8188008E0681C06D0FDF7B8FE34
S31508004BD0A0EB0800A8420BD255B12068806836EAD7
S31508004BE0000030D00020B842EED10020BDE8F081A8
S31508004BF02068416821F0E00141606068B0F5827F75
S31508004C000BD1A068B0F5004F02D0B0F5806F04D183
S31508004C102068016821F040010160A06AB0F5005FD4
S31508004C2009D12068016821F40051016020680168F3
S31508004C3041F400510160012084F85100002084F8F5
S31508004C4050000320D2E70120CDE77047FDF7FEBFED
S31508004C5030B58FB028216846FBF7DBFD14210AA87A
S31508004C60FBF7D7FD01210804CDE9001000240294C2
S31508004C7002250491CDE907504FF4E01009906846E3
S31508004C80FEF76CF908B172B6FEE70F20CDE90A0502
S31508004C904FF48060CDE90C4002210AA80E94FEF775
S31508004CA071F8002801D072B6FEE70FB030BD0000DB
S31508004CB00D48016841F00101016041680B4A114045
S31508004CC0416001680A4A11400160016821F48021A7
S31508004CD00160416821F4FE0141604FF41F018160C3
S31508004CE00449C00308607047001002400000FFF83E
S31508004CF0FFFFF6FE08ED00E00148FEF70BBE0000D8
S31508004D00FC2600200148FEF705BE00007C2700208F
S31508004D100148FEF7FFBD0000BC270020F0B5026879
S31508004D20164B174C174D4FF08047984205D0B8429E
S31508004D3003D0A04201D0A84203D122F070064A68E7
S31508004D403243984205D0B84203D0A04201D0A842C7
S31508004D5003D122F44074CA6822434C6922F08002C7
S31508004D60224302608A68C2620A688262984201D156
S31508004D700969016301214161F0BD0000002C014071
S31508004D80000400400008004010B501F01F0301218F
S31508004D90046A99408C430462016A9A40114301628D
S31508004DA010BD10B5846842EA032224F47F440A43FE
S31508004DB02243826010BD826822F070020A4342F0E4
S31508004DC0070181607047000030B5026A22F00102CF
S31508004DD00262026A4368846924F073050C682C43EE
S31508004DE022F002058A682A430A4DA8420BD122F00E
S31508004DF00805CA6823F440732A434D6922F0040261
S31508004E001D438B692B434360846149684163026291
S31508004E1030BD0000002C014030B5026A22F01002B5
S31508004E200262026A436884690D6824F4E64444EA27
S31508004E3005248D6822F0200242EA05120B4DA8428D
S31508004E400ED1CD6822F0800242EA05124D6923F49C
S31508004E50406343EA85038D6922F0400243EA8503ED
S31508004E604360846149688163026230BD002C014059
S31508004E7030B5026A22F480720262036A4268C46923
S31508004E8023F4007324F073050C682C438D6843EAF9
S31508004E9005230C4DA8420ED1CD6823F4006343EADE
S31508004EA005234D6922F4405242EA05128D6923F41E
S31508004EB0806342EA05124260C4614968C1630362BD
S31508004EC030BD0000002C014030B5026A22F4805241
S31508004ED00262046A4268C3690D6823F4E64343EA3A
S31508004EE005238D6824F4005444EA0534064DA84287
S31508004EF004D14D6922F4804242EA85124260C361B8
S31508004F0049680164046230BD002C014010B5036A8B
S31508004F10046A24F001040462846924F0F00444EA73
S31508004F20021423F00A020A438461026210BD10B516
S31508004F30036A23F0100303628369046A23F4704347
S31508004F4043EA023224F0A00343EA011182610162B6
S31508004F5010BD00002DE9F043A9B0994614460D4648
S31508004F600646FDF7EDFC20493C27B0FBF1F34EF66B
S31508004F706021B0FBF1F1B1FBF7F207FB12114FF418
S31508004F807A72B0FBF2FCBCFBF7F807FB18C7B0FB5C
S31508004F90F2FC02FB1C00CDE90017029013A21021B7
S31508004FA024A8FBF743F97F22494604A8FBF758FCD7
S31508004FB000208DF88F0004A824A9CDE90015CDE9B5
S31508004FC0024033460FA280211448FBF72FF91348F5
S31508004FD0FBF793FB82B24FF0FF3310491048FFF7F7
S31508004FE00FF929B0BDE8F08380EE36002530326C23
S31508004FF0753A2530326C753A2530326C752E253067
S31508005000336C75005B25735D205B25735D205B251E
S31508005010733A25645D2025730D0A000018020020E6
S31508005020FC270020F0B5EFF3108272B6184C256BFA
S31508005030184B666BED1AADB2F61AB6B2B54201D385
S31508005040AD1B02E0751BC5F51055ADB242F2FF3631
S31508005050751BADB28D4203D282F310880020F0BDD5
S31508005060002503F510560DE0475DD4F830C08CF8DE
S315080050700070276B7F1C2763276BB74200D3236317
S315080050806D1CADB28D42EFD382F310880120F0BDBE
S31508005090080000209802002010B5EFF3108072B6C1
S315080050A0134C217B19B9216B626B914202D180F3B3
S315080050B0108810BD616B226B636B9A4203D9226B11
S315080050C0636BD21A04E00B4A636BD21A02F51052CC
S315080050D0012392B2237380F310880748FFF7EEF88E
S315080050E00028E6D0EFF3108072B600212173DEE7C0
S315080050F008000020980200203C28002010B5406ACD
S315080051000021C185C184FEF7A2FE10BD70B5446AB0
S315080051102068406994F83910C0F3C0100025212989
S3150800512004D118B1E584204600F062F82068406989
S3150800513094F83A10C0F38010222904D118B1E585F5
S31508005140204600F047F8E06B40F01000E063204688
S31508005150FEF77DFE70BD10B50146406A096809680C
S31508005160890613D40021C1850168CA6822F48072B1
S31508005170CA6001684A6922F001024A6101684A69FF
S3150800518022F040024A61202180F83A10FFF736F8EB
S3150800519010BD10B5406AFFF732F810BD10B50146CC
S315080051A0406A0968096889060CD40021C184016827
S315080051B04A6922F080024A610068C16841F04001EC
S315080051C0C16010BDFFF7BAF810BD10B5406AFFF709
S315080051D0D9F810BD0168CA6822F49072CA600168DD
S315080051E04A6922F001024A61202180F83A10704784
S315080051F00168CA6822F0C002CA60202180F8391006
S31508005200704710B590F83A10222901D0022010BD37
S315080052108168B1F5805F11D00169002901681FD046
S31508005220496801F07F03816A4A1C82620B70C18D4E
S31508005230491E0904090CC18518D02BE00269816A48
S31508005240002A0268526805D0D2B20A80816A491CCF
S315080052508162ECE7C2F308020A80816A891CF7E7D3
S315080052604A68816A4B1C83620A70E0E70168CA686B
S3150800527022F02002CA600168CA6822F48072CA60F5
S3150800528001684A6922F001024A61202180F83A1031
S31508005290FEF7B4FF002010BD2DE9F0410446006872
S315080052A00169E26821F44051114301612169A0684E
S315080052B00843616908432168CA6841F20C639A4346
S315080052C00243CA6020684169A26921F4407111430A
S315080052D041611E49206864253226884202D1FDF7BD
S315080052E0F7FD01E0FDF7E4FD00EBC00101EB00115D
S315080052F060686FF018078000B1FBF0F2B2FBF5F2B8
S31508005300B1FBF0F37A4303EB8202B1FBF0F306EB51
S315080053100212B2FBF5F2B3FBF5F302F0F00202EB70
S315080053200312B1FBF0F3B1FBF0F0B0FBF5F07843F4
S3150800533003EB800006EB0010B0FBF5F0216800F0E7
S315080053400F0010448860BDE8F08100000038014075
S3150800535090F83910212901D0022070478168B1F5EB
S31508005360805F016A0BD04A1C0262026809785160A4
S31508005370C18C491E0904090CC1840ED017E009889E
S315080053800268C1F30801516001690029016A02D067
S31508005390491C0162ECE7891CFBE70168CA6822F030
S315080053A08002CA600068C16841F04001C1600020FF
S315080053B070472DE9F041984617460E460446069D65
S315080053C01DE0681C1BD02DB1FDF7BAFAA0EB08004A
S315080053D0A84214D92068C16821F4D071C160206838
S315080053E0416921F001014161202084F8390084F8DF
S315080053F03A00002084F838000320BDE8F0812068D0
S31508005400006836EA000004D00020B842D9D000204F
S31508005410F3E70120F9E70000084808B500680168C5
S31508005420C943C90605D40168406800900348FEF7D9
S3150800543097FDBDE808400148FEF70ABDFC27002095
S315080054400148FEF705BD00003C280020FEE70000E5
S31508005450FEB50024094F4FF4807501263819CDE9A9
S31508005460000601230022782102950548FDF728FB4E
S31508005470641CE4B21B2CF1D3FEBD0000860000209C
S31508005480C4000020490050EAC12018BF04204A0D74
S3150800549018BF40F0010040F2FF72B2EB515F08BF3F
S315080054A040F00200012808BF052070470907090EC9
S315080054B0002804DB00F1E02080F80014704700F0B3
S315080054C00F0000F1E02080F8141D704730380A28D4
S315080054D001D2012070470020704770B50546382173
S315080054E000F05AF804463921284600F055F844EAEF
S315080054F000243A21284600F04FF844EA004070BDDF
S3150800550070B50C46054601220B2100F064F83F21D0
