S31508000000080B0020B501000837330008672E0008E2
S3150800001035330008730F0008753900080000000022
S3150800002000000000000000000000000093340008F3
S315080000308D12000800000000DD3300089534000822
S31508000040CF010008CF010008CF010008CF01000842
S31508000050CF010008CF010008CF010008CF01000832
S31508000060CF010008CF010008CF010008CF01000822
S31508000070ED110008CF010008CF010008F9110008AA
S31508000080CF010008CF010008CF010008CF01000802
S31508000090CF010008CF010008CF010008CF010008F2
S315080000A0CF010008CF010008CF010008CF010008E2
S315080000B041350008CF010008CF010008CF0100082C
S315080000C0CF010008CF010008CF010008CF010008C2
S315080000D0CF01000841390008CF0100086939000836
S315080000E0CF010008CF010008CF01000800F002F890
S315080000F000F051F80AA090E8000C82448344AAF163
S315080001000107DA4501D100F046F8AFF2090EBAE860
S315080001100F0013F0010F18BFFB1A43F0010318472D
S315080001201C3C00003C3C0000103A24BF78C878C14B
S31508000130FAD8520724BF30C830C144BF04680C60DF
S31508000140704700000023002400250026103A28BF27
S3150800015078C1FBD8520728BF30C148BF0B6070472B
S31508000160642900F0AB80752900F0A880782900F092
S31508000170E180732900F0E383002070471FB500F083
S31508000180A3FE04000020002103F098FD401C6060D7
S315080001901FBD10B510BD00F072FE1146FFF7EEFF49
S315080001A003F0B4FC00F094FE03B4FFF7F2FF03BCBF
S315080001B000F0D8FE0948804709480047FEE7FEE7F1
S315080001C0FEE7FEE7FEE7FEE7FEE7FEE7FEE7FEE7F9
S315080001D004480549054A064B70470000F9340008EB
S315080001E0ED00000808050020080B0020080700207D
S315080001F0080700200FB41CB5074B06AA7B446946BE
S315080002000090059800F071FB0020694600F080FB1D
S315080002101CBC5DF814FB00001107000070B504460D
S3150800022085690068C10601D5302600E02026C0078A
S3150800023007D070BDD4E9012130469047206A401C9A
S3150800024020626D1EF6D570BD70B5044685690078C6
S31508000250C00707D170BDD4E9012120209047206A44
S31508000260401C20626D1EF6D570BD70B50C4605465D
S31508000270012A05D02878800600D5EA69002302E01D
S31508000280012305E05B1C934202D2E05C0028F9D109
S31508000290A869E618C01AA861286A18442862284678
S315080002A0FFF7BCFF04E0D5E9012114F8010B9047DC
S315080002B0B442F8D32846FFF7C7FF70BD2DE9F041D1
S315080002C00646002410687529314616A510D0AFF3E6
S315080002D00080002802DA404213A507E031688A0741
S315080002E001D512A502E0490704D511A5012401E0AC
S315080002F0AFF3008000210A2206F1240709E0B0FBCB
S31508000300F2FCB0FBF2F302FB1C00303078541846BE
S31508000310491C0028F3D123462A463046BDE8F04159
S3150800032000F084BA000000002D0000002B00000039
S315080003302000000070B504460D4621461068AFF34C
S3150800034000802188090502D50F4A7A4402E00E4A40
S315080003507A440E32002104F1240305E000F00F066A
S315080003600009965D5E54491C0028F7D120780023C1
S31508000370000704D5702D02D009B102231132204698
S31508000380BDE8704000F052BAB23900002DE9F05FBE
S31508000390894604464FF0000ADFF874B1FB44C0F8FA
S315080003A020A02046E1688847002874D0252806D072
S315080003B0D4E901219047206A401C2062F1E7002613
S315080003C05F462046E16888472028054607DB312D29
S315080003D005D2781910F8200C08B10643F1E7B007E2
S315080003E001D526F00406C4F81CA00027C4F818A0F6
S315080003F02A2D09D0284603F0E9FA38B304EB870812
S31508000400303DC8F8185019E059F8041B204604EB8B
S3150800041087029161E1688847012F054618D1E0698E
S31508000420002820DA26F020061DE0D8F8180000EB90
S31508000430800005EB40003038C8F818002046E1680F
S315080004408847054603F0C2FA0028EED1012F0AD0E4
S315080004502E2D08D12046E16888477F1C0546022FC5
S3150800046046F02006C4DBA069002803DA404246F0BD
S315080004700106A061F00701D026F010066C2D0BD0FE
S31508000480682D09D04C2D39D06A2D35D0742D35D02C
S315080004907A2D33D016E038E0E1682F4620468847A3
S315080004A0B842054609D16C2F26D04FF48060E16822
S315080004B0064320468847054604E06C2F1AD04FF4B9
S315080004C0807006430DB3A5F14100192802D82035DE
S315080004D046F400664A462946204626604E46FFF7F9
S315080004E03FFE80B101280BD0F61D26F0070000F16B
S315080004F0080956E74020E4E78020D8E70020D6E739
S3150800050006F104094DE7284652E7206ABDE8F09F40
S31508000510883900000FB400B58DB010A90990009174
S315080005200B904FF0FF300A9000200C900648784454
S315080005300690064878446A4607900F9909A800F07D
S3150800054017FA0DB05DF814FB5F040000770400008D
S315080005502DE9FF5F1D464FF0FF3B91464FF000081F
S315080005605F46D5E90146A96901987F1C8847296A2B
S31508000570824688470028F6D1BAF1FF3F0CD0002EF4
S3150800058024F4C06419DD600614D5BAF12B0F09D01E
S31508000590BAF12D0F0ED103E0584604B0BDE8F09F1E
S315080005A044F48064A96901987F1C8847761E8246B0
S315080005B0002E02DDBAF1300F03D0B9F1000F26D0B4
S315080005C032E0A969761E01987F1C44F400748847B6
S315080005D0002E824605DDBAF1780F06D0BAF1580F1B
S315080005E003D0B9F1000F10D01EE0B9F1000F02D008
S315080005F0B9F1100F18D1A969761E01987F1C24F449
S31508000600007488478246102002E0082000E00A208D
S31508000610814609E0A96908FB0908761E01987F1C2E
S3150800062044F4007488478246002E05DD4946504644
S3150800063000F089F90028EDDAE96901988847A005EC
S3150800064002D46FF00100A8E7E00725D1600613D5AC
S31508000650600502D5C8F1000000E0404629680A1D79
S315080006602A600968220501D5087015E0220701D518
S31508000670088011E008600FE02868011D29600068FD
S31508000680210502D580F8008006E0210702D5A0F8EA
S31508000690008001E0C0F8008038467EE770B506465F
S315080006A000F0C0F80468054630460A22002100F02A
S315080006B08FF92C6070BD10B5431C02E010F8011BC1
S315080006C071B18107FAD14FF0013202C88C1A8C43F6
S315080006D014EAC211F9D0C01A0A0603D0C01E10BD0A
S315080006E0C01A10BD0A0401D0801E10BD0902FCD034
S315080006F0401E10BD40EA010370B59B072ED14FF08E
S315080007000136042A2AD308C810C99D1B9D43121F07
S3150800071015EAC61517D0D8B2E1B2401A50EA0561F3
S3150800072010D198B2A1B2401A50EA05410AD123F075
S315080007307F4024F07F41401A50EA052102D1180E65
S31508000740A0EB146070BDA342DBD018BA21BA884268
S3150800075001D9012070BD4FF0FF3070BD0AB90020E5
S3150800076070BD10F8013B11F8014B63B1A3420AD1E1
S31508000770521E08D010F8013B11F8014B1BB1A342D9
S3150800078001D1521EEDD1181B70BD4FF0000204298D
S31508000790C0F0128010F0030C00F01B80CCF1040CA2
S315080007A0BCF1020F18BF00F8012BA8BF20F8022BD6
S315080007B0A1EB0C0100F00DB85FEAC17C24BF00F87C
S315080007C0012B00F8012B48BF00F8012B70474FF0AA
S315080007D0000200B5134694469646203922BFA0E883
S315080007E00C50A0E80C50B1F12001BFF4F7AF09078F
S315080007F028BFA0E80C5048BF0CC05DF804EB890080
S3150800080028BF40F8042B08BF704748BF20F8022BC2
S3150800081011F0804F18BF00F8012B704770477047DA
S315080008207047000000487047A80400202DE9F047EB
S315080008300D4699469246044600F124080168880642
S3150800084004D5E06921F01001216000E00120A842EA
S3150800085001DD471B00E00027A1697A1902EB0900B0
S31508000860081AA0612078C00602D42046FFF7D6FCF5
S31508000870002608E0D4E901211AF806009047206A04
S31508000880401C761C20624E45F4DB2078C0060AD54B
S315080008902046FFF7C3FC06E0D4E901213020904743
S315080008A0206A401C2062381EA7F10107F4DC07E025
S315080008B0D4E9012118F805009047206A401C2062F7
S315080008C0281EA5F10105F3DC2046FFF7BDFC2078BC
S315080008D0000602D50220BDE8F0870120FBE70000EC
S315080008E001694A1C02610878704700B58FB0CDE9E6
S315080008F001310021059105497944CDE903101146D6
S315080009006846FFF743FD0FB000BD0000E5FFFFFF97
S315080009100A6802F8010B0A60704710B5436913B1FB
S31508000920AFF3008001E0FFF7A0FC012010BD1278AC
S3150800093000F124010A7000224A700122EDE71168CD
S315080009404FF0FF32E9E73A2800D2303820F020028B
S31508000950412A01D3A2F13700884201D34FF0FF3074
S315080009607047000002681144137801601846704702
S31508000970D1600549794451610449794411620021DD
S315080009801161114600F072B8EDFFFFFFDB000000B1
S31508000990426842B1016811F8013B23B1521EC0E911
S315080009A00012184670470121C160881E70474268C8
S315080009B05AB1C368016843B983688B4205D0491E9A
S315080009C0521CC0E90012002070474FF0FF307047F4
S315080009D02DE9F04791460F4680460446002614F84E
S315080009E0015B2DB100F030F80068405DC007F6D114
S315080009F02B2D02D02D2D18D0641E4A463946204686
S31508000A0000F0EEF927B13968A14201D1C7F8008094
S31508000A104FF0020471050BD54042002803DDFFF7AD
S31508000A2001FF0460A007BDE8F08746F48066E4E7A6
S31508000A300028F8DAFFF7F6FE04606FF00040F2E7E8
S31508000A4000487047A804002010B500F03DFA001DC4
S31508000A5010BD00BF6932000010B50446FFF7F4FF69
S31508000A600068005D00F0010010BD00002DE9F34F9D
S31508000A704FF0000A0C4656468DB001200C9001F145
S31508000A800C000B9062690B9801219047051E2DD02A
S31508000A90252D2CD0216A8847C0B162690B9801219F
S31508000AA09047216A88470028F7D16269411E0B984A
S31508000AB0904700E0761CA1690D988847216A884707
S31508000AC00028F7D1E1690D988847DBE7A1690D98F9
S31508000AD08847A842074601D1761CD3E7E1690D98F5
S31508000AE088477F1C02D1BAF1000F6FD06BE16269AB
S31508000AF00B9800273D46394690472A2804D1626953
S31508000B000B98012190470125DFF8D08262690B987E
S31508000B1001219047A0F130010A290AD24745E5DCB0
S31508000B2007EB870100EB4107303FDFD445F010059E
S31508000B30ECE7E90601D46FF000476C280AD04C2888
S31508000B4014D0682815D06A280DD074281CD07A28A5
S31508000B501AD01DE062690B98012190476C2802D0D3
S31508000B6045F0040514E045F002050DE045F02005C2
S31508000B700AE062690B9801219047682802D045F07F
S31508000B80080505E045F4006562690B980121904760
S31508000B90C4E9015765283DD019DC58287AD00CDC01
S31508000BA0452837D004DC252826D041289ED131E0B7
S31508000BB046282FD0472899D12CE05B2877D0612882
S31508000BC028D063287CD0642823D15AE0F6E06F2821
S31508000BD048D008DC66281DD067281BD0692821D094
S31508000BE06E2816D127E0702845D0732868D0752856
S31508000BF047D078280DD14DE0A1690D98884725285A
S31508000C0005463FF469AFE1690D9888476D1C3FF4C6
S31508000C106AAFD8E00D9923466A466FF00100AFF334
S31508000C200080C5E045F0400023464FF000026060B2
S31508000C30A80736D43EE0E8077FF447AF2068011DD1
S31508000C4021600068290501D506701BE7290701D52B
S31508000C50068017E7A90703D5F117C0E9006111E770
S31508000C6006600FE745F0400023464FF00802606033
S31508000C70A80716D41EE040F60E0125EA01006060BA
S31508000C8016E045F0400023464FF00A026060A807C8
S31508000C9007D40FE045F040006060A80708D5234652
S31508000CA010220D996FF00100AFF3008080E007E095
S31508000CB0102223460D996FF00100FFF749FC77E0F3
S31508000CC04FF0000963284F46C8464B46CB4602D02C
S31508000CD05B2806D038E0E80601D40120A060012789
S31508000CE032E06269D4F80CB00B98012190475E286F
S31508000CF007D14FF0010949466269D4F80CB00B9840
S31508000D009047216939B900210A4603AB43F82120E7
S31508000D10491C0829FADBD8B3216949B308F1010847
S31508000D2062690B98012190475D28F4D1B9F1000F4B
S31508000D3009D0002003A951F82020D24341F82020E9
S31508000D40401C0828F7DB03AB2069002820794FEA06
S31508000D5040701ED05B462246CDF80080CDE901974B
S31508000D600D9900286FF0010020DAAFF300801FE02C
S31508000D70C11703AA00EBD1614B1121F01F0102EB49
S31508000D808302411A13680120884003431360C7E7AA
S31508000D9019E00D99224600286FF00100009702DA43
S31508000DA0AFF3008004E0AFF3008001E0AFF300800A
S31508000DB000280ADA401C06D10C9820B14FF0FF3003
S31508000DC00FB0BDE8F08F5046FAE7E90701D10AF1FE
S31508000DD0010A064400200C9054E60000CCCCCC0C4A
S31508000DE02DE9F05F824615468B4600270AF1010475
S31508000DF0B9460078302801D09DB113E014F8010BEC
S31508000E000127782803D0582801D045B10AE00DB14A
S31508000E10102D07D1002714F8010B102502E008252C
S31508000E2000E00A250026B0460EE005FB080005FB93
S31508000E3006F101271FFA80F801EB1046B6F5803F48
S31508000E4000D3B94614F8010B2946FFF77CFD0028A4
S31508000E50EBDABBF1000F05D00FB1641E00E0544673
S31508000E60CBF80040B9F1000F06D0FFF7DBFC0221F2
S31508000E700160C81EBDE8F09F48EA0640FAE77546D5
S31508000E80FFF7DEFDAE4605006946534620F007002B
S31508000E90854618B020B5FFF79BF9BDE820404FF00E
S31508000EA000064FF000074FF000084FF0000B21F046
S31508000EB00701AC46ACE8C009ACE8C009ACE8C00913
S31508000EC0ACE8C0098D46704700487047C804002042
S31508000ED010B50446AFF300802046BDE81040FFF782
S31508000EE063B900004FF0013C50F8042B51F8043B5D
S31508000EF09A4221D1A2EB0C03934313EACC1317D1E0
S31508000F0050F8042B51F8043B9A4215D1A2EB0C0376
S31508000F10934313EACC130BD150F8042B51F8043B36
S31508000F209A4209D1A2EB0C03934313EACC13DBD004
S31508000F304FF00000704700BFD01A01BAB1FA81F12C
S31508000F4001F0180122FA01F0CB40C1F12001DBB211
S31508000F50C0B2C01A2CFA01F3D11A914311EAC3118F
S31508000F60E6D1704701491820ABBEFEE7260002000D
S31508000F707047FEE72DE9F0415B4D5A4C88B028785A
S31508000F80032204EB801059A1FFF7B4FB0028DFF811
S31508000F90608128784FF4005704EB801022D0032292
S31508000FA054A1FFF7A7FB0028287804EB801025D06A
S31508000FB0092251A1FFF79EFB00282BD0287805228D
S31508000FC004EB80104FA1FFF795FB0028287804EB67
S31508000FD080102DD009224DA1FFF78CFB4E4E00281C
S31508000FE038D039E0C01CFFF759FB4C4C39462080F5
S31508000FF0404600F0CFFB228849A115E0C01CFFF748
S315080010004DFB4C4C39462080404600F0C3FB2288F5
S3150800101049A109E03946404600F0BCFB3F214C484F
S3150800102002F03AFD02464BA15148FFF7E3F84BE0C0
S315080010306A4650A1401DFFF76DFA9DF80010444816
S3150800104002F02AFD03469DF800204CA14848FFF708
S31508001050D1F839E0307848B12878092204EB8010B5
S315080010604BA1FFF747FB58BB307848B33946404693
S3150800107000F090FB307808B13B2100E0202134488D
S3150800108002F00AFD03AD00F00104C0F34003C0F30B
S315080010908002C0F3C00185E81E00C0F30013C0F348
S315080010A04012C0F380118DE80E00C309307808B1EC
S315080010B03AA200E03AA23CA12D48FFF79BF803E0CC
S315080010C044A12B48FFF796F82948FFF7F4FA08B029
S315080010D082B2BDE8F0414FF0FF332549424801F09E
S315080010E0F1BD0000C80000200600002044523A0066
S315080010F00010014046523A00535049204368656340
S315080011006B000000526561643A00000052504C20A2
S31508001110436865636B000000000000200C00002097
S3150800112050574D5F44522073657420746F202564B0
S315080011300D0A00000A00002050574D5F46524551DF
S315080011402073657420746F202564487A0D0A0000A0
S31508001150340000204C4443313130312044657669EF
S3150800116063652049443A203078253032580D0A0004
S315080011704801002025686878000000005B30782563
S315080011803032585D203D203078253032580D0A001F
S315080011904C485220436865636B0000004C48520077
S315080011A052502B4C000000002573204D6561737565
S315080011B072656D656E74205374617475733A202573
S315080011C06425642564256425642564256425640DE1
S315080011D00A000000556E6B6E6F776E20636F6D6D3B
S315080011E0616E640D0A000000A0030020014800F0AB
S315080011F0BFB8000064040020014800F0B9B8000038
S315080012002004002030B590F840500124AC40C56B4E
S315080012106C60046863604368102B036803D09960A8
S315080012200068C26030BD9A600068C16030BD10B504
S31508001230044681880068002200F0B3FAA1890022DA
S31508001240A06800F0AEFAA18A2069BDE81040012224
S3150800125000F0A7BA10B5044681880068012200F09C
S31508001260A0FAA189A068BDE81040002200F099BA4A
S3150800127010B5044681880068002200F092FAA18918
S31508001280A068BDE81040012200F08BBA704772B61C
S31508001290FEE710B590F821100022022905D0042196
S315080012A0816380F82020012010BD01680B6823F0B7
S315080012B00E030B6001680B6823F001030B6090F8BE
S315080012C04030C46B012101FA03F3636080F82110F2
S315080012D080F82020104610BD10B590F82110002483
S315080012E0022903D00421816301243DE001680A68CC
S315080012F022F00E020A6001680A6822F001020A60FA
S315080013001A4A0168914201D1012121E0174A143293
S31508001310914201D110211BE0144A2832914201D191
S31508001320891515E0114A3C32914201D189140FE022
S315080013300E4A5032914202D14FF4803108E00B4AEE
S315080013406432914202D14FF4801101E04FF080716E
S31508001350064A083A5160012180F82110002180F8D8
S315080013602010416B01B18847204610BD0800024095
S315080013702DE9F05FC16B0C6801680B68D0F840C0B6
S31508001380042202FA0CF2494DDFF824A1494E4A4FCD
S31508001390DFF828B1DFF828E122422CD05A072AD5EF
S315080013A00A68920603D40A6822F004020A600168F1
S315080013B0A94201D1042219E0514501D1402215E084
S315080013C0B14202D14FF4806210E0B94202D14FF423
S315080013D080420BE0594502D14FF4802206E0714560
S315080013E002D14FF4800201E04FF080622F4908399C
S315080013F04A60C16A3BE04FF0020808FA0CF818EA9E
S31508001400040F4FF000094FF0010235D05FEA8378E8
S3150800141032D50B689B0605D40B6823F00A030B60CC
S3150800142080F821200168A94201D1022219E051451C
S3150800143001D1202215E0B14202D14FF4007210E02A
S31508001440B94202D14FF400520BE0594502D14FF48C
S31508001450003206E0714502D14FF4001201E04FF068
S315080014600072124908394A6080F82090816A00297A
S315080014701AD0BDE8F05F0847082505FA0CF525429D
S3150800148012D01B0710D50B6823F00E030B6090F8DB
S315080014904010C36B02FA01F15960826380F821207B
S315080014A080F82090016BE2E7BDE8F09F0800024053
S315080014B01C0002403000024044000240580002402E
S315080014C06C00024030B528B308C8134914221944E1
S315080014D0B1FBF2F18900C1631049816302214177AA
S315080014E01A6843F6F0718A43D0E900142143D0E91B
S315080014F002452C43214304692143446921438469F5
S315080015002143114319600021416301224277017783
S31508001510084630BD012030BDF8FFFDBF000002407F
S3150800152070B5044690F82000002501280CD001204B
S3150800153084F8200094F821600020012E06D084F853
S3150800154020000225284670BD022070BD022684F8B8
S315080015502160A0632068066826F00106066020461A
S31508001560FFF750FEE06A00282068016802D041F0C3
S315080015700E0106E021F0040101602068016841F0CF
S315080015800A0101602068016841F001010160D9E79C
S3150800159070B5044600F00AF90546601C02D00448F6
S315080015A00078044400F002F9401BA042FAD370BD4B
S315080015B0680000202DE9F84FDFF8B891002409F1FA
S315080015C0040A0AF1040B23460F270BF1040EC9E09F
S315080015D00125A5402A40AA427DD1674ED1F804C00C
S315080015E0ACEB0608B44532D014DCBCF1030F3AD094
S315080015F009DCBCF1000F2AD0BCF1010F1CD0BCF1EC
S31508001600020F31D11DE0BCF1110F17D0BCF1120F3A
S315080016102AD119E0B8F5881F19D006DCB8F5803F3D
S3150800162015D0B8F5801F1FD111E0B8F5001F0ED0F0
S31508001630B8F5041F18D10AE0CB6815E0CB681B1D66
S3150800164012E0CB6808330FE0CB680C330CE08B68EC
S315080016502BB1012B4FF0080303D0456104E00423A6
S3150800166002E0056100E00023FF2A01D8064601E0F2
S3150800167000F104064FEA840501D9A5F12005D6F83C
S31508001680008007FA05FC28EA0C0803FA05F548EA7B
S315080016900508C6F800804D68ED0062D5374DAE697D
S315080016A046F00106AE61AD6924F0030605F00105B2
S315080016B00095334D06EB050CDCF80850A607360FE7
S315080016C007FA06F825EA0805DFF8B880404503D189
S315080016D04FF0000817E044E0DFF8AC80404502D13F
S315080016E04FF001080FE0DFF8A480404502D14FF023
S315080016F0020808E0DFF89880404502D14FF0030859
S3150800170001E04FF0040808FA06F848EA0508CCF89C
S3150800171008804D68D9F80060ED034D4601D516439B
S3150800172000E096432E604D68DAF80060AD03554632
S3150800173001D5164300E096432E604D68DBF800603D
S31508001740ED025D4601D5164300E096432E604D68CE
S31508001750DEF80060AD02754601D5164300E09643F3
S315080017602E60641C0D682A46E5407FF431AFBDE85B
S31508001770F88F00000004014000001110001002401C
S315080017800000014000080140000C01400010014023
S3150800179000140140C2680A4201D0416170470161E4
S315080017A070470AB1016170470904FBE70148806880
S315080017B0704700006800002070B504001BD094F83C
S315080017C03D00002520B984F83C50204600F046F933
S315080017D0242084F83D002068016821F00101016099
S315080017E000F098FA4D4A6168914201D84C4900E0E8
S315080017F04C49884201D2012070BD4B492368B0FB91
S31508001800F1F15E6826F03F060E435E606368934218
S3150800181006D94FF4967359434FF47A73B1FBF3F133
S315080018202368491C1E6A26F03F063143196261681F
S31508001830914210D84900401EB0FBF1F2521CC2F387
S315080018400B02042A01D2042022E0B0FBF1F0401C6E
S31508001850C0F30B001CE0A368F3B301EBC10202EB73
S315080018600116421EB2FBF6F2521C42F480421205E1
S3150800187049D093B301EBC10202EB0111401EB0FB44
S31508001880F1F0401CC0F30B0040F4804040F40040E7
S315080018902168CA694CF6FF739A431043C861D4E9B4
S315080018A00701084321680A6822F0C002104308604D
S315080018B0D4E9030101432068826848F2FF339A435A
S315080018C011438160D4E9050108432168CA6822F0FA
S315080018D0FF021043C86001E00EE016E020680168C8
S315080018E041F0010101602564202084F83D0025634C
S315080018F084F83E50002070BD01EB4106421EB2FB43
S31508001900F6F2521CB3E70120C2E701EB4101401E83
S31508001910B0FBF1F0401CC0F30B00B7E7A08601004E
S3150800192080841E0000093D0040420F002DE9FF4F4C
S3150800193083B09A46DDE9119793460446DDF8408060
S31508001940FFF734FF054694F83D0020287FD1192378
S31508001950012240492046009501F00EFB002876D169
S3150800196094F83C00012872D0012084F83C002068D5
S315080019700168C90703D1016841F0010101602068C7
S31508001980016821F400610160212084F83D004020AF
S3150800199084F83E0000262664C4F82480A4F82A9019
S315080019A0608D20852C48E062CDE9007553465A467D
S315080019B02046049901F070FA70B930E02A46394693
S315080019C0204601F058FB58B1206C042804D1206841
S315080019D0016841F400710160012007B0BDE8F08F8D
S315080019E0606A216800780861606A401C6062218D1F
S315080019F0491E89B22185628D521E62852268536905
S31508001A00DB435B070BD469B100781061606A401C40
S31508001A106062208D401E2085608D401E6085208D69
S31508001A200028CBD12A463946204601F07FFA0028FD
S31508001A30CAD154F83D0B016841F4007101602020B9
S31508001A4004F81E09E67766770020C6E7FFE7022056
S31508001A50C3E70000020010000000FFFF10B586B0C3
S31508001A600021009101910291039100680F49884273
S31508001A701AD10F4CA06940F00800A061A069694618
S31508001A8000F008000490C020009012200190032066
S31508001A9003900848FFF78EFDE06940F40010E06106
S31508001AA0E06900F40010049006B010BD0054004030
S31508001AB000100240000C0140024881680278114477
S31508001AC08160704768000020074810B5016841F03A
S31508001AD010010160032000F075F80F2000F006F8E9
S31508001AE000F024F8002010BD0020024070B50D4D0E
S31508001AF004464FF47A712878B1FBF0F00A49096870
S31508001B00B1FBF0F000F003FD48B9102C07D2002213
S31508001B102146501E00F036F800206C6070BD01208A
S31508001B2070BD000068000020640000200C4808B55D
S31508001B30816941F001018161816901F0010100912A
S31508001B40C16941F08051C161C06900F080500090C0
S31508001B500448416821F0E06141F00071416008BD28
S31508001B600010024000000140002809DB00F01F02B7
S31508001B70012191404009800000F1E020C0F80011E1
S31508001B8070470000F0B40E4B1B680C46C3F30223E3
S31508001B90C3F10705042D00D90425191D072901D20B
S31508001BA0002300E0DB1E012606FA05F1491E214046
S31508001BB099409E40761E16403143F0BC01F0F6BEB1
S31508001BC00CED00E0064900F0070208684FF6FF032F
S31508001BD0184040EA0220034A104308607047000094
S31508001BE00CED00E00000FA052DE9F0470F46050068
S31508001BF061D0434E306800F00700B84209D2306819
S31508001C0020F0070038433060306800F00700B8421B
S31508001C1051D128683B4C810712D5400703D5606827
S31508001C2040F4E06060602878000703D5606840F4F7
S31508001C30605060606068A96820F0F0000843606042
S31508001C402878C00728D06868012810D0216802289B
S31508001C5010D0890700292EDA616821F003010143B3
S31508001C606160FFF7A3FD804641F288390DE02168DF
S31508001C708903EFE78901EDE7FFF798FDA0EB080177
S31508001C80494502D90320BDE8F0876068696800F015
S31508001C900C00B0EB810FEFD1306800F00700B842B6
S31508001CA00BD9306820F0070038433060306800F000
S31508001CB00700B84201D00120E5E72878400705D596
S31508001CC06068E96820F4E0600843606028780007E7
S31508001CD006D56068296920F4605040EAC100606052
S31508001CE000F038F86168084AC1F30311515CC8402E
S31508001CF00649086006480068FFF7F8FE0020C2E7B4
S31508001D000020024000100240E83C00086400002061
S31508001D106C0000200448054900684968044AC1F374
S31508001D200221515CC8407047640000200010024040
S31508001D30F83C00080448054900684968044AC1F3A4
S31508001D40C221515CC8407047640000200010024060
S31508001D50F83C000812A185B00FC98DE80F0014A041
S31508001D60144A006804905168134801F00C03042BC8
S31508001D7010D0082B0ED1C1F38343C9031DF8030005
S31508001D800AD5516804AAC1F34041515C0A4A504336
S31508001D90B0FBF1F005B0704708494843FAE7000080
S31508001DA002030405060708090A0B0C0D0E0F10108E
S31508001DB0010200000010024000127A0000093D00EE
S31508001DC02DE9F84F040070D02078C04DC00749D0DF
S31508001DD06868C0F38100012807D06868C0F38100ED
S31508001DE0022809D16868C00306D52868800339D552
S31508001DF060680028E7D035E06068B0F5803F0BD012
S31508001E0010B1B0F5A02F11D0286820F480302860D2
S31508001E10286820F4802002E0286840F48030286092
S31508001E20606890B1FFF7C2FC06460AE0286840F4ED
S31508001E3080202860F0E700BFFFF7B8FC801B642805
S31508001E4073D828688003F7D50CE0FFF7AFFC064681
S31508001E5005E000BFFFF7AAFC801B6428F0D82868B5
S31508001E608003F7D420789A4E80074FF001094FF087
S31508001E70000839D5686810F00C0F07D06868C0F3F9
S31508001E808100022809D16868C00306D4286880073B
S31508001E9014D52069012808D110E02069B0B1C6F828
S31508001EA00090FFF783FC074605E00AE1FFF77EFC92
S31508001EB0C01B0228C4D828688007F7D52868616936
S31508001EC020F0F80040EAC10028600DE0C6F800805E
S31508001ED0FFF76CFC074604E0FFF768FCC01B022806
S31508001EE023D828688007F7D4207800072CD57948A6
S31508001EF0A169D9B1C0F80090FFF758FC074604E07D
S31508001F00FFF754FCC01B02280FD8686A8007F7D56C
S31508001F1071484FF4FA510068B0FBF1F0009000BF29
S31508001F200098411E0091FAD20EE080E0C0F80080C9
S31508001F30FFF73CFC074604E0FFF738FCC01B022805
S31508001F4075D8686A8007F7D42078400760D5E869AD
S31508001F500027C00008D4E86940F08050E861E869C5
S31508001F60012700F0805000905C480168C90513D429
S31508001F700168834641F480710160FFF717FC8246C9
S31508001F8006E000BFFFF712FCA0EB0A0064284ED853
S31508001F90DBF80000C005F5D5E06801280AD008B1CD
S31508001FA0052813D0286A20F001002862286A20F044
S31508001FB0040002E0286A40F001002862E06841F265
S31508001FC0883B98B1FFF7F2FB82460BE0286A40F09F
S31508001FD004002862EEE700BFFFF7E8FBA0EB0A0162
S31508001FE059455AD8286A8007F6D50CE0FFF7DEFB74
S31508001FF0824605E0FFF7DAFBA0EB0A0159454CD803
S31508002000286A8007F6D41FB1E86920F08050E86195
S31508002010E06988B36968C1F38101022944D00228BE
S31508002020C6F8608004D0FFF7C1FB044638E034E008
S31508002030FFF7BCFB074604E0FFF7B8FBC01B022806
S315080020402BD828688001F7D4206AB0F5803F05D1DF
S315080020506868A16820F4003008436860D4E908017C
S315080020600843696821F4741108436860C6F86090EB
S31508002070FFF79CFB044606E025E000BFFFF796FB4A
S31508002080001B022809D828688001F7D51BE000BF85
S31508002090FFF78CFB001B022802D90320BDE8F88F46
S315080020A028688001F4D40EE00128F7D06868226A0F
S315080020B000F48031914204D1616A00F470108842BC
S315080020C001D00120EAE70020E8E7000000100240FE
S315080020D00000424280044242640000200070004032
S315080020E070B5040005D00025A56294F8510010B11A
S315080020F006E0012070BD84F85050204600F02EF806
S31508002100022084F851002068016821F0400101602E
S31508002110D4E901010843D4E903121143084361696C
S315080021200843218B01F400710843E1690843216AD9
S315080021300843A16A084321680860A069042101EAE6
S315080021401040216848602068C16921F40061C161B6
S315080021506565012084F85100002070BD30B585B052
S315080021600024009401940294039400681549884257
S3150800217025D11548C16941F48041C161C16901F49D
S3150800218080410491816941F00801816180690F4DA0
S3150800219000F0080004904FF42040009002200190BF
S315080021A00320039069462846FFF704FA4FF4804057
S315080021B0CDE90004694628460294FFF7FBF905B005
S315080021C030BD00000038004000100240000C0140FD
S315080021D02DE9F84F044690F8500000271D4616468C
S315080021E0894601280DD04FF0010B84F850B0FFF74F
S315080021F0DDFA804694F85100BA46012804D0022731
S315080022008EE00220BDE8F88FB9F1000F7DD0002ED0
S315080022107BD0032084F85100C4F854A0C4F8309049
S31508002220A686E686C4F838A0A4F83CA0A4F83EA082
S31508002230C4F844A0C4F840A0A068B0F5004F04D183
S315080022402068016841F480410160206801684906F8
S3150800225003D4016841F040010160E068B0F5006F01
S31508002260606803D030B3012E24D040E008B1012EB7
S315080022701CD1206B21680088C86006E02068816848
S31508002280890709D5216B0988C160206B801C2063EA
S31508002290E08E401EE08609E0FFF788FAA0EB08000A
S315080022A0A84202D3681C01D031E07DB3E08E002835
S315080022B0E4D11FE0206B21680078087306E02068E7
S315080022C08168890709D5216B09780173206B401C41
S315080022D02063E08E401EE08609E0FFF767FAA0EB70
S315080022E00800A84202D3681C01D010E075B1E08E40
S315080022F00028E4D142462946204601F070F808B184
S3150800230020206065A06820B107E008E0FFE7032702
S3150800231006E02068C16880680090606D00B10127FA
S3150800232084F851B084F850A038466BE72DE9F84F89
S31508002330044690F8500000270A9E1D4692468B4692
S315080023404FF0010901280ED0012084F85000FFF74C
S315080023502DFA804694F85100616801280CD0B1F531
S31508002360827F07D102E00220BDE8F88FA16809B98B
S31508002370042801D00227C2E0BBF1000F27D0BAF12A
S31508002380000F24D01DB394F85100042802D005206C
S3150800239084F8510000206065C4F838A0E587A58751
S315080023A0C4F830B0E586A5862064606420680168B4
S315080023B0490603D4016841F040010160E068B0F5C0
S315080023C0006F606805D0E8B3012D46D07FE001278D
S315080023D095E008B1012D39D1206B21680088C860C5
S315080023E0206B801C2063E08E401EE0862EE020686D
S315080023F0816889070FD5E18E69B1B9F1010F0AD154
S31508002400216B0988C160206B801C2063E08E401E0A
S31508002410E0864FF0000920688168C9070CD0E18F73
S3150800242051B1C068A16B0880A06B801CA063E08FC7
S31508002430401EE0874FF00109FFF7B8F9A0EB080046
S31508002440B04200E009E001D3701C50D1E08E0028AC
S31508002450CDD1E08F0028CAD13FE0206B21680078F3
S315080024600873206B401C2063E08E401EE0862EE039
S315080024702068816889070FD5E18E69B1B9F1010F26
S315080024800AD1216B09780173206B401C2063E08E0A
S31508002490401EE0864FF0000920688168C9070CD005
S315080024A0E18F51B1C068A16B0870A06B401CA06396
S315080024B0E08F401EE0874FF00109FFF777F9A0EBA0
S315080024C00800B04202D3701C01D010E07EB1E08E45
S315080024D00028CDD1E08F0028CAD142463146204691
S315080024E000F07DFF28B101272020606507E003275B
S315080024F005E0A06818B92068C168806800900120C6
S3150800250084F85100002084F8500038462CE710B5AE
S31508002510401EB0F1807F01D3012010BD4FF0E024AA
S3150800252060610F21601701F041FA0020A0610720C1
S315080025302061002010BD7047704770B590F83C20A8
S31508002540012A19D0012400F83C4F0222427050F8A3
S315080025503C3C5A689D6822F070060A68496832430E
S3150800256025F0800529435A6050F83C2C9160447048
S3150800257000210170084670BD022070BD10B5040028
S3150800258003D094F83D0010B107E0012010BD0020EB
S3150800259084F83C00204600F00DF8022084F83D003F
S315080025A0211D206800F0D2FF012084F83D0000209C
S315080025B010BD000008B50068B0F1804F12D10A4876
S315080025C0C16941F00101C161C069002200F0010042
S315080025D0009011461C20FFF7D5FABDE808401C20DC
S315080025E0FFF7C2BA08BD0000001002400168CA68B9
S315080025F042F00102CA600068816801F007010629F5
S3150800260003D0016841F0010101600020704770B5F0
S31508002610044690F83C00012817D0012584F83C5060
S31508002620022084F83D002068826822F0770222F4AE
S315080026307F4282600868502830D00DDC20284DD0B3
S3150800264005DC98B310283BD148E0022070BD30283D
S3150800265044D0402834D139E0602828D0702806D0E4
S31508002660B0F5805F2CD0B0F5005F29D10AE0CB68C1
S31508002670D1E90121206800F09FFF2068816841F0B8
S31508002680770109E0CB68D1E90121206800F094FFC1
S315080026902068816841F48041816011E0CA68496810
S315080026A0206800F09BFF5021206807E016E0CA6802
S315080026B04968206800F0A3FF6021206800F086FFC3
S315080026C084F83D50002084F83C0070BDCA6849680B
S315080026D0206800F083FF40212068EFE72268014662
S315080026E01046EBE7704770B50446006801694FF07D
S315080026F00005C943890715D4C168C943890711D498
S31508002700E91E01610120207720688069800720463C
S3150800271002D0FFF7E7FF04E000F098F8204600F043
S3150800272096F8257720680169C943490717D4C1680F
S31508002730C943490713D46FF00401016102202077C9
S315080027402068806910F4407F204602D0FFF7CAFF50
S3150800275004E000F07BF8204600F079F82577206839
S315080027600169C943090716D4C168C943090712D4C0
S315080027706FF008010161042020772068C06980078E
S31508002780204602D0FFF7AEFF04E000F05FF82046CF
S3150800279000F05DF8257720680169C943C90617D492
S315080027A0C168C943C90613D46FF010010161082036
S315080027B020772068C06910F4407F204602D0FFF7D2
S315080027C091FF04E000F042F8204600F040F8257733
S315080027D020680169C943C90708D1C168C943C9073F
S315080027E004D1891E0161204600F032F8206801698B
S315080027F0C943090609D4C168C943090605D46FF057
S31508002800800101612046FFF796FE20680169C943E9
S31508002810490609D4C168C943490605D46FF0400181
S315080028200161204600F04EF820680169C94389060F
S315080028300BD4C168C943890607D46FF0200101612A
S315080028402046BDE87040FFF777BE70BD70477047F9
S3150800285070B50068B0F1804F25D114486422154C34
S3150800286001881348002500884843B0FBF2F2206827
S31508002870824203D91048FEF7EDFC04E0884213D2E1
S315080028800D48FEF7F5FC20680C49401C206060687E
S31508002890884205D14FF400510948FEF77BFF656071
S315080028A06068401C606070BD2560E3E70E0000208C
S315080028B00C0000205C00002014000020A086010007
S315080028C000100140704710B504460068416994F845
S315080028D03920C1F3C011212A0BD151B1416921F028
S315080028E080014161206B08B1FEF7D3FC204600F059
S315080028F012FF2068416994F83A20C1F38011222A10
S315080029000BD151B1416921F040014161606B08B1B9
S31508002910FEF7BFFC204600F0F0FE002010BD704711
S3150800292070B5026804461068D168536910F00F0F35
S3150800293050D003F0010501F4907635435DD0C20707
S3150800294005D0CA0503D5E26B42F00102E2634207ED
S3150800295005D5DA0703D0E26B42F00202E26382078A
S3150800296005D5DA0703D0E26B42F00402E2630207F8
S3150800297005D5DA0703D0E26B42F00802E263E26BA0
S31508002980002A33D0800604D5880602D5204600F0F2
S31508002990CBFE20684069E16BC0F38010090700D4BC
S315080029A028B3204600F0A9FE2068416949061AD5D1
S315080029B0416921F040014161606BA0B11B49416347
S315080029C0606BFEF789FC002810D0606B416BBDE890
S315080029D070400847830610D58B060ED52046BDE8FD
S315080029E0704000F0A1BE2046FFF799FF70BD204653
S315080029F0FFF795FF0020E06370BD030606D50B06BA
S31508002A0004D52046BDE8704000F036BF4006F3D531
S31508002A104806F1D5D168204621F04001D160202131
S31508002A2084F8391000F0ECF970BD00002336000870
S31508002A3070B500680E49884219D10E48FFF743FF62
S31508002A40FEF798FA0D4C0C4D2078402105EB8010C6
S31508002A50FDF79BFE207880F0010020702078402248
S31508002A6005EB8011BDE87040024800F0DDB870BD86
S31508002A7000380140A0030020C800002006000020FE
S31508002A8070B5040004D094F83900002510B106E0AA
S31508002A90012070BD84F83850204600F023F8242021
S31508002AA084F839002068C16821F40051C1602046C5
S31508002AB000F086FE2068016921F4904101612068D2
S31508002AC0416921F02A0141612068C16841F4005139
S31508002AD0C160E563202084F8390084F83A000020B4
S31508002AE070BD00002DE9F04385B0002400940194E0
S31508002AF002940394064603684548DFF810C102218C
S31508002B000322051580274FF02008634539D18369CC
S31508002B1043F480438361836903F4804304938369A0
S31508002B2043F0040383618069DFF8E89000F004004D
S31508002B3004900802CDE90001039269464846FEF76B
S31508002B4039FDCDE90054694648460294FEF732FD40
S31508002B50324D3148C5E90004C5E902472C61C5E98B
S31508002B6005482846EC61FEF7ADFC08B1FEF78FFB79
S31508002B7075630022114625206E62FFF703F82520AB
S31508002B803EE0DFF89CC063453CD1C36943F480232B
S31508002B90C361C36903F480230493836943F008037C
S31508002BA083618069CDE9005100F00800CDE9032072
S31508002BB01C4D69462846FEF7FDFCE814CDE90004DD
S31508002BC0694628460294FEF7F5FC144D124844352A
S31508002BD03C3801C5102091C5104845F810494430C5
S31508002BE0C5E90548EC61FEF76DFC08B1FEF74FFB39
S31508002BF035630022114627206E62FEF7C3FF2720A1
S31508002C00FEF7B2FF05B0BDE8F083000000380140CA
S31508002C10001002400008014058000240200400202D
S31508002C2000480040000C0140F8B5044690F83A0008
S31508002C3020283CD1C1B3BAB394F83800012836D05D
S31508002C40012084F83800A162A2850025E5632220C8
S31508002C5084F83A00636B17489862636B1648D86223
S31508002C60636B16481863606B134645630846666BC4
S31508002C70216802463046091DFEF752FC20680168A5
S31508002C804168009184F83850C16841F48071C16088
S31508002C902068416941F0010141612068416941F0BC
S31508002CA0400141610020F8BDFFE70120FBE7022053
S31508002CB0F9E700007D360008B93600083336000803
S31508002CC0704770472DE9F843044690F839001F46C7
S31508002CD016460D46202850D1A5B19EB194F8380065
S31508002CE001284AD0012084F838004FF00008C4F8BB
S31508002CF03C80212084F83900FEF758FDA6848146D9
S31508002D00E68426E00120BDE8F883E08C401EE084D6
S31508002D10A0684B46B0F5805F4FF000024FF0800187
S31508002D202046009703D000F0D8FDE8B90DE000F082
S31508002D30D4FDC8B928882168C0F30800486020690E
S31508002D4008B16D1C05E0AD1C03E0216815F8010B00
S31508002D504860E08C0028D8D14B4600224021204606
S31508002D60009700F0BAFD08B10320CCE7202084F8CC
S31508002D70390084F838800020C5E70220C3E7000040
S31508002D8070B5044690F83900202830D169B362B38B
S31508002D9094F8380001282AD0012084F838002162E6
S31508002DA0A284E2840025E563212084F83900236B98
S31508002DB010489862236B1048D862236B0F48186333
S31508002DC0206B134645632668206B321DFEF7A8FB69
S31508002DD021686FF04000086084F83850206841691F
S31508002DE041F080014161002070BD012070BD0220C4
S31508002DF070BD0000C3360008F136000833360008F7
S31508002E0070B50068114988421AD1114C20781149C9
S31508002E100978884215D0104D207805EB8010FDF70B
S31508002E204AFC82B2207805EB80110C48FFF7A8FF10
S31508002E3020780621401CB0FBF1F201FB120020703D
S31508002E4070BD07490020087070BD000000480040AA
S31508002E50090000200800002088010020E003002067
S31508002E60070000207047FEE701684A69D243520509
S31508002E700FD46FF480624A61002140F8301F202287
S31508002E8042738173026942F00402026101730120F0
S31508002E9070470020704700002DE9F8430446006893
S31508002EA00D46DDE9089701689846164641F4807193
S31508002EB001604B4600224FF001112046009700F0B2
S31508002EC05BF8E0B9216805F0FE0008613B464A4612
S31508002ED01549204600F084F888B920684169806958
S31508002EE000903A464946204600F0C5F850B1206C95
S31508002EF0042804D12068016841F4007101600120AA
S31508002F00BDE8F883F5B2B8F1010F09D02168300A97
S31508002F1008613A464946204600F0ADF80028E6D151
S31508002F20206805610020EBE70200010070B516462F
S31508002F300D4604460DE02046FFF796FF08B101202E
S31508002F4070BD681C05D0FEF731FC801BA84207D867
S31508002F5035B120684069C0434007ECD4002070BDF5
S31508002F60002044F8300F20216173A073216941F0D5
S31508002F70200121612073E2E72DE9F0471E469046BD
S31508002F800D460446C1F30747DDF8209008E0701C9B
S31508002F9006D0FEF70BFCA0EB0900B0420FD876B1BD
S31508002FA02068012F18D0806925EA00000004000C6B
S31508002FB014D000214145EAD00020BDE8F087002062
S31508002FC044F8300F20216173A073216941F0200174
S31508002FD0216120730120F0E74069E5E70121E9E76F
S31508002FE02DE9F0479A4691460E46044600254FF0CD
S31508002FF02008C1F3074725E020684069C04340051B
S3150800300014D42068016841F40071016021686FF4E6
S3150800301080604861256384F83D8084F83E50206CC2
S3150800302040F00400206484F83C501FE0B9F1FF3FEB
S3150800303008D0FEF7BBFBA0EB0A0149450CD8B9F14D
S31508003040000F09D02068012F13D0806926EA0000F6
S315080030500004000C0BD0CFE744F8305F84F80D80ED
S31508003060A573206940F02000206125730120BDE882
S31508003070F0874069EAE770B516460D4604460DE046
S315080030802046FFF7F1FE08B1012070BD681C05D087
S31508003090FEF78CFB801BA84207D835B1206840692B
S315080030A0C0430006ECD4002070BD002044F8300F61
S315080030B020216173A073216941F0200121612073E9
S315080030C0E2E700000D4808B5416941F00101416198
S315080030D04069002200F00100009011460C20FEF71E
S315080030E051FD0C20FEF740FD002211460F20FEF789
S315080030F049FDBDE808400F20FEF736BD0010024026
S315080031002DE9F04385B000242F48009401940294D9
S315080031100394816941F010018161816901F0100110
S315080031200491816941F020018161816901F02001E2
S315080031300491816941F004018161816901F004010A
S315080031400491816941F00801816180691F4F00F08F
S3150800315008004FF400550490002229463846FEF729
S3150800316020FBDFF86C80002203214046FEF719FB9E
S31508003170DFF86090002202214846FEF712FB012282
S3150800318011034846FEF70DFB009502260125039616
S31508003190CDE9015469463846FEF70CFA0320CDE915
S315080031A00005CDE9024669464046FEF703FA41F2B4
S315080031B00200CDE90005CDE9024669464846FEF714
S315080031C0F9F905B0BDE8F08300100240001001408F
S315080031D000080140000C01400D4810B50B4901607C
S315080031E00C49416000214FF480428160C0E9031216
S315080031F041618161C1610162FEF7DEFA002803D0F0
S31508003200BDE81040FEF743B810BD0000005400406A
S3150800321074000020A0860100104810B50E49016010
S315080032204FF482714160002102228160C0E90312D5
S3150800323001224261520282613022C0E907214162BD
S3150800324081620A21C162FEF74BFF002803D0BDE860
S315080032501040FEF71CB810BD0038004008030020D7
S3150800326010B586B00024164800940194029403947D
S3150800327004944FF08041059401604721C0E9011488
S315080032800921C0E9031480218161FFF777F908B1A4
S31508003290FDF7FDFF4FF48050009069460848FFF798
S315080032A0B6F908B1FDF7F3FF049404A90448059498
S315080032B0FFF743F9002801D0FDF7E9FF06B010BD76
S315080032C0600300200C4810B50A4901604FF41651F6
S315080032D04160002181600C22C160C0E9041281614D
S315080032E0C161FFF7CDFB002803D0BDE81040FDF70C
S315080032F0CEBF10BD00380140A00300200C4810B511
S315080033000A4901604FF41651416000218160082284
S31508003310C160C0E904128161C161FFF7B1FB0028F1
S3150800332003D0BDE81040FDF7B2BF10BD004800400D
S31508003330E0030020FEE7FEE770B5002404F1B000C4
S31508003340C0B200F027F8002000F024F8102000F0A2
S3150800335021F80025002000F02FF86D1CEDB2802D15
S31508003360F8D3641CE4B2082CE8D370BD10B58D20E0
S3150800337000F010F8142000F00DF8BDE81040AF205A
S3150800338000F008B810B5C820FEF702F9BDE81040ED
S3150800339000F0F2BA01B584B001214FF4807204A896
S315080033A08DE807000B46002278210248FEF7BEFA90
S315080033B005B000BD7400002001B584B001214FF4AA
S315080033C0807204A88DE807000B464022782102483F
S315080033D0FEF7ACFA05B000BD74000020704738B59A
S315080033E00B46009204460022802100F008F80028C7
S315080033F004D0606D40F020006065032038BD2DE9DB
S31508003400F0411D4617460E460446DDF8188008E0CA
S31508003410681C06D0FEF7CAF9A0EB0800A8420BD232
S3150800342055B12068806836EA000030D00020B842DE
S31508003430EED10020BDE8F0812068416821F0E00166
S3150800344041606068B0F5827F0BD1A068B0F5004F87
S3150800345002D0B0F5806F04D12068016821F04001E0
S315080034600160A06AB0F5005F09D12068016821F4FF
S31508003470005101602068016841F400510160012093
S3150800348084F85100002084F850000320D2E7012078
S31508003490CDE77047FEF710BB30B58FB028216846D8
S315080034A0FDF795F914210AA8FDF791F901210804F9
S315080034B0CDE900100024029402250491CDE90750B5
S315080034C04FF4E01009906846FEF77AFC08B172B628
S315080034D0FEE70F20CDE90A054FF48060CDE90C40E0
S315080034E002210AA80E94FEF77FFB002801D072B6C7
S315080034F0FEE70FB030BD00000D48016841F001013C
S31508003500016041680B4A1140416001680A4A11404E
S315080035100160016821F480210160416821F4FE01FF
S3150800352041604FF41F0181600449C0030860704779
S31508003530001002400000FFF8FFFFF6FE08ED00E06D
S315080035400148FFF7D0B8000060030020F0B5026814
S31508003550164B174C174D4FF08047984205D0B84286
S3150800356003D0A04201D0A84203D122F070064A68CF
S315080035703243984205D0B84203D0A04201D0A842AF
S3150800358003D122F44074CA6822434C6922F08002AF
S31508003590224302608A68C2620A688262984201D13E
S315080035A00969016301214161F0BD0000002C014059
S315080035B0000400400008004010B5846842EA03226F
S315080035C024F47F440A432243826010BD826822F0B5
S315080035D070020A4342F007018160704710B5036A1A
S315080035E0046A24F001040462846924F0F00444EABD
S315080035F0021423F00A020A438461026210BD10B560
S31508003600036A23F0100303628369046A23F4704390
S3150800361043EA023224F0A00343EA011182610162FF
S3150800362010BD10B5406A0021C185C184FFF777F93E
S3150800363010BD70B5446A2068406994F83910C0F323
S31508003640C0100025212904D118B1E584204600F0D0
S3150800365062F82068406994F83A10C0F3801022296D
S3150800366004D118B1E585204600F047F8E06B40F034
S315080036701000E0632046FFF752F970BD10B5014609
S31508003680406A09680968890613D40021C18501685A
S31508003690CA6822F48072CA6001684A6922F0010287
S315080036A04A6101684A6922F040024A61202180F88D
S315080036B03A10FFF705FB10BD10B5406AFFF701FB8E
S315080036C010BD10B50146406A0968096889060CD418
S315080036D00021C18401684A6922F080024A610068B3
S315080036E0C16841F04001C16010BDFFF789FB10BDFC
S315080036F010B5406AFFF7B6FB10BD0168CA6822F428
S315080037009072CA6001684A6922F001024A61202162
S3150800371080F83A1070470168CA6822F0C002CA6089
S31508003720202180F83910704710B590F83A102229F0
S3150800373001D0022010BD8168B1F5805F11D0016902
S31508003740002901681FD0496801F07F03816A4A1C75
S3150800375082620B70C18D491E0904090CC18518D0F7
S315080037602BE00269816A002A0268526805D0D2B243
S315080037700A80816A491C8162ECE7C2F308020A8062
S31508003780816A891CF7E74A68816A4B1C83620A705A
S31508003790E0E70168CA6822F02002CA600168CA68C0
S315080037A022F48072CA6001684A6922F001024A61FD
S315080037B0202180F83A10FFF783FA002010BD000098
S315080037C02DE9F041044600680169E26821F4405198
S315080037D0114301612169A0680843616908432168AA
S315080037E0CA6841F20C639A430243CA602068416979
S315080037F0A26921F44071114341611E49206864257C
S315080038003226884202D1FEF795FA01E0FEF782FADF
S3150800381000EBC00101EB001160686FF0180780002B
S31508003820B1FBF0F2B2FBF5F2B1FBF0F37A4303EB2E
S315080038308202B1FBF0F306EB0212B2FBF5F2B3FB20
S31508003840F5F302F0F00202EB0312B1FBF0F3B1FB61
S31508003850F0F0B0FBF5F0784303EB800006EB0010C0
S31508003860B0FBF5F0216800F00F0010448860BDE851
S31508003870F08100000038014090F83910212901D064
S31508003880022070478168B1F5805F016A0BD04A1C37
S315080038900262026809785160C18C491E0904090C44
S315080038A0C1840ED017E009880268C1F30801516087
S315080038B001690029016A02D0491C0162ECE7891CEA
S315080038C0FBE70168CA6822F08002CA600068C1681E
S315080038D041F04001C160002070472DE9F04198464B
S315080038E017460E460446069D1DE0681C1BD02DB1E2
S315080038F0FDF75CFFA0EB0800A84214D92068C16850
S3150800390021F4D071C1602068416921F0010141614B
S31508003910202084F8390084F83A00002084F838001A
S315080039200320BDE8F0812068006836EA000004D06C
S315080039300020B842D9D00020F3E70120F9E70000BB
S31508003940084808B500680168C943C90605D401686E
S31508003950406800900348FFF76BF8BDE80840014847
S31508003960FEF7DEBFA00300200148FEF7D9BF00001E
S31508003970E0030020FEE70000FEB50024094F4FF4DF
S31508003980807501263819CDE9000601230022782121
S3150800399002950548FDF7CAFF641CE4B21B2CF1D357
S315080039A0FEBD000040000020740000200907090E33
S315080039B0002804DB00F1E02080F80014704700F0CE
S315080039C00F0000F1E02080F8141D704730380A28EF
S315080039D001D2012070470020704770B5054638218E
S315080039E000F05AF804463921284600F055F844EA0A
S315080039F000243A21284600F04FF844EA004070BDFA
S31508003A0070B50C46054601220B2100F064F83F21EB
S31508003A10284600F041F8D42801D0012070BD44F0B2
S31508003A2050020121284600F056F8012205212846B1
S31508003A3000F051F801220C21284600F04CF800222B
S31508003A400A21284600F047F849223021284600F086
S31508003A5042F831221146284600F03DF8002232216C
S31508003A60284600F038F800223321284600F033F8BB
S31508003A7000223421284600F02EF8064901200022AB
S31508003A8008700B21284600F026F86420FDF780FD13
S31508003A90002070BD000000203EB5044641F08000BD
S31508003AA08DF8040000208DF8050021890022606841
S31508003AB0FDF777FE4FF0FF300090022302AA01A916
S31508003AC02068FEF733FC218901226068FDF769FE4C
S31508003AD09DF809003EBD38B5044601F07F008DF813
S31508003AE000008DF80120218900226068FDF759FE43
S31508003AF04FF0FF33022269462068FEF769FB2189E9
S31508003B0001226068FDF74DFE38BD0000FDF7DCFFB9
S31508003B10FFF7C2FCFFF7F4FAFFF7D4FAFFF7D2FB78
S31508003B20FFF79EFBFFF758FBFFF776FBFFF7E6FB71
S31508003B304B4C4A48A178402200EB81114948FFF7CF
S31508003B4073F848480068C16841F01001C160FFF782
S31508003B5019FCFFF70BFCFFF7EFFB04F11000FDF76C
S31508003B6066FB4148FEF742FD062104F13000FFF7E7
S31508003B7047FF4FF0FF354FF0010880B137483BA1AA
S31508003B808030FCF737FB35488030FCF794FD334925
S31508003B9082B22B4680313348FFF794F811E02F485C
S31508003BA03AA18030FCF726FB2C488030FCF783FDD1
S31508003BB02A4982B22B4680312A48FFF783F884F8CF
S31508003BC00080264F0626C037E088E8B33649B1FBA1
S31508003BD0F0F0608120780028F6D021483B2130306B
S31508003BE0FFF75AFF6070C007EED11D483030FFF767
S31508003BF0F4FE0246E0602079401CB0FBF6F106FBB5
S31508003C0011056079854207D02079134607EB8010A5
S31508003C1026A1FCF7EFFA2571E0780028D4D160795F
S31508003C2021798842D0D084F80380607907EB801028
S31508003C30FCF741FD82B2607907EB80111E48FFF759
S31508003C409FF86079401C00E005E0B0FBF6F106FB42
S31508003C5011006071B8E76089BBE70000C800002062
S31508003C6004000020A0030020600300204C444331D8
S31508003C7031303120496E697469616C697A6520460C
S31508003C8061696C65642E0D0A000000004C444331DE
S31508003C9031303120496E697469616C697A652044EE
S31508003CA06F6E652E0D0A0000A08601004C3D256C3E
S31508003CB0752C256C750D0A00E003002010B5002947
S31508003CC00AD00878002807D005487844FDF70AF98D
S31508003CD0002801D0002010BD0248784410BD00001D
S31508003CE0920000008A0000000000000000000000AA
S31508003CF00102030406070809000000000102030484
S31508003D003031323334353637383941424344454603
S31508003D1040305800303132333435363738396162FD
S31508003D2063646566403078000400000800000000FF
S31508003D300000000200010000100000006C3E0008B0
S31508003D40000000207400000028010008E03E00087A
S31508003D5074000020940A00004401000810010000C5
S31508003D6043000000F8FFFFFF00404040404040404D
S31508003D704040414141414140404040404040404030
S31508003D8040404040404040404005020202020202D4
S31508003D900202020202020202022020202020202023
S31508003DA02020200202020202020290909090909037
S31508003DB010101010101010101010101010101010F5
S31508003DC01010101002020202020288888888888869
S31508003DD00808080808080808080808080808080855
S31508003DE0080808080202020240000000000000005D
S31508003DF000000000000000000000000000000000B5
S31508003E0000000000000000000000000000000000A4
S31508003E100000000000000000000000000000000094
S31508003E200000000000000000000000000000000084
S31508003E300000000000000000000000000000000074
S31508003E400000000000000000000000000000000064
S31508003E500000000000000000000000000000000054
S31508003E600000000000000000000000000000000044
S31508003E7000000000000064000A00000000000000C6
S31508003E80000801400100000000080140020000008F
S31508003E90000C0140020000000000000000000000C5
S31508003EA008030020000C014000100000AE0010407E
S31508003EB0B081FFA1A6A83FC8D300D580D805D9F1FF
S31508003EC0DA12D8308D14AF000000000000000000A0
S31508003ED00024F400010000001000000000000000AB
S705080000ED05
