:020000040800F2
:1000000080080020B1010008EB290008B52700088E
:10001000E9290008AF0E0008F52E000800000000D6
:10002000000000000000000000000000CD2A0008D1
:100030008112000800000000ED290008CF2A000806
:10004000CB010008CB010008CB010008CB01000860
:10005000CB010008CB01000883120008CB01000887
:10006000CB010008CB010008CB010008CB01000840
:10007000CB010008CB010008CB010008CB01000830
:10008000CB010008CB010008CB010008CB01000820
:10009000CB010008CB010008CB010008CB01000810
:1000A000CB010008CB010008CB010008CB01000800
:1000B000792B0008CB010008CB010008CB01000818
:1000C000CB010008CB010008CB010008F129000892
:1000D000FD290008E92E0008CB010008CB0100082B
:1000E000CB010008CB010008CB01000800F002F8AA
:1000F00000F04EF80AA090E8000C82448344AAF174
:100100000107DA4501D100F043F8AFF2090EBAE871
:100110000F0013F0010F18BFFB1A43F0010318473B
:100120003831000058310000103A24BF78C878C137
:10013000FAD8520724BF30C830C144BF04680C60ED
:10014000704700000023002400250026103A28BF35
:1001500078C1FBD8520728BF30C148BF0B60704739
:10016000642900F08180752900F07E80782900F0F4
:10017000B780002070471FB500F044FE0400002047
:10018000002103F029F8401C60601FBD10B510BDB0
:1001900000F013FE1146FFF7EEFF02F059FF00F0EA
:1001A00035FE03B4FFF7F2FF03BC00F079FE000058
:1001B0000948804709480047FEE7FEE7FEE7FEE7FB
:1001C000FEE7FEE7FEE7FEE7FEE7FEE70448054937
:1001D000054A064B70470000312B0008ED0000086F
:1001E000800200208008002080040020800400207D
:1001F0000FB41CB5074B06AA7B44694600900598CE
:1002000000F027FB0020694600F036FB1CBC5DF8BF
:1002100014FB00007D06000070B504468569006887
:10022000C10601D5302600E02026C00707D070BDEA
:10023000D4E9012130469047206A401C20626D1E9F
:10024000F6D570BD70B5044685690078C00707D142
:1002500070BDD4E9012120209047206A401C206213
:100260006D1EF6D570BD00002DE9F0410646002454
:1002700010687529314616A510D0AFF3008000280C
:1002800002DA404213A507E031688A0701D512A5BA
:1002900002E0490704D511A5012401E0AFF3008075
:1002A00000210A2206F1240709E0B0FBF2FCB0FBB2
:1002B000F2F302FB1C00303078541846491C002829
:1002C000F3D123462A463046BDE8F04100F062BA39
:1002D000000000002D0000002B00000020000000A6
:1002E00070B504460D4621461068AFF300802188A2
:1002F000090502D50F4A7A4402E00E4A7A440E32CA
:10030000002104F1240305E000F00F060009965DCA
:100310005E54491C0028F7D120780023000704D53B
:10032000702D02D009B1022311322046BDE8704081
:1003300000F030BA222F00002DE9F05F8946044614
:100340004FF0000ADFF874B1FB44C0F820A020464B
:10035000E1688847002874D0252806D0D4E9012117
:100360009047206A401C2062F1E700265F46204645
:10037000E16888472028054607DB312D05D278192A
:1003800010F8200C08B10643F1E7B00701D526F0BC
:100390000406C4F81CA00027C4F818A02A2D09D010
:1003A000284602F0B8FD38B304EB8708303DC8F8A2
:1003B000185019E059F8041B204604EB870291619C
:1003C000E1688847012F054618D1E069002820DA46
:1003D00026F020061DE0D8F8180000EB800005EBA1
:1003E00040003038C8F818002046E16888470546C4
:1003F00002F091FD0028EED1012F0AD02E2D08D158
:100400002046E16888477F1C0546022F46F02006FB
:10041000C4DBA069002803DA404246F00106A0616F
:10042000F00701D026F010066C2D0BD0682D09D0F6
:100430004C2D39D06A2D35D0742D35D07A2D33D04E
:1004400016E038E0E1682F4620468847B842054666
:1004500009D16C2F26D04FF48060E1680643204616
:100460008847054604E06C2F1AD04FF4807006438D
:100470000DB3A5F14100192802D8203546F40066D5
:100480004A462946204626604E46FFF769FE80B15F
:1004900001280BD0F61D26F0070000F1080956E7E9
:1004A0004020E4E78020D8E70020D6E706F10409E1
:1004B0004DE7284652E7206ABDE8F09FF82E00007D
:1004C0000FB400B58DB010A9099000910B904FF0BA
:1004D000FF300A9000200C900648784406900648A9
:1004E00078446A4607900F9909A800F0DFF90DB02B
:1004F0005DF814FBEF030000070400002DE9FF5F27
:100500001D464FF0FF3B91464FF000085F46D5E98E
:100510000146A96901987F1C8847296A8246884755
:100520000028F6D1BAF1FF3F0CD0002E24F4C064AD
:1005300019DD600614D5BAF12B0F09D0BAF12D0FD1
:100540000ED103E0584604B0BDE8F09F44F4806447
:10055000A96901987F1C8847761E8246002E02DD1D
:10056000BAF1300F03D0B9F1000F26D032E0A969FB
:10057000761E01987F1C44F400748847002E824642
:1005800005DDBAF1780F06D0BAF1580F03D0B9F1F2
:10059000000F10D01EE0B9F1000F02D0B9F1100F1A
:1005A00018D1A969761E01987F1C24F4007488472D
:1005B0008246102002E0082000E00A20814609E07F
:1005C000A96908FB0908761E01987F1C44F4007491
:1005D00088478246002E05DD4946504600F051F915
:1005E0000028EDDAE96901988847A00502D46FF088
:1005F0000100A8E7E00725D1600613D5600502D504
:10060000C8F1000000E0404629680A1D2A60096818
:10061000220501D5087015E0220701D5088011E0F8
:1006200008600FE02868011D29600068210502D5D7
:1006300080F8008006E0210702D5A0F8008001E0E4
:10064000C0F8008038467EE770B5064600F09EF898
:100650000468054630460A22002100F057F92C6054
:1006600070BD10B5431C02E010F8011B71B1810789
:10067000FAD14FF0013202C88C1A8C4314EAC2112D
:10068000F9D0C01A0A0603D0C01E10BDC01A10BD92
:100690000A0401D0801E10BD0902FCD0401E10BD0E
:1006A00040EA010370B59B072ED14FF00136042AB2
:1006B0002AD308C810C99D1B9D43121F15EAC615F1
:1006C00017D0D8B2E1B2401A50EA056110D198B201
:1006D000A1B2401A50EA05410AD123F07F4024F02C
:1006E0007F41401A50EA052102D1180EA0EB146098
:1006F00070BDA342DBD018BA21BA884201D90120CB
:1007000070BD4FF0FF3070BD0AB9002070BD10F809
:10071000013B11F8014B63B1A3420AD1521E08D02C
:1007200010F8013B11F8014B1BB1A34201D1521E3D
:10073000EDD1181B70BD4FF0000200B51346944672
:100740009646203922BFA0E80C50A0E80C50B1F129
:100750002001BFF4F7AF090728BFA0E80C5048BF3D
:100760000CC05DF804EB890028BF40F8042B08BFDB
:10077000704748BF20F8022B11F0804F18BF00F8D7
:10078000012B704770477047704700000048704762
:100790001C0200202DE9F0470D469946924604467A
:1007A00000F124080168880604D5E06921F01001F1
:1007B000216000E00120A84201DD471B00E0002786
:1007C000A1697A1902EB0900081AA0612078C00615
:1007D00002D42046FFF720FD002608E0D4E90121DD
:1007E0001AF806009047206A401C761C20624E458D
:1007F000F4DB2078C0060AD52046FFF70DFD06E0A1
:10080000D4E9012130209047206A401C2062381E24
:10081000A7F10107F4DC07E0D4E9012118F805008D
:100820009047206A401C2062281EA5F10105F3DCD8
:100830002046FFF707FD2078000602D50220BDE81C
:10084000F0870120FBE7000001694A1C026108787B
:10085000704700B58FB0CDE9013100210591054900
:100860007944CDE9031011466846FFF765FD0FB0E6
:1008700000BD0000E5FFFFFF0A6802F8010B0A60F7
:1008800070473A2800D2303820F02002412A01D3A4
:10089000A2F13700884201D34FF0FF3070470000CB
:1008A000026811441378016018467047D160054909
:1008B0007944516104497944116200211161114662
:1008C00000F072B8EDFFFFFFDB000000426842B1AC
:1008D000016811F8013B23B1521EC0E9001218460D
:1008E00070470121C160881E704742685AB1C368D1
:1008F000016843B983688B4205D0491E521CC0E988
:100900000012002070474FF0FF3070472DE9F0478C
:1009100091460F4680460446002614F8015B2DB12F
:1009200000F030F80068405DC007F6D12B2D02D0F2
:100930002D2D18D0641E4A463946204600F0EEF9A7
:1009400027B13968A14201D1C7F800804FF00204F5
:1009500071050BD54042002803DDFFF717FF046047
:10096000A007BDE8F08746F48066E4E70028F8DADF
:10097000FFF70CFF04606FF00040F2E7004870479B
:100980001C02002010B500F03DFA001D10BD00BF94
:100990004928000010B50446FFF7F4FF0068005D29
:1009A00000F0010010BD00002DE9F34F4FF0000AE8
:1009B0000C4656468DB001200C9001F10C000B90B6
:1009C00062690B9801219047051E2DD0252D2CD052
:1009D000216A8847C0B162690B9801219047216A5A
:1009E00088470028F7D16269411E0B98904700E0C4
:1009F000761CA1690D988847216A88470028F7D19D
:100A0000E1690D988847DBE7A1690D988847A842FE
:100A1000074601D1761CD3E7E1690D9888477F1C12
:100A200002D1BAF1000F6FD06BE162690B98002719
:100A30003D46394690472A2804D162690B98012126
:100A400090470125DFF8D08262690B980121904719
:100A5000A0F130010A290AD24745E5DC07EB8701FE
:100A600000EB4107303FDFD445F01005ECE7E90625
:100A700001D46FF000476C280AD04C2814D06828A5
:100A800015D06A280DD074281CD07A281AD01DE001
:100A900062690B98012190476C2802D045F004054B
:100AA00014E045F002050DE045F020050AE062691A
:100AB0000B9801219047682802D045F0080505E011
:100AC00045F4006562690B9801219047C4E901571C
:100AD00065283DD019DC58287AD00CDC452837D061
:100AE00004DC252826D041289ED131E046282FD08D
:100AF000472899D12CE05B2877D0612828D063283B
:100B00007CD0642823D15AE0F6E06F2848D008DC76
:100B100066281DD067281BD0692821D06E2816D1E1
:100B200027E0702845D0732868D0752847D07828EA
:100B30000DD14DE0A1690D988847252805463FF461
:100B400069AFE1690D9888476D1C3FF46AAFD8E042
:100B50000D9923466A466FF00100AFF30080C5E0AF
:100B600045F0400023464FF000026060A80736D4ED
:100B70003EE0E8077FF447AF2068011D2160006870
:100B8000290501D506701BE7290701D5068017E75F
:100B9000A90703D5F117C0E9006111E706600FE767
:100BA00045F0400023464FF008026060A80716D4C5
:100BB0001EE040F60E0125EA0100606016E045F0F7
:100BC000400023464FF00A026060A80707D40FE0F8
:100BD00045F040006060A80708D5234610220D9913
:100BE0006FF00100AFF3008080E007E010222346A1
:100BF0000D996FF00100FFF781FC77E04FF00009DD
:100C000063284F46C8464B46CB4602D05B2806D0E9
:100C100038E0E80601D40120A060012732E06269D3
:100C2000D4F80CB00B98012190475E2807D14FF003
:100C3000010949466269D4F80CB00B9890472169C4
:100C400039B900210A4603AB43F82120491C082981
:100C5000FADBD8B3216949B308F1010862690B983E
:100C6000012190475D28F4D1B9F1000F09D000208F
:100C700003A951F82020D24341F82020401C082825
:100C8000F7DB03AB2069002820794FEA40701ED0C3
:100C90005B462246CDF80080CDE901970D990028EA
:100CA0006FF0010020DAAFF300801FE0C11703AA44
:100CB00000EBD1614B1121F01F0102EB8302411ABD
:100CC00013680120884003431360C7E719E00D99BA
:100CD000224600286FF00100009702DAAFF300808F
:100CE00004E0AFF3008001E0AFF3008000280ADAEF
:100CF000401C06D10C9820B14FF0FF300FB0BDE87A
:100D0000F08F5046FAE7E90701D10AF1010A0644DB
:100D100000200C9054E60000CCCCCC0C2DE9F05F08
:100D2000824615468B4600270AF10104B946007831
:100D3000302801D09DB113E014F8010B0127782869
:100D400003D0582801D045B10AE00DB1102D07D1CC
:100D5000002714F8010B102502E0082500E00A2501
:100D60000026B0460EE005FB080005FB06F1012752
:100D70001FFA80F801EB1046B6F5803F00D3B94664
:100D800014F8010B2946FFF77CFD0028EBDABBF1D4
:100D9000000F05D00FB1641E00E05446CBF80040B0
:100DA000B9F1000F06D0FFF7F1FC02210160C81E67
:100DB000BDE8F09F48EA0640FAE77546FFF7DEFD1A
:100DC000AE4605006946534620F00700854618B038
:100DD00020B5FFF7FBF9BDE820404FF000064FF0CB
:100DE00000074FF000084FF0000B21F00701AC4660
:100DF000ACE8C009ACE8C009ACE8C009ACE8C0097F
:100E00008D467047004870473C02002010B50446EC
:100E1000AFF300802046BDE81040FFF7C2B90000E4
:100E20004FF0013C50F8042B51F8043B9A4221D179
:100E3000A2EB0C03934313EACC1317D150F8042B05
:100E400051F8043B9A4215D1A2EB0C03934313EAE9
:100E5000CC130BD150F8042B51F8043B9A4209D122
:100E6000A2EB0C03934313EACC13DBD04FF000004A
:100E7000704700BFD01A01BAB1FA81F101F0180130
:100E800022FA01F0CB40C1F12001DBB2C0B2C01A9E
:100E90002CFA01F3D11A914311EAC311E6D170473C
:100EA00001491820ABBEFEE7260002007047FEE7AE
:100EB0002DE9F04387B0032283A18448FFF7F0FBBC
:100EC000824FDFF80C82834C4FF400564FF0FF3511
:100ED00000282BD0032280A13846FFF7E1FB002831
:100EE0002FD007227DA13846FFF7DAFB002837D044
:100EF00007227CA13846FFF7D3FB002864D00922E3
:100F00007AA13846FFF7CCFB00285ED005227AA1F3
:100F10003846FFF7C5FB002863D0092278A1384680
:100F2000FFF7BEFB794C002870D071E0F81CFFF78A
:100F30008BFBA0803146404600F004FBA28874A1E0
:100F400009E0F81CFFF780FB60803146404600F066
:100F5000F9FA628873A15D484030FFF749F9A1E0D2
:100F60005A4876A14030FFF743F958484030FFF720
:100F700078FB564982B22B464031764801F0BCFBE3
:100F80000520608041F288394FF47A77484600F0B6
:100F9000C9F94E48628870A14030FFF729F94B48E3
:100FA0004030FFF75EFB494982B22B464031694829
:100FB00001F0A2FB6088401D80B26080B842E5D994
:100FC0003146404600F0BEFA77E03146404600F038
:100FD000B9FA40483F21083002F000F8024662A109
:100FE000B9E76A4667A1781DFFF76AFA39489DF8A4
:100FF0000010083001F0F2FF034634489DF800204D
:1010000062A14030FFF7F4F84CE0FFE7207830B100
:10101000092263A12D48FFF743FBF8B14DE03146AB
:10102000404600F08FFA2B482021143001F0D6FF03
:1010300002AF00F00104C0F34003C0F38002C0F32C
:10104000C00187E81E00C0F30012C0F34011CDE9D3
:101050000012C209C0F3801354A11FE0207860B3CE
:101060003146404600F06EFA1A483B21143001F038
:10107000B5FF02AF00F00104C0F34003C0F38002EB
:10108000C0F3C00187E81E00C0F30012C0F3401196
:10109000CDE90012C209C0F380134FA10B484030C4
:1010A000FFF7A6F809484030FFF7DBFA074982B29C
:1010B0002B464031274801F01FFB07B04021BDE817
:1010C000F0430248FFF737BB44523A006C0000205F
:1010D000001001400400002046523A0046522053BE
:1010E00063616E004452205363616E005350492087
:1010F000436865636B000000526561643A0000005C
:1011000052504C20436865636B00000000000020D3
:1011100050574D5F44522073657420746F202564CE
:101120000D0A000050574D5F4652455120736574BB
:1011300020746F202564487A0D0A0000467265719C
:1011400075656E6379205363616E20626567696EB1
:101150002E0D0A00DC01002050574D5F46524551CC
:101160003A2564487A0D0A004C444331313031202D
:101170004465766963652049443A203078253032E9
:10118000580D0A0025686878000000005B3078255B
:101190003032585D203D203078253032580D0A001D
:1011A0004C485220436865636B00000052502B4C42
:1011B000204D6561737572656D656E742053746141
:1011C0007475733A20256425642564256425642597
:1011D00064256425640D0A004C4852204D656173F6
:1011E0007572656D656E74205374617475733A2001
:1011F00025642564256425642564256425642564A7
:101200000D0A00002DE9F043DDE90854DDE90D7613
:10121000DDF830C0DDF83C90DDF81C800160828094
:101220008360A0F80C800561848285618483C0F8A6
:1012300020C087848662A0F82C90BDE8F08310B5AA
:10124000044681880068012200F083F9A189A06822
:10125000BDE81040002200F07CB910B5044681883A
:101260000068002200F075F9A189A068BDE810406F
:10127000012200F06EB9818C006A012200F069B988
:101280007047012000F062B872B6FEE710B590F822
:1012900021100024022903D00421816301243DE0B0
:1012A00001680A6822F00E020A6001680A6822F0EA
:1012B00001020A601A4A0168914201D1012121E02C
:1012C000174A1432914201D110211BE0144A2832EE
:1012D000914201D1891515E0114A3C32914201D168
:1012E00089140FE00E4A5032914202D14FF48031FE
:1012F00008E00B4A6432914202D14FF4801101E0C0
:101300004FF08071064A083A5160012180F821109F
:10131000002180F82010416B01B18847204610BDA4
:101320000800024070B5044600F018F90546601C3C
:1013300002D004480078044400F010F9401BA04299
:10134000FAD370BD2C00002070470000044910B58E
:101350000A68024202D00860FFF7F6FF10BD0000E5
:10136000140401402DE9F84FDFF8B891002409F189
:10137000040A0AF1040B23460F270BF1040EC9E0FF
:101380000125A5402A40AA427DD1674ED1F804C06C
:10139000ACEB0608B44532D014DCBCF1030F3AD0F4
:1013A00009DCBCF1000F2AD0BCF1010F1CD0BCF14C
:1013B000020F31D11DE0BCF1110F17D0BCF1120F9B
:1013C0002AD119E0B8F5881F19D006DCB8F5803F9E
:1013D00015D0B8F5801F1FD111E0B8F5001F0ED051
:1013E000B8F5041F18D10AE0CB6815E0CB681B1DC7
:1013F00012E0CB6808330FE0CB680C330CE08B684D
:101400002BB1012B4FF0080303D0456104E0042306
:1014100002E0056100E00023FF2A01D8064601E052
:1014200000F104064FEA840501D9A5F12005D6F89C
:10143000008007FA05FC28EA0C0803FA05F548EADB
:101440000508C6F800804D68ED0062D5374DAE69DD
:1014500046F00106AE61AD6924F0030605F0010512
:101460000095334D06EB050CDCF80850A607360F47
:1014700007FA06F825EA0805DFF8B880404503D1E9
:101480004FF0000817E044E0DFF8AC80404502D19F
:101490004FF001080FE0DFF8A480404502D14FF083
:1014A000020808E0DFF89880404502D14FF00308B9
:1014B00001E04FF0040808FA06F848EA0508CCF8FD
:1014C00008804D68D9F80060ED034D4601D51643FC
:1014D00000E096432E604D68DAF80060AD03554693
:1014E00001D5164300E096432E604D68DBF800609E
:1014F000ED025D4601D5164300E096432E604D682F
:10150000DEF80060AD02754601D5164300E0964353
:101510002E60641C0D682A46E5407FF431AFBDE8BB
:10152000F88F00000004014000001110001002407C
:101530000000014000080140000C01400010014083
:1015400000140140C2680A4201D041617047016144
:1015500070470AB1016170470904FBE701488068E0
:10156000704700002C000020024881680278114476
:10157000816070472C000020074810B5016841F0D9
:1015800010010160032000F075F80F2000F006F84C
:1015900000F024F8002010BD0020024070B50D4D71
:1015A00004464FF47A712878B1FBF0F00A490968D3
:1015B000B1FBF0F000F0ABFD48B9102C07D20022CF
:1015C0002146501E00F036F800206C6070BD0120EE
:1015D00070BD00002C000020380000200C4808B529
:1015E000816941F001018161816901F0010100918E
:1015F000C16941F08051C161C06900F08050009024
:101600000448416821F0E06141F00071416008BD8B
:101610000010024000000140002809DB00F01F021A
:10162000012191404009800000F1E020C0F8001144
:1016300070470000F0B40E4B1B680C46C3F3022346
:10164000C3F10705042D00D90425191D072901D26E
:10165000002300E0DB1E012606FA05F1491E2140A9
:1016600099409E40761E16403143F0BC01F043BCC9
:101670000CED00E0064900F0070208684FF6FF0392
:10168000184040EA0220034A1043086070470000F7
:101690000CED00E00000FA052DE9F0470F460500CB
:1016A00061D0434E306800F00700B84209D230687C
:1016B00020F0070038433060306800F00700B8427F
:1016C00051D128683B4C810712D5400703D560688B
:1016D00040F4E06060602878000703D5606840F45B
:1016E000605060606068A96820F0F00008436060A6
:1016F0002878C00728D06868012810D021680228FF
:1017000010D0890700292EDA616821F00301014316
:101710006160FFF723FF804641F288390DE02168C0
:101720008903EFE78901EDE7FFF718FFA0EB080158
:10173000494502D90320BDE8F0876068696800F078
:101740000C00B0EB810FEFD1306800F00700B84219
:101750000BD9306820F0070038433060306800F063
:101760000700B84201D00120E5E72878400705D5F9
:101770006068E96820F4E06008436060287800074A
:1017800006D56068296920F4605040EAC1006060B5
:1017900000F038F86168084AC1F30311515CC84091
:1017A0000649086006480068FFF7F8FE0020C2E717
:1017B00000200240001002400432000838000020DF
:1017C000300000200448054900684968044AC1F314
:1017D0000221515CC84070473800002000100240D0
:1017E000143200080448054900684968044AC1F3F6
:1017F000C221515CC84070473800002000100240F0
:101800001432000812A185B00FC98DE80F0014A092
:10181000144A006804905168134801F00C03042B2B
:1018200010D0082B0ED1C1F38343C9031DF8030068
:101830000AD5516804AAC1F34041515C0A4A504399
:10184000B0FBF1F005B0704708494843FAE70000E3
:1018500002030405060708090A0B0C0D0E0F1010F1
:10186000010200000010024000127A0000093D0051
:101870002DE9F84F040070D02078C04DC00749D042
:101880006868C0F38100012807D06868C0F3810050
:10189000022809D16868C00306D52868800339D5B5
:1018A00060680028E7D035E06068B0F5803F0BD075
:1018B00010B1B0F5A02F11D0286820F48030286036
:1018C000286820F4802002E0286840F480302860F6
:1018D000606890B1FFF742FE06460AE0286840F4CF
:1018E00080202860F0E700BFFFF738FE801B6428E7
:1018F00073D828688003F7D50CE0FFF72FFE064663
:1019000005E000BFFFF72AFE801B6428F0D8286896
:101910008003F7D420789A4E80074FF001094FF0EA
:10192000000839D5686810F00C0F07D06868C0F35C
:101930008100022809D16868C00306D4286880079E
:1019400014D52069012808D110E02069B0B1C6F88B
:101950000090FFF703FE074605E00AE1FFF7FEFDF2
:10196000C01B0228C4D828688007F7D52868616999
:1019700020F0F80040EAC10028600DE0C6F80080C1
:10198000FFF7ECFD074604E0FFF7E8FDC01B022867
:1019900023D828688007F7D4207800072CD5794809
:1019A000A169D9B1C0F80090FFF7D8FD074604E05F
:1019B000FFF7D4FDC01B02280FD8686A8007F7D54F
:1019C00071484FF4FA510068B0FBF1F0009000BF8D
:1019D0000098411E0091FAD20EE080E0C0F800802D
:1019E000FFF7BCFD074604E0FFF7B8FDC01B022867
:1019F00075D8686A8007F7D42078400760D5E86911
:101A00000027C00008D4E86940F08050E861E86928
:101A1000012700F0805000905C480168C90513D48C
:101A20000168834641F480710160FFF797FD8246AB
:101A300006E000BFFFF792FDA0EB0A0064284ED835
:101A4000DBF80000C005F5D5E06801280AD008B130
:101A5000052813D0286A20F001002862286A20F0A7
:101A6000040002E0286A40F001002862E06841F2C8
:101A7000883B98B1FFF772FD82460BE0286A40F080
:101A800004002862EEE700BFFFF768FDA0EB0A0143
:101A900059455AD8286A8007F6D50CE0FFF75EFD55
:101AA000824605E0FFF75AFDA0EB0A0159454CD8E4
:101AB000286A8007F6D41FB1E86920F08050E861F9
:101AC000E06988B36968C1F38101022944D0022822
:101AD000C6F8608004D0FFF741FD044638E034E0EA
:101AE000FFF73CFD074604E0FFF738FDC01B022866
:101AF0002BD828688001F7D4206AB0F5803F05D143
:101B00006868A16820F4003008436860D4E90801DF
:101B10000843696821F4741108436860C6F860904E
:101B2000FFF71CFD044606E025E000BFFFF716FDA9
:101B3000001B022809D828688001F7D51BE000BFE8
:101B4000FFF70CFD001B022802D90320BDE8F88F27
:101B500028688001F4D40EE00128F7D06868226A72
:101B600000F48031914204D1616A00F4701088421F
:101B700001D00120EAE70020E8E700000010024061
:101B800000004242800442423800002000700040C1
:101B90007047000038B50446006842688168C94350
:101BA0004B0606D5CB0704D1D3435B0601D4216C89
:101BB00005E08B0708D4D3431B0605D4616C01B044
:101BC0002046BDE8304008478B0601D54B0646D479
:101BD000D3439B0643D44B060AD494F85130032BCD
:101BE0003ED0636D43F004036365C368836800936C
:101BF000890609D4616D41F0010161658168009138
:101C0000016821F040010160606D002827D0206844
:101C1000416821F0E0014160012084F85100900703
:101C200022D02068416821F003014160104DE06C32
:101C300040B14563E06CFFF729FB18B1606D40F0DF
:101C400040006065A06C002809D04563A06CFFF7D8
:101C50001DFB002803D0606D40F04000606538BD7A
:101C6000C1688068009038BD2046FFF791FF38BDFD
:101C7000092A000870B5040005D00025A56294F873
:101C8000510010B106E0012070BD84F8505020468C
:101C900000F02EF8022084F851002068016821F03D
:101CA00040010160D4E901010843D4E90312114362
:101CB000084361690843218B01F400710843E1691D
:101CC0000843216A0843A16A084321680860A069A3
:101CD000042101EA1040216848602068C16921F4AC
:101CE0000061C1616565012084F85100002070BD6C
:101CF00030B585B0002400940194029403942F4DD4
:101D000003682F4802210322AB4227D1836943F4A1
:101D100080538361836903F480530493836943F0A0
:101D2000040383618069274D00F004000490A02023
:101D3000CDE90001039269462846FFF713FB4020D6
:101D4000CDE90004694628460294FFF70BFB002208
:101D500011462320FFF76EFC23202BE01A4DAB42E7
:101D60002AD1C36943F48043C361C36903F4804348
:101D70000493836943F0080383618069134D00F085
:101D8000080004904FF42040CDE900010392694619
:101D90002846FFF7E7FA4FF48040CDE90004694692
:101DA00028460294FFF7DEFA002211462420FFF7AE
:101DB00041FC2420FFF730FC05B030BD003001406D
:101DC000001002400008014000380040000C0140B3
:101DD0002DE9F84F044690F8500000271D4616469E
:101DE000894601280DD04FF0010B84F850B0FFF761
:101DF000B5FB804694F85100BA46012804D002276A
:101E00008EE00220BDE8F88FB9F1000F7DD0002EE2
:101E10007BD0032084F85100C4F854A0C4F830905B
:101E2000A686E686C4F838A0A4F83CA0A4F83EA094
:101E3000C4F844A0C4F840A0A068B0F5004F04D195
:101E40002068016841F4804101602068016849060A
:101E500003D4016841F040010160E068B0F5006F13
:101E6000606803D030B3012E24D040E008B1012EC9
:101E70001CD1206B21680088C86006E0206881685A
:101E8000890709D5216B0988C160206B801C2063FC
:101E9000E08E401EE08609E0FFF760FBA0EB080043
:101EA000A84202D3681C01D031E07DB3E08E002847
:101EB000E4D11FE0206B21680078087306E02068F9
:101EC0008168890709D5216B09780173206B401C53
:101ED0002063E08E401EE08609E0FFF73FFBA0EBA9
:101EE0000800A84202D3681C01D010E075B1E08E52
:101EF0000028E4D142462946204600F08DFD08B175
:101F000020206065A06820B107E008E0FFE7032714
:101F100006E02068C16880680090606D00B101270C
:101F200084F851B084F850A038466BE72DE9F84F9B
:101F3000044690F8500000270A9E1D4692468B46A4
:101F40004FF0010901280ED0012084F85000FFF75E
:101F500005FB804694F85100616801280CD0B1F56A
:101F6000827F07D102E00220BDE8F88FA16809B99D
:101F7000042801D00227C2E0BBF1000F27D0BAF13C
:101F8000000F24D01DB394F85100042802D005207E
:101F900084F8510000206065C4F838A0E587A58763
:101FA000C4F830B0E586A5862064606420680168C6
:101FB000490603D4016841F040010160E068B0F5D2
:101FC000006F606805D0E8B3012D46D07FE001279F
:101FD00095E008B1012D39D1206B21680088C860D7
:101FE000206B801C2063E08E401EE0862EE020687F
:101FF000816889070FD5E18E69B1B9F1010F0AD166
:10200000216B0988C160206B801C2063E08E401E1C
:10201000E0864FF0000920688168C9070CD0E18F85
:1020200051B1C068A16B0880A06B801CA063E08FD9
:10203000401EE0874FF00109FFF790FAA0EB08007F
:10204000B04200E009E001D3701C50D1E08E0028BE
:10205000CDD1E08F0028CAD13FE0206B2168007805
:102060000873206B401C2063E08E401EE0862EE04B
:102070002068816889070FD5E18E69B1B9F1010F38
:102080000AD1216B09780173206B401C2063E08E1C
:10209000401EE0864FF0000920688168C9070CD017
:1020A000E18F51B1C068A16B0870A06B401CA063A8
:1020B000E08F401EE0874FF00109FFF74FFAA0EBD9
:1020C0000800B04202D3701C01D010E07EB1E08E57
:1020D0000028CDD1E08F0028CAD1424631462046A3
:1020E00000F09AFC28B101272020606507E0032753
:1020F00005E0A06818B92068C168806800900120D8
:1021000084F85100002084F8500038462CE710B5C0
:10211000401EB0F1807F01D3012010BD4FF0E024BC
:1021200060610F21601700F0E6FE0020A06107202B
:102130002061002010BD7047704770B590F83C20BA
:10214000012A19D0012400F83C4F0222427050F8B5
:102150003C3C5A689D6822F070060A684968324320
:1021600025F0800529435A6050F83C2C916044705A
:1021700000210170084670BD022070BD10B504003A
:1021800003D094F83D0010B107E0012010BD0020FD
:1021900084F83C00204600F00DF8022084F83D0051
:1021A000211D206800F014FD012084F83D0000206E
:1021B00010BD000008B50068B0F1804F12D10A4888
:1021C000C16941F00101C161C069002200F0010054
:1021D000009011461C20FFF72DFABDE808401C2096
:1021E000FFF71ABA08BD0000001002400168CA6873
:1021F00042F00102CA600068816801F00701062907
:1022000003D0016841F0010101600020704770B502
:10221000044690F83C00012817D0012584F83C5072
:10222000022084F83D002068826822F0770222F4C0
:102230007F4282600868502830D00DDC20284DD0C5
:1022400005DC98B310283BD148E0022070BD30284F
:1022500044D0402834D139E0602828D0702806D0F6
:10226000B0F5805F2CD0B0F5005F29D10AE0CB68D3
:10227000D1E90121206800F0E1FC2068816841F08B
:10228000770109E0CB68D1E90121206800F0D6FC94
:102290002068816841F48041816011E0CA68496822
:1022A000206800F0DDFC5021206807E016E0CA68D5
:1022B0004968206800F0E5FC6021206800F0C8FC57
:1022C00084F83D50002084F83C0070BDCA6849681D
:1022D000206800F0C5FC40212068EFE72268014635
:1022E0001046EBE7704770B50446006801694FF08F
:1022F0000005C943890715D4C168C943890711D4AA
:10230000E91E01610120207720688069800720464E
:1023100002D0FFF7E7FF04E000F098F8204600F055
:1023200096F8257720680169C943490717D4C16821
:10233000C943490713D46FF00401016102202077DB
:102340002068806910F4407F204602D0FFF7CAFF62
:1023500004E000F07BF8204600F079F8257720684B
:102360000169C943090716D4C168C943090712D4D2
:102370006FF008010161042020772068C0698007A0
:10238000204602D0FFF7AEFF04E000F05FF82046E1
:1023900000F05DF8257720680169C943C90617D4A4
:1023A000C168C943C90613D46FF010010161082048
:1023B00020772068C06910F4407F204602D0FFF7E4
:1023C00091FF04E000F042F8204600F040F8257745
:1023D00020680169C943C90708D1C168C943C90751
:1023E00004D1891E0161204600F032F8206801699D
:1023F000C943090609D4C168C943090605D46FF069
:10240000800101612046FFF796FE20680169C943FB
:10241000490609D4C168C943490605D46FF0400193
:102420000161204600F015F820680169C94389065A
:102430000BD4C168C943890607D46FF0200101613C
:102440002046BDE87040FFF777BE70BD704770470B
:10245000704770477047000070B502680446106806
:10246000D168536910F00F0F50D003F0010501F44B
:10247000907635435DD0C20705D0CA0503D5E26B1F
:1024800042F00102E263420705D5DA0703D0E26BAE
:1024900042F00202E263820705D5DA0703D0E26B5D
:1024A00042F00402E263020705D5DA0703D0E26BCB
:1024B00042F00802E263E26B002A33D0800604D5C2
:1024C000880602D5204600F004FC20684069E16BD4
:1024D000C0F38010090700D428B3204600F0EBFBBE
:1024E0002068416949061AD5416921F040014161DE
:1024F000606BA0B11B494163606BFEF7C7FE00280B
:1025000010D0606B416BBDE870400847830610D562
:102510008B060ED52046BDE8704000F0DABB2046A1
:10252000FFF798FF70BD2046FFF794FF0020E0639F
:1025300070BD030606D50B0604D52046BDE87040E5
:1025400000F06EBC4006F3D54806F1D5D1682046B0
:1025500021F04001D160202184F8391000F029F9E0
:1025600070BD0000A72C000870B5040004D094F8DA
:102570003900002510B106E0012070BD84F8385004
:10258000204600F023F8242084F839002068C16830
:1025900021F40051C160204600F0E6FB206801698B
:1025A00021F4904101612068416921F02A014161D3
:1025B0002068C16841F40051C160E563202084F8BF
:1025C000390084F83A00002070BD000030B585B0B5
:1025D00000240094019402940394006818498842EE
:1025E0002CD11848816941F480418161816901F4ED
:1025F00080410491816941F0040181618069124D3B
:1026000000F0040004904FF400700090022001904C
:102610000320039069462846FEF7A4FE2815CDE95D
:102620000004694628460294FEF79CFE00221146EB
:102630002520FEF7FFFF2520FEF7EEFF05B030BD99
:1026400000380140001002400008014090F83A3084
:10265000202B22D1F9B1F2B190F83830012B1CD0E7
:1026600081628285C2850021C163222280F83A20DE
:1026700080F838100168CA6842F48072CA60016844
:102680004A6942F001024A610068C16841F02001D4
:10269000C160002070470120704702207047000091
:1026A00070B500680F4988421AD10F48104C0F4A84
:1026B000017820780A290DD00D290BD03F2802D2AD
:1026C0001154401C2070BDE87040012206490948A1
:1026D000FFF7BCBF00251554FEF7EAFB2570F2E7B3
:1026E00070BD000000380140040000206C00002094
:1026F00024000020DC0100202DE9F843044690F876
:1027000039001F4616460D46202850D1A5B19EB16E
:1027100094F8380001284AD0012084F838004FF09E
:102720000008C4F83C80212084F83900FEF716FF29
:10273000A6848146E68426E00120BDE8F883E08C8B
:10274000401EE084A0684B46B0F5805F4FF0000269
:102750004FF080012046009703D000F092FBE8B9CB
:102760000DE000F08EFBC8B928882168C0F308008E
:102770004860206908B16D1C05E0AD1C03E02168CC
:1027800015F8010B4860E08C0028D8D14B46002298
:1027900040212046009700F074FB08B10320CCE7ED
:1027A000202084F8390084F838800020C5E7022012
:1027B000C3E77047FEE700002DE9F04786B000242C
:1027C00039480094019402940394816941F0100106
:1027D0008161816901F010010491816941F020015A
:1027E0008161816901F020010491816941F0040156
:1027F0008161816901F004010491816941F008015E
:1028000081618069DFF8A48000F008004FF4005572
:102810000490002229464046FEF79BFEDFF8909088
:1028200000221F214846FEF794FEDFF888A041F2FF
:102830000207002239465046FEF78BFE009502261D
:1028400001250396CDE9015469464046FEF78AFD0D
:102850001F20CDE90005CDE9024669464846FEF74E
:1028600081FD15486946CDE9005050460295FEF7B6
:1028700079FD00970396CDE9015469465046FEF76D
:1028800071FD04208DE8510069465046FEF76AFD4F
:10289000002211460620FEF7CDFE0620FEF7BCFE04
:1028A00006B0BDE8F08700000010024000100140B3
:1028B00000080140000C014000002110104810B534
:1028C0000E4901604FF48271416000210222816053
:1028D000C0E9031201224261520282613822C0E93A
:1028E0000721416281620A21C162FFF7C3F9002812
:1028F00003D0BDE81040FEF7C7BC10BD003001405A
:10290000EC000020104810B50E4901604FF48271B0
:102910004160002102228160C0E90312012242616C
:10292000520282613022C0E90721416281620A219C
:10293000C162FFF79FF9002803D0BDE81040FEF701
:10294000A3BC10BD003800404401002010B586B083
:1029500000241648009401940294039404944FF0C8
:102960008041059401604721C0E901140921C0E9B3
:10297000031480218161FFF701FC08B1FEF784FC9C
:102980004FF48050009069460848FFF740FC08B1BA
:10299000FEF77AFC049404A904480594FFF7CDFBE4
:1029A000002801D0FEF770FC06B010BD9C0100208D
:1029B0000C4810B50A4901604FF4165141600021DE
:1029C00081600C22C160C0E904128161C161FFF71E
:1029D000CBFD002803D0BDE81040FEF755BC10BD6C
:1029E00000380140DC010020FEE7FEE770470000F0
:1029F0000148FFF7CFB80000EC0000200148FFF7C6
:102A0000C9B800004401002010B5406A0021C18708
:102A1000C186FFF7BDF810BD38B50B4600920446DD
:102A20000022802100F008F8002804D0606D40F0FA
:102A300020006065032038BD2DE9F0411D46174692
:102A40000E460446DDF8188008E0681C06D0FEF744
:102A500085FDA0EB0800A8420BD255B12068806824
:102A600036EA000030D00020B842EED10020BDE8A8
:102A7000F0812068416821F0E00141606068B0F5B4
:102A8000827F0BD1A068B0F5004F02D0B0F5806F07
:102A900004D12068016821F040010160A06AB0F50E
:102AA000005F09D12068016821F4005101602068AD
:102AB000016841F400510160012084F851000020B8
:102AC00084F850000320D2E70120CDE77047FEF7DD
:102AD0004BBD30B58FB028216846FDF72CFE142180
:102AE0000AA8FDF728FE01210804CDE90010002402
:102AF000029402250491CDE907504FF4E0100990AB
:102B00006846FEF7B5FE08B172B6FEE70F20CDE9C4
:102B10000A054FF48060CDE90C4002210AA80E940A
:102B2000FEF7BAFD002801D072B6FEE70FB030BD47
:102B30000D48016841F00101016041680B4A1140F4
:102B4000416001680A4A11400160016821F4802156
:102B50000160416821F4FE0141604FF41F01816072
:102B60000449C00308607047001002400000FFF8ED
:102B7000FFFFF6FE08ED00E010B510481049642292
:102B8000008809880F4C4143B1FBF2F261688A4228
:102B900003D90D48FEF753FB04E081420AD20A48EC
:102BA000FEF75BFB6068401C6060BDE810400748B2
:102BB000FFF799BB00206060EBE700000A000020EF
:102BC00008000020240000203C0000209C01002080
:102BD000F0B50268164B174C174D4FF080479842DE
:102BE00005D0B84203D0A04201D0A84203D122F0C0
:102BF00070064A683243984205D0B84203D0A042DA
:102C000001D0A84203D122F44074CA6822434C691F
:102C100022F08002224302608A68C2620A688262ED
:102C2000984201D10969016301214161F0BD0000B1
:102C3000002C0140000400400008004010B58468EA
:102C400042EA032224F47F440A432243826010BDF7
:102C5000826822F070020A4342F0070181607047E7
:102C600010B5036A046A24F001040462846924F044
:102C7000F00444EA021423F00A020A438461026267
:102C800010BD10B5036A23F0100303628369046A60
:102C900023F4704343EA023224F0A00343EA011113
:102CA0008261016210BD10B5406A0021C185C184F6
:102CB000FFF7D0FB10BD0168CA6822F49072CA60A9
:102CC00001684A6922F001024A61202180F83A1025
:102CD000704710B590F83A10222901D0022010BD9B
:102CE0008168B1F5805F11D00169002901681FD0AA
:102CF000496801F07F03816A4A1C82620B70C18DB2
:102D0000491E0904090CC18518D02BE00269816AAB
:102D1000002A0268526805D0D2B20A80816A491C32
:102D20008162ECE7C2F308020A80816A891CF7E736
:102D30004A68816A4B1C83620A70E0E70168CA68CE
:102D400022F02002CA600168CA6822F48072CA6058
:102D500001684A6922F001024A61202180F83A1094
:102D6000FFF79EFC002010BD2DE9F04104460068ED
:102D70000169E26821F44051114301612169A068B1
:102D80000843616908432168CA6841F20C639A43A9
:102D90000243CA6020684169A26921F4407111436D
:102DA00041611E49206864253226884202D1FEF71F
:102DB00019FD01E0FEF706FD00EBC00101EB00117B
:102DC00060686FF018078000B1FBF0F2B2FBF5F21B
:102DD000B1FBF0F37A4303EB8202B1FBF0F306EBB5
:102DE0000212B2FBF5F2B3FBF5F302F0F00202EBD4
:102DF0000312B1FBF0F3B1FBF0F0B0FBF5F0784358
:102E000003EB800006EB0010B0FBF5F0216800F04A
:102E10000F0010448860BDE8F081000000380140D8
:102E200090F83910212901D0022070478168B1F54E
:102E3000805F016A0BD04A1C026202680978516007
:102E4000C18C491E0904090CC1840ED017E0098801
:102E50000268C1F30801516001690029016A02D0CA
:102E6000491C0162ECE7891CFBE70168CA6822F093
:102E70008002CA600068C16841F04001C160002062
:102E800070472DE9F041984617460E460446069DC8
:102E90001DE0681C1BD02DB1FEF760FBA0EB080005
:102EA000A84214D92068C16821F4D071C16020689B
:102EB000416921F001014161202084F8390084F842
:102EC0003A00002084F838000320BDE8F081206833
:102ED000006836EA000004D00020B842D9D00020B3
:102EE000F3E70120F9E700000148FFF7B5BA000059
:102EF000DC010020FEE70907090E002804DB00F1D1
:102F0000E02080F80014704700F00F0000F1E0208E
:102F100080F8141D704730380A2801D2012070470C
:102F20000020704770B50546382100F057F8044678
:102F30003921284600F052F844EA00243A21284674
:102F400000F04CF844EA004070BD000070B50C463B
:102F5000054601220B2100F060F83F21284600F0D1
:102F60003DF8D42801D0012070BD44F05002012169
:102F7000284600F052F801220521284600F04DF8BD
:102F800001220C21284600F048F8A0220A212846F8
:102F900000F043F849223021284600F03EF8012293
:102FA0003121284600F039F800223221284600F06D
:102FB00034F800223321284600F02FF80022342173
:102FC000284600F02AF80449012008706420FEF722
:102FD000A9F9002070BD0000000000203EB50446A5
:102FE00041F080008DF8040000208DF80500218953
:102FF00000226068FEF7ADFA4FF0FF300090022328
:1030000002AA01A92068FEF791FF218901226068C8
:10301000FEF79FFA9DF809003EBD38B5044601F061
:103020007F008DF800008DF8012021890022606862
:10303000FEF78FFA4FF0FF33022269462068FEF751
:10304000C7FE218901226068FEF783FA38BD0000BF
:103050008AB0FEF791FAFFF73CFDFFF7ADFBFFF7F3
:103060002DFCFFF74FFCFFF7A3FCFFF76FFC0021DF
:1030700002203D4A0592CDE9060108913B4908230B
:10308000CDE9011300900422CDE903120B46012281
:103090003748FEF7B7F83648FEF7EDF83548FFF742
:1030A000A5F80620FEF7B8FA002201210620FEF757
:1030B000C1FA012230493148FFF7C8FA2E480721EA
:1030C0000830FFF743FF4FF0FF3528B92A480721A2
:1030D0001430FFF73BFF08B129A100E030A12448DC
:1030E0007030FDF785F822487030FDF7BAFA2049B4
:1030F00082B22B4670312148FFF7FEFA1E480022AB
:103100000B210830FFF789FF1B4800220B211430E8
:10311000FFF783FF184C294E6088B6FBF0F0E08083
:103120006420FEF7FFF814483B210830FFF756FFF4
:10313000C00715D110481430FFF7F4FE02460346CD
:103140000B481FA17030FDF753F809487030FDF7A8
:1031500088FA074982B22B4670310848FFF7CCFA4B
:103160006420FEF7DFF8D7E7000C014000080140BB
:103170003C0000209C01002004000020DC01002015
:103180004C44433131303120496E697469616C6956
:103190007A65204661696C65642E0D0A00000000A6
:1031A0004C44433131303120496E697469616C6936
:1031B0007A6520446F6E652E0D0A0000A08601001E
:1031C0004C48523A20256C75202830782530386CD0
:1031D00058290D0A0000000010B500290AD008780F
:1031E000002807D005487844FDF71AFE002801D0D2
:1031F000002010BD0248784410BD0000920000007D
:103200008A0000000000000000000000010203042A
:1032100006070809000000000102030430313233C0
:1032200034353637383941424344454640305800FA
:10323000303132333435363738396162636465662C
:103240004030780004000008000000000000000288
:10325000000100001000000088330008000000207A
:103260003C00000028010008C43300083C00002096
:103270004408000044010008100100004300000061
:10328000F8FFFFFF00404040404040404040414187
:10329000414141404040404040404040404040402B
:1032A00040404040400502020202020202020202C5
:1032B00002020202022020202020202020202002C2
:1032C0000202020202029090909090901010101052
:1032D00010101010101010101010101010101010EE
:1032E0000202020202028888888888880808080882
:1032F000080808080808080808080808080808084E
:103300000202020240000000000000000000000075
:1033100000000000000000000000000000000000AD
:10332000000000000000000000000000000000009D
:10333000000000000000000000000000000000008D
:10334000000000000000000000000000000000007D
:10335000000000000000000000000000000000006D
:10336000000000000000000000000000000000005D
:10337000000000000000000000000000000000004D
:1033800000000000000000000000000001006400D8
:103390001E000000EC0000200008014010000000AA
:1033A00044010020000C014000100000000000005B
:1033B00000000000010000001000000000000000FC
:0433C0000024F400F1
:04000005080000ED02
:00000001FF
