:020000040800F2
:1000000030080020A5010008871E0008551C0008C4
:10001000851E00085F070008DD22000800000000C0
:10002000000000000000000000000000B51E0008F5
:100030000D0A000800000000891E0008B71E000815
:10004000BF010008BF010008BF010008BF01000890
:10005000BF010008BF0100080F0A0008BF01000827
:10006000BF010008BF010008BF010008BF01000870
:10007000BF010008BF010008BF010008BF01000860
:10008000BF010008BF010008BF010008BF01000850
:10009000BF010008BF010008BF010008BF01000840
:1000A000BF010008BF010008BF010008BF01000830
:1000B0006D1F0008BF010008BF010008BF01000854
:1000C000BF010008BF010008BF0100088D1E000825
:1000D000991E0008D1220008BF010008BF010008D6
:1000E000BF010008BF010008BF01000800F002F8CE
:1000F00000F048F80AA090E8000C82448344AAF17A
:100100000107DA4501D100F03DF8AFF2090EBAE877
:100110000F0013F0010F18BFFB1A43F0010318473B
:10012000B4220000D4220000103A24BF78C878C15D
:10013000FAD8520724BF30C830C144BF04680C60ED
:10014000704700000023002400250026103A28BF35
:1001500078C1FBD8520728BF30C148BF0B60704739
:10016000642900F08780002070471FB500F094FAE2
:1001700004000020002102F00BF9401C60601FBD4C
:1001800010B510BD00F063FA1146FFF7EEFF02F064
:10019000B7F800F093FA03B4FFF7F2FF03BC00F0E6
:1001A000D7FA00000948804709480047FEE7FEE704
:1001B000FEE7FEE7FEE7FEE7FEE7FEE7FEE7FEE717
:1001C00004480549054A064B70470000251F0008F2
:1001D000ED0000083002002030080020300400202C
:1001E000300400200FB41CB5074B06AA7B446946B7
:1001F0000090059800F07FF90020694600F08EF924
:100200001CBC5DF814FB00002D0300002DE9F0413B
:100210000E460446002020622046E168884730B33D
:10022000252805D0D4E901219047206A401CF2E737
:10023000E168204600278847050018D0A5F1410055
:10024000192802D820354FF4006732462946204647
:100250002760FFF785FF40B1012804D0F61D26F086
:1002600007060836D8E7361DD6E72846DAE7206ABB
:10027000BDE8F0812DE9F04106460024106875299B
:10028000314616A510D0AFF30080002802DA4042B4
:1002900013A507E031688A0701D512A502E04907D6
:1002A00004D511A5012401E0AFF3008000210A224A
:1002B00006F1240709E0B0FBF2FCB0FBF2F302FB0D
:1002C0001C00303078541846491C0028F3D12346CE
:1002D0002A463046BDE8F04100F0AEB8000000000C
:1002E0002D0000002B0000002000000070B5064625
:1002F00000F09EF80468054630460A22002100F00E
:1003000012F92C6070BD10B5431C02E010F8011BFF
:1003100071B18107FAD14FF0013202C88C1A8C43B7
:1003200014EAC211F9D0C01A0A0603D0C01E10BDCB
:10033000C01A10BD0A0401D0801E10BD0902FCD0F5
:10034000401E10BD40EA010370B59B072ED14FF04F
:100350000136042A2AD308C810C99D1B9D43121FC9
:1003600015EAC61517D0D8B2E1B2401A50EA0561B5
:1003700010D198B2A1B2401A50EA05410AD123F037
:100380007F4024F07F41401A50EA052102D1180E27
:10039000A0EB146070BDA342DBD018BA21BA88422A
:1003A00001D9012070BD4FF0FF3070BD0AB90020A7
:1003B00070BD10F8013B11F8014B63B1A3420AD1A3
:1003C000521E08D010F8013B11F8014B1BB1A3429B
:1003D00001D1521EEDD1181B70BD4FF0000200B5C7
:1003E000134694469646203922BFA0E80C50A0E858
:1003F0000C50B1F12001BFF4F7AF090728BFA0E806
:100400000C5048BF0CC05DF804EB890028BF40F8D1
:10041000042B08BF704748BF20F8022B11F0804F13
:1004200018BF00F8012B70477047704770470000F5
:1004300000487047D00100202DE9F0470D4699464D
:100440009246044600F124080168880604D5E06954
:1004500021F01001216000E00120A84201DD471BCE
:1004600000E00027A1697A1902EB0900081AA061CF
:100470002078C00602D42046AFF30080002608E0B2
:10048000D4E901211AF806009047206A401C761C26
:1004900020624E45F4DB2078C0060AD52046AFF333
:1004A000008006E0D4E9012130209047206A401CFA
:1004B0002062381EA7F10107F4DC07E0D4E901212E
:1004C00018F805009047206A401C2062281EA5F1FC
:1004D0000105F3DC2046AFF300802078000602D54A
:1004E0000220BDE8F0870120FBE7000001694A1CFB
:1004F00002610878704700B58FB0CDE90131002165
:10050000059105497944CDE9031011466846FFF786
:100510007DFE0FB000BD0000E5FFFFFF0A6802F896
:10052000010B0A6070472DE9F04791460F4680465F
:100530000446002614F8015B2DB100F031F8006884
:10054000405DC007F6D12B2D02D02D2D18D0641E92
:100550004A463946204600F02BF827B13968A142B7
:1005600001D1C7F800804FF0020471050BD540425D
:10057000002803DDFFF75CFF0460A007BDE8F087FB
:1005800046F48066E4E70028F8DAFFF751FF0460DC
:100590006FF00040F2E7000000487047D0010020F3
:1005A00010B500F079F8001D10BD00BFE51D00007A
:1005B0002DE9F05F824615468B4600270AF10104BB
:1005C000B9460078302801D09DB113E014F8010B32
:1005D0000127782803D0582801D045B10AE00DB191
:1005E000102D07D1002714F8010B102502E0082573
:1005F00000E00A250026B0460EE005FB080005FBDA
:1006000006F101271FFA80F801EB1046B6F5803F8E
:1006100000D3B94614F8010B294600F041F8002830
:10062000EBDABBF1000F05D00FB1641E00E05446B9
:10063000CBF80040B9F1000F06D0FFF7F9FE022118
:100640000160C81EBDE8F09F48EA0640FAE775461B
:10065000FFF7A2FFAE4605006946534620F00700AB
:10066000854618B020B5FFF7ABFDBDE820404FF040
:1006700000064FF000074FF000084FF0000B21F08C
:100680000701AC46ACE8C009ACE8C009ACE8C00959
:10069000ACE8C0098D46704700487047F001002063
:1006A0003A2800D2303820F02002412A01D3A2F1AA
:1006B0003700884201D34FF0FF30704710B5044631
:1006C000AFF300802046BDE81040FFF764BD000096
:1006D0004FF0013C50F8042B51F8043B9A4221D1D1
:1006E000A2EB0C03934313EACC1317D150F8042B5D
:1006F00051F8043B9A4215D1A2EB0C03934313EA41
:10070000CC130BD150F8042B51F8043B9A4209D179
:10071000A2EB0C03934313EACC13DBD04FF00000A1
:10072000704700BFD01A01BAB1FA81F101F0180187
:1007300022FA01F0CB40C1F12001DBB2C0B2C01AF5
:100740002CFA01F3D11A914311EAC311E6D1704793
:1007500001491820ABBEFEE7260002007047FEE705
:100760002DE9F04705225BA15C48FFF7EBFD28B1BE
:1007700005225BA15948FFF7E5FD68B172B6BFF3EA
:100780004F8F59480168594A01F4E06111430160F3
:10079000BFF34F8F00BFFDE7032255A14F48FFF77E
:1007A000D1FD4E4DDFF84C81534C4FF400564FF0C5
:1007B000FF3780B3032251A12846FFF7C3FD00286D
:1007C00034D007224EA12846FFF7BCFD002848D0B0
:1007D00007224DA12846FFF7B5FD002878D1314604
:1007E000404600F07BFA4AA105F14000FFF7FAFC11
:1007F00005F14000FFF787FD82B23B4605F140015D
:10080000494801F0C9F9E81CFFF770FDA080BDE878
:10081000F04700F0E9B8E81CFFF768FD607031466A
:10082000404600F05BFA627840A109E0E81CFFF75F
:100830005DFDA0803146404600F050FAA28840A1FC
:1008400026484030FFF7CEFC24484030FFF75BFDE0
:100850003B46BDE8F047214982B24031324801F0C1
:100860009BB91E483CA14030FFF7BCFC1B48403000
:10087000FFF749FD194982B23D463B4640312A48BF
:1008800001F08AF90520A08041F288394FF47A7787
:10089000484600F00DF91148A28835A14030FFF715
:1008A000A1FC0E484030FFF72EFD0C4982B22B46CA
:1008B00040311D4801F070F9A088401D80B2A08031
:1008C000B842E5D931464046BDE8F04700F006BAE7
:1008D000BDE8F08752455345540000002000002039
:1008E00052657365740000000CED00E00400FA0529
:1008F00044523A00001001400000002046523A00E5
:100900004652205363616E004452205363616E006F
:10091000506C65617365207365742050574D5F4658
:100920005245513A000000009001002050574D5FA1
:1009300044522073657420746F2025640D0A0000F2
:1009400050574D5F465245512073657420746F2097
:100950002564487A0D0A00004672657175656E63FC
:1009600079205363616E20626567696E2E0D0A00FF
:1009700050574D5F465245513A2564487A0D0A005A
:1009800010B50B4C01221146204600F0AEF90022B2
:100990000221204600F0A9F901220821204600F09A
:1009A000A4F920460022BDE81040042100F09DB9C2
:1009B0000008014010B50B4C00220121204600F038
:1009C00094F901220221204600F08FF9002208212B
:1009D000204600F08AF920460122BDE8104004219B
:1009E00000F083B90008014070B5074C42F2107561
:1009F00005E0284600F05CF86078401D6070607883
:100A00003228F6D970BD0000000000207047012098
:100A100000F068B872B6FEE710B590F82110002417
:100A2000022903D00421816301243DE001680A68A2
:100A300022F00E020A6001680A6822F001020A60D0
:100A40001A4A0168914201D1012121E0174A14326A
:100A5000914201D110211BE0144A2832914201D168
:100A6000891515E0114A3C32914201D189140FE0F9
:100A70000E4A5032914202D14FF4803108E00B4AC5
:100A80006432914202D14FF4801101E04FF0807145
:100A9000064A083A5160012180F82110002180F8AF
:100AA0002010416B01B18847204610BD080002406C
:100AB00070B5044600F01EF90546601C02D00448DB
:100AC0000078044400F016F9401BA042FAD370BD30
:100AD00010000020012801D1014908707047000072
:100AE00000000020044910B50A68024202D00860E4
:100AF000FFF7F0FF10BD0000140401402DE9F84F8E
:100B0000DFF8B891002409F1040A0AF1040B234626
:100B10000F270BF1040EC9E00125A5402A40AA4287
:100B20007DD1674ED1F804C0ACEB0608B44532D095
:100B300014DCBCF1030F3AD009DCBCF1000F2AD061
:100B4000BCF1010F1CD0BCF1020F31D11DE0BCF192
:100B5000110F17D0BCF1120F2AD119E0B8F5881F78
:100B600019D006DCB8F5803F15D0B8F5801F1FD12D
:100B700011E0B8F5001F0ED0B8F5041F18D10AE037
:100B8000CB6815E0CB681B1D12E0CB6808330FE083
:100B9000CB680C330CE08B682BB1012B4FF00803B2
:100BA00003D0456104E0042302E0056100E0002376
:100BB000FF2A01D8064601E000F104064FEA840549
:100BC00001D9A5F12005D6F8008007FA05FC28EA2E
:100BD0000C0803FA05F548EA0508C6F800804D68D8
:100BE000ED0062D5374DAE6946F00106AE61AD69E4
:100BF00024F0030605F001050095334D06EB050CC6
:100C0000DCF80850A607360F07FA06F825EA0805AB
:100C1000DFF8B880404503D14FF0000817E044E00A
:100C2000DFF8AC80404502D14FF001080FE0DFF85B
:100C3000A480404502D14FF0020808E0DFF8988018
:100C4000404502D14FF0030801E04FF0040808FAD4
:100C500006F848EA0508CCF808804D68D9F8006025
:100C6000ED034D4601D5164300E096432E604D68D6
:100C7000DAF80060AD03554601D5164300E096430F
:100C80002E604D68DBF80060ED025D4601D516432D
:100C900000E096432E604D68DEF80060AD027546B8
:100CA00001D5164300E096432E60641C0D682A4669
:100CB000E5407FF431AFBDE8F88F0000000401404B
:100CC0000000111000100240000001400008014027
:100CD000000C01400010014000140140C2680A42AB
:100CE00001D041617047016170470AB101617047ED
:100CF0000904FBE7014880687047000010000020ED
:100D00000248816802781144816070471000002019
:100D1000074810B5016841F010010160032000F0A0
:100D200075F80F2000F006F800F024F8002010BD40
:100D30000020024070B50D4D04464FF47A712878BA
:100D4000B1FBF0F00A490968B1FBF0F000F030FCAB
:100D500048B9102C07D200222146501E00F036F868
:100D600000206C6070BD012070BD000010000020EC
:100D70001C0000200C4808B5816941F00101816127
:100D8000816901F001010091C16941F08051C161A7
:100D9000C06900F0805000900448416821F0E06193
:100DA00041F00071416008BD0010024000000140A8
:100DB000002809DB00F01F0201219140400980005A
:100DC00000F1E020C0F8001170470000F0B40E4BB5
:100DD0001B680C46C3F30223C3F10705042D00D999
:100DE0000425191D072901D2002300E0DB1E01267E
:100DF00006FA05F1491E214099409E40761E164094
:100E00003143F0BC01F06BBA0CED00E0064900F094
:100E1000070208684FF6FF03184040EA0220034A21
:100E200010430860704700000CED00E00000FA0578
:100E30002DE9F0470F46050061D0434E306800F0C1
:100E40000700B84209D2306820F00700384330600C
:100E5000306800F00700B84251D128683B4C810748
:100E600012D5400703D5606840F4E06060602878E0
:100E7000000703D5606840F4605060606068A9684E
:100E800020F0F000084360602878C00728D0686828
:100E9000012810D02168022810D0890700292EDAF5
:100EA000616821F0030101436160FFF723FF804681
:100EB00041F288390DE021688903EFE78901EDE708
:100EC000FFF718FFA0EB0801494502D90320BDE850
:100ED000F0876068696800F00C00B0EB810FEFD11B
:100EE000306800F00700B8420BD9306820F00700E6
:100EF00038433060306800F00700B84201D001206C
:100F0000E5E72878400705D56068E96820F4E060E7
:100F1000084360602878000706D56068296920F4D6
:100F2000605040EAC100606000F038F86168084A2B
:100F3000C1F30311515CC8400649086006480068C7
:100F4000FFF7F8FE0020C2E7002002400010024038
:100F5000BC2300081C0000201400002004480549A0
:100F600000684968044AC1F30221515CC8407047D7
:100F70001C00002000100240CC2300080448054952
:100F800000684968044AC1F3C221515CC8407047F7
:100F90001C00002000100240CC23000812A185B0E4
:100FA0000FC98DE80F0014A0144A0068049051681E
:100FB000134801F00C03042B10D0082B0ED1C1F301
:100FC0008343C9031DF803000AD5516804AAC1F37D
:100FD0004041515C0A4A5043B0FBF1F005B0704704
:100FE00008494843FAE70000020304050607080918
:100FF0000A0B0C0D0E0F1010010200000010024031
:1010000000127A0000093D0030B585B00020029042
:1010100002200190032003900B4C4FF4807000904D
:10102000A0690D4640F00400A061A069694600F087
:10103000040004900548FFF761FD606820F0E0605F
:101040002843606005B030BD001002400008014038
:101050002DE9F84F040070D02078C04DC00749D06A
:101060006868C0F38100012807D06868C0F3810078
:10107000022809D16868C00306D52868800339D5DD
:1010800060680028E7D035E06068B0F5803F0BD09D
:1010900010B1B0F5A02F11D0286820F4803028605E
:1010A000286820F4802002E0286840F4803028601E
:1010B000606890B1FFF71EFE06460AE0286840F41B
:1010C00080202860F0E700BFFFF714FE801B642833
:1010D00073D828688003F7D50CE0FFF70BFE0646AF
:1010E00005E000BFFFF706FE801B6428F0D82868E3
:1010F0008003F7D420789A4E80074FF001094FF013
:10110000000839D5686810F00C0F07D06868C0F384
:101110008100022809D16868C00306D428688007C6
:1011200014D52069012808D110E02069B0B1C6F8B3
:101130000090FFF7DFFD074605E00AE1FFF7DAFD63
:10114000C01B0228C4D828688007F7D528686169C1
:1011500020F0F80040EAC10028600DE0C6F80080E9
:10116000FFF7C8FD074604E0FFF7C4FDC01B0228D7
:1011700023D828688007F7D4207800072CD5794831
:10118000A169D9B1C0F80090FFF7B4FD074604E0AB
:10119000FFF7B0FDC01B02280FD8686A8007F7D59B
:1011A00071484FF4FA510068B0FBF1F0009000BFB5
:1011B0000098411E0091FAD20EE080E0C0F8008055
:1011C000FFF798FD074604E0FFF794FDC01B0228D7
:1011D00075D8686A8007F7D42078400760D5E86939
:1011E0000027C00008D4E86940F08050E861E86951
:1011F000012700F0805000905C480168C90513D4B5
:101200000168834641F480710160FFF773FD8246F7
:1012100006E000BFFFF76EFDA0EB0A0064284ED881
:10122000DBF80000C005F5D5E06801280AD008B158
:10123000052813D0286A20F001002862286A20F0CF
:10124000040002E0286A40F001002862E06841F2F0
:10125000883B98B1FFF74EFD82460BE0286A40F0CC
:1012600004002862EEE700BFFFF744FDA0EB0A018F
:1012700059455AD8286A8007F6D50CE0FFF73AFDA1
:10128000824605E0FFF736FDA0EB0A0159454CD830
:10129000286A8007F6D41FB1E86920F08050E86121
:1012A000E06988B36968C1F38101022944D002284A
:1012B000C6F8608004D0FFF71DFD044638E034E036
:1012C000FFF718FD074604E0FFF714FDC01B0228D6
:1012D0002BD828688001F7D4206AB0F5803F05D16B
:1012E0006868A16820F4003008436860D4E9080108
:1012F0000843696821F4741108436860C6F8609077
:10130000FFF7F8FC044606E025E000BFFFF7F2FC1B
:10131000001B022809D828688001F7D51BE000BF10
:10132000FFF7E8FC001B022802D90320BDE8F88F74
:1013300028688001F4D40EE00128F7D06868226A9A
:1013400000F48031914204D1616A00F47010884247
:1013500001D00120EAE70020E8E700000010024089
:1013600000004242800442421C0000200070004005
:101370007047000038B50446006842688168C94378
:101380004B0606D5CB0704D1D3435B0601D4216CB1
:1013900005E08B0708D4D3431B0605D4616C01B06C
:1013A0002046BDE8304008478B0601D54B0646D4A1
:1013B000D3439B0643D44B060AD494F85130032BF5
:1013C0003ED0636D43F004036365C3688368009394
:1013D000890609D4616D41F0010161658168009160
:1013E000016821F040010160606D002827D020686D
:1013F000416821F0E0014160012084F8510090072C
:1014000022D02068416821F003014160104DE06C5A
:1014100040B14563E06CFFF7FFFA18B1606D40F032
:1014200040006065A06C002809D04563A06CFFF700
:10143000F3FA002803D0606D40F04000606538BDCD
:10144000C1688068009038BD2046FFF791FF38BD25
:10145000A51E000870B5040005D00025A56294F80B
:10146000510010B106E0012070BD84F850502046B4
:1014700000F02EF8022084F851002068016821F065
:1014800040010160D4E901010843D4E9031211438A
:10149000084361690843218B01F400710843E16945
:1014A0000843216A0843A16A084321680860A069CB
:1014B000042101EA1040216848602068C16921F4D4
:1014C0000061C1616565012084F85100002070BD94
:1014D00030B585B0002400940194029403942F4DFC
:1014E00003682F4802210322AB4227D1836943F4CA
:1014F00080538361836903F480530493836943F0C9
:10150000040383618069274D00F004000490B0203B
:10151000CDE90001039269462846FFF7EFFA402023
:10152000CDE90004694628460294FFF7E7FA002255
:1015300011462320FFF74AFC23202BE01A4DAB4233
:101540002AD1C36943F48043C361C36903F4804370
:101550000493836943F0080383618069134D00F0AD
:10156000080004904FF43040CDE900010392694631
:101570002846FFF7C3FA4FF48040CDE900046946DE
:1015800028460294FFF7BAFA002211462420FFF7FA
:101590001DFC2420FFF70CFC05B030BD00300140DD
:1015A000001002400008014000380040000C0140DB
:1015B00010B5401EB0F1807F01D3012010BD4FF067
:1015C000E02460610F21601700F089FE0020A06117
:1015D00007202061002010BD7047704770B590F85B
:1015E0003C20012A19D0012400F83C4F022242700D
:1015F00050F83C3C5A689D6822F070060A684968B9
:10160000324325F0800529435A6050F83C2C916004
:10161000447000210170084670BD022070BD10B5F5
:10162000040003D094F83D0010B107E0012010BD84
:10163000002084F83C00204600F00CF8022084F8DA
:101640003D00211D206800F0B7FC012084F83D001A
:10165000002010BD08B50068B0F1804F12D10A48D3
:10166000C16941F00101C161C069002200F00100BF
:10167000009011461C20FFF7A9FBBDE808401C2084
:10168000FFF796BB08BD0000001002400168CA6861
:1016900042F00102CA600068816801F00701062972
:1016A00003D0016841F0010101600020704770B56E
:1016B000044690F83C00012817D0012584F83C50DE
:1016C000022084F83D002068826822F0770222F42C
:1016D0007F4282600868502830D00DDC20284DD031
:1016E00005DC98B310283BD148E0022070BD3028BB
:1016F00044D0402834D139E0602828D0702806D062
:10170000B0F5805F2CD0B0F5005F29D10AE0CB683E
:10171000D1E90121206800F085FC2068816841F052
:10172000770109E0CB68D1E90121206800F07AFC5B
:101730002068816841F48041816011E0CA6849688D
:10174000206800F081FC5021206807E016E0CA689C
:101750004968206800F089FC6021206800F06CFC7A
:1017600084F83D50002084F83C0070BDCA68496888
:10177000206800F069FC40212068EFE722680146FC
:101780001046EBE7704770B50446006801694FF0FA
:101790000005C943890715D4C168C943890711D415
:1017A000E91E0161012020772068806980072046BA
:1017B00002D0FFF7E7FF04E000F098F8204600F0C1
:1017C00096F8257720680169C943490717D4C1688D
:1017D000C943490713D46FF0040101610220207747
:1017E0002068806910F4407F204602D0FFF7CAFFCE
:1017F00004E000F07BF8204600F079F825772068B7
:101800000169C943090716D4C168C943090712D43D
:101810006FF008010161042020772068C06980070B
:10182000204602D0FFF7AEFF04E000F05FF820464C
:1018300000F05DF8257720680169C943C90617D40F
:10184000C168C943C90613D46FF0100101610820B3
:1018500020772068C06910F4407F204602D0FFF74F
:1018600091FF04E000F042F8204600F040F82577B0
:1018700020680169C943C90708D1C168C943C907BC
:1018800004D1891E0161204600F032F82068016908
:10189000C943090609D4C168C943090605D46FF0D4
:1018A000800101612046FFF797FE20680169C94366
:1018B000490609D4C168C943490605D46FF04001FF
:1018C0000161204600F015F820680169C9438906C6
:1018D0000BD4C168C943890607D46FF020010161A8
:1018E0002046BDE87040FFF778BE70BD7047704776
:1018F000704770477047000070B502680446106872
:10190000D168536910F00F0F50D003F0010501F4B6
:10191000907635435DD0C20705D0CA0503D5E26B8A
:1019200042F00102E263420705D5DA0703D0E26B19
:1019300042F00202E263820705D5DA0703D0E26BC8
:1019400042F00402E263020705D5DA0703D0E26B36
:1019500042F00802E263E26B002A33D0800604D52D
:10196000880602D5204600F0A8FB20684069E16B9C
:10197000C0F38010090700D428B3204600F08FFB85
:101980002068416949061AD5416921F04001416149
:10199000606BA0B11B494163606BFFF73DF8002805
:1019A00010D0606B416BBDE870400847830610D5CE
:1019B0008B060ED52046BDE8704000F07EBB204669
:1019C000FFF798FF70BD2046FFF794FF0020E0630B
:1019D00070BD030606D50B0604D52046BDE8704051
:1019E00000F012BC4006F3D54806F1D5D168204678
:1019F00021F04001D160202184F8391000F029F94C
:101A000070BD00008F20000870B5040004D094F869
:101A10003900002510B106E0012070BD84F838506F
:101A2000204600F023F8242084F839002068C1689B
:101A300021F40051C160204600F08AFB2068016952
:101A400021F4904101612068416921F02A0141613E
:101A50002068C16841F40051C160E563202084F82A
:101A6000390084F83A00002070BD000030B585B020
:101A70000024009401940294039400681849884259
:101A80002CD11848816941F480418161816901F458
:101A900080410491816941F0040181618069124DA6
:101AA00000F0040004904FF40070009002200190B8
:101AB0000320039069462846FFF720F82815CDE952
:101AC0000004694628460294FFF718F800221146E0
:101AD0002520FFF77BF92520FFF76AF905B030BD17
:101AE00000380140001002400008014090F83A30F0
:101AF000202B22D1F9B1F2B190F83830012B1CD053
:101B000081628285C2850021C163222280F83A2049
:101B100080F838100168CA6842F48072CA600168AF
:101B20004A6942F001024A610068C16841F020013F
:101B3000C1600020704701207047022070470000FC
:101B400070B500680F4988421AD10F48104C0F4AEF
:101B5000017820780A290DD00D290BD03F2802D218
:101B60001154401C2070BDE870400122064909480C
:101B7000FFF7BCBF00251554FEF7F2FD2570F2E714
:101B800070BD00000038014002000020200000204D
:101B900008000020900100202DE9F843044690F849
:101BA00039001F4616460D46202850D1A5B19EB1DA
:101BB00094F8380001284AD0012084F838004FF00A
:101BC0000008C4F83C80212084F83900FFF792F81F
:101BD000A6848146E68426E00120BDE8F883E08CF7
:101BE000401EE084A0684B46B0F5805F4FF00002D5
:101BF0004FF080012046009703D000F036FBE8B993
:101C00000DE000F032FBC8B928882168C0F3080055
:101C10004860206908B16D1C05E0AD1C03E0216837
:101C200015F8010B4860E08C0028D8D14B46002203
:101C300040212046009700F018FB08B10320CCE7B4
:101C4000202084F8390084F838800020C5E702207D
:101C5000C3E77047FEE700002DE9F04385B000259B
:101C600038480095019502950395816941F010016E
:101C70008161816901F010010491816941F02001C5
:101C80008161816901F020010491816941F00401C1
:101C90008161816901F004010491816941F00801C9
:101CA00081618069284F00F008004FF400540490CF
:101CB000002221463846FFF718F8DFF890900022FE
:101CC0000F214846FFF711F8DFF884800022022137
:101CD0004046FFF70AF80126CDE900460224CDE987
:101CE000025469463846FEF709FF0F20CDE9000689
:101CF000CDE9025469464846FEF700FF154869469B
:101D0000CDE9006040460296FEF7F8FECDE90046B8
:101D1000CDE9025469464046FEF7F0FE0420CDE9C5
:101D20000005694602944046FEF7E8FEE001CDE971
:101D300000040320039069464846FEF7DFFE05B025
:101D4000BDE8F0830010024000100140000801408F
:101D5000000C014000002110104810B50E49016030
:101D60004FF48271416000218160C1604FF4802294
:101D70000161C0E905121022C0E9072141628162B8
:101D80000A21C162FFF766FB002803D0BDE81040BE
:101D9000FEF740BE10BD000000300140A000002052
:101DA000104810B50E4901604FF482714160002166
:101DB0008160C1604FF480220161C0E905120822F0
:101DC000C0E90721416281620A21C162FFF742FB3B
:101DD000002803D0BDE81040FEF71CBE10BD000077
:101DE00000380040F800002010B586B000241648E6
:101DF000009401940294039404944FF0804105945C
:101E000001604721C0E901140921C0E903148021C0
:101E10008161FFF704FC08B1FEF7FCFD4FF4805030
:101E2000009069460848FFF742FC08B1FEF7F2FD52
:101E3000049404A904480594FFF7D0FB002801D0BE
:101E4000FEF7E8FD06B010BD500100200C4810B5AB
:101E50000A4901604FF416514160002181600C2253
:101E6000C160C0E904128161C161FFF7CDFD0028A6
:101E700003D0BDE81040FEF7CDBD10BD00380140D5
:101E800090010020FEE7FEE7704700000148FFF7E1
:101E900071BA0000A00000200148FFF76BBA0000F3
:101EA000F800002010B5406A0021C187C186FFF705
:101EB0005FFA10BD7047FEF723BF30B58FB0282101
:101EC0006846FEF78AFA14210AA8FEF786FA01216D
:101ED0000804CDE900100024029402250491CDE904
:101EE00007504FF4E01009906846FFF7B1F808B1C9
:101EF00072B6FEE70F20CDE90A054FF48060CDE908
:101F00000C4002210AA80E94FEF792FF08B172B6A7
:101F1000FEE700224FF0E0611046FFF775F80FB0C2
:101F200030BD00000D48016841F0010101604168C9
:101F30000B4A1140416001680A4A11400160016882
:101F400021F480210160416821F4FE0141604FF4D9
:101F50001F0181600449C0030860704700100240FF
:101F60000000FFF8FFFFF6FE08ED00E010B50E4898
:101F7000FFF709FC0D480E496422008809780D4CD2
:101F80004143B1FBF2F261688A4202D9FEF7F8FCE4
:101F900003E0814205D2FEF70DFD6068401C6060E1
:101FA00010BD00206060F1E7500100200600002015
:101FB0000100002008000020F0B50268164B174C05
:101FC000174D4FF08047984205D0B84203D0A04249
:101FD00001D0A84203D122F070064A6832439842E9
:101FE00005D0B84203D0A04201D0A84203D122F4C8
:101FF0004074CA6822434C6922F080022243026086
:102000008A68C2620A688262984201D109690163E2
:1020100001214161F0BD0000002C0140000400409E
:102020000008004010B5846842EA032224F47F448B
:102030000A432243826010BD826822F070020A4384
:1020400042F007018160704710B5036A046A24F00A
:1020500001040462846924F0F00444EA021423F0C9
:102060000A020A438461026210BD10B5036A23F0BC
:10207000100303628369046A23F4704343EA023263
:1020800024F0A00343EA01118261016210BD10B582
:10209000406A0021C185C184FFF72CFC10BD016896
:1020A000CA6822F49072CA6001684A6922F001028B
:1020B0004A61202180F83A10704710B590F83A1024
:1020C000222901D0022010BD8168B1F5805F11D0B6
:1020D0000169002901681FD0496801F07F03816A06
:1020E0004A1C82620B70C18D491E0904090CC1850E
:1020F00018D02BE00269816A002A0268526805D074
:10210000D2B20A80816A491C8162ECE7C2F30802FC
:102110000A80816A891CF7E74A68816A4B1C8362DE
:102120000A70E0E70168CA6822F02002CA6001680C
:10213000CA6822F48072CA6001684A6922F001020A
:102140004A61202180F83A10FFF7FAFC002010BD08
:102150002DE9F041044600680169E26821F440512C
:10216000114301612169A06808436169084321683E
:10217000CA6841F20C639A430243CA60206841690D
:10218000A26921F44071114341611E492068642510
:102190003226884202D1FEF7F1FE01E0FEF7DEFEB4
:1021A00000EBC00101EB001160686FF018078000C0
:1021B000B1FBF0F2B2FBF5F2B1FBF0F37A4303EBC3
:1021C0008202B1FBF0F306EB0212B2FBF5F2B3FBB5
:1021D000F5F302F0F00202EB0312B1FBF0F3B1FBF6
:1021E000F0F0B0FBF5F0784303EB800006EB001055
:1021F000B0FBF5F0216800F00F0010448860BDE8E6
:10220000F08100000038014090F83910212901D0F8
:10221000022070478168B1F5805F016A0BD04A1CCB
:102220000262026809785160C18C491E0904090CD8
:10223000C1840ED017E009880268C1F3080151601B
:1022400001690029016A02D0491C0162ECE7891C7E
:10225000FBE70168CA6822F08002CA600068C168B2
:1022600041F04001C160002070472DE9F0419846DF
:1022700017460E460446069D1DE0681C1BD02DB176
:10228000FEF738FDA0EB0800A84214D92068C16809
:1022900021F4D071C1602068416921F001014161E0
:1022A000202084F8390084F83A00002084F83800AF
:1022B0000320BDE8F0812068006836EA000004D001
:1022C0000020B842D9D00020F3E70120F9E7000050
:1022D0000148FFF711BB000090010020FEE709074D
:1022E000090E002804DB00F1E02080F8001470479C
:1022F00000F00F0000F1E02080F8141D704700008E
:10230000FEF706FDFFF7D9FDFFF7A6FCFFF724FD5A
:10231000FFF746FDFFF79AFDFFF766FD0122022158
:102320001548FEF7E2FC1548FFF7B0F9002201213D
:102330000620FEF74BFD0620FEF73AFD012210496C
:102340001048FFF7D3FB0E4C0026DFF83C800F4D02
:102350004FF400574FF49679A41E207838B12670B8
:1023600039464046FEF7BAFC4846FEF7A1FBA08876
:10237000B5FBF0F0E080F0E7000C014050010020D8
:10238000020000209001002000100140A086010002
:1023900010B500290AD00878002807D005487844ED
:1023A000FEF796F9002801D0002010BD02487844BD
:1023B00010BD0000560000004E00000000000000AC
:1023C00000000000010203040607080900000000E5
:1023D0000102030404250008000000202000000082
:1023E0002801000824250008200000201008000013
:1023F000440100081001000043000000F8FFFFFF47
:102400000040404040404040404041414141414007
:1024100040404040404040404040404040404040BC
:10242000400502020202020202020202020202024B
:102430000220202020202020202020020202020250
:1024400002029090909090901010101010101010A8
:1024500010101010101010101010101002020202B4
:1024600002028888888888880808080808080808F8
:1024700008080808080808080808080802020202F4
:10248000400000000000000000000000000000000C
:10249000000000000000000000000000000000003C
:1024A000000000000000000000000000000000002C
:1024B000000000000000000000000000000000001C
:1024C000000000000000000000000000000000000C
:1024D00000000000000000000000000000000000FC
:1024E00000000000000000000000000000000000EC
:1024F00000000000000000000000000000000000DC
:1025000000000000001E0100460000000000000066
:1025100000000000010000001000000000000000AA
:042520000024F4009F
:04000005080000ED02
:00000001FF
