:020000040800F2
:10000000A007002089010008AF1200087D10000839
:10001000AD1200088F02000805150008000000005E
:10002000000000000000000000000000B312000803
:100030009102000800000000B1120008B51200088B
:10004000A3010008A3010008A3010008A301000800
:10005000A3010008A3010008A3010008A3010008F0
:10006000A3010008A3010008A3010008A3010008E0
:10007000A3010008A3010008A3010008A3010008D0
:10008000A3010008A3010008A3010008A3010008C0
:10009000A3010008A3010008A3010008A3010008B0
:1000A000A3010008A3010008A3010008A3010008A0
:1000B00069130008A3010008A3010008A3010008B8
:1000C000A3010008A3010008A3010008A301000880
:1000D000A3010008A3010008A3010008A301000870
:1000E000A3010008A3010008A301000800F002F822
:1000F00000F03AF80AA090E8000C82448344AAF188
:100100000107DA4501D100F02FF8AFF2090EBAE885
:100110000F0013F0010F18BFFB1A43F0010318473B
:100120005814000078140000103A24BF78C878C131
:10013000FAD8520724BF30C830C144BF04680C60ED
:10014000704700000023002400250026103A28BF35
:1001500078C1FBD8520728BF30C148BF0B60704739
:100160001FB51FBD10B510BD00F058F81146FFF7C0
:10017000F7FF01F0D9F900F076F803B4FFF7F2FFCA
:1001800003BC00F07DF8000009488047094800479B
:10019000FEE7FEE7FEE7FEE7FEE7FEE7FEE7FEE737
:1001A000FEE7FEE704480549054A064B7047000094
:1001B00021130008ED000008A0010020A007002086
:1001C000A0030020A00300204FF0000200B513465A
:1001D00094469646203922BFA0E80C50A0E80C5067
:1001E000B1F12001BFF4F7AF090728BFA0E80C5018
:1001F00048BF0CC05DF804EB890028BF40F8042B11
:1002000008BF704748BF20F8022B11F0804F18BF7D
:1002100000F8012B7047704770477047754600F033
:100220002BF8AE4605006946534620F00700854688
:1002300018B020B5FFF7B6FFBDE820404FF000062C
:100240004FF000074FF000084FF0000B21F00701BE
:10025000AC46ACE8C009ACE8C009ACE8C009ACE801
:10026000C0098D46704710B50446AFF300802046A4
:10027000BDE81040FFF781BF0048704740010020F3
:1002800001491820ABBEFEE7260002007047FEE7DA
:10029000704772B6FEE700002DE9F84FDFF8B8911D
:1002A000002409F1040A0AF1040B23460F270BF17D
:1002B000040EC9E00125A5402A40AA427DD1674E1F
:1002C000D1F804C0ACEB0608B44532D014DCBCF164
:1002D000030F3AD009DCBCF1000F2AD0BCF1010FAA
:1002E0001CD0BCF1020F31D11DE0BCF1110F17D0B1
:1002F000BCF1120F2AD119E0B8F5881F19D006DC1D
:10030000B8F5803F15D0B8F5801F1FD111E0B8F5C2
:10031000001F0ED0B8F5041F18D10AE0CB6815E015
:10032000CB681B1D12E0CB6808330FE0CB680C33A1
:100330000CE08B682BB1012B4FF0080303D0456113
:1003400004E0042302E0056100E00023FF2A01D855
:10035000064601E000F104064FEA840501D9A5F143
:100360002005D6F8008007FA05FC28EA0C0803FAF5
:1003700005F548EA0508C6F800804D68ED0062D52D
:10038000374DAE6946F00106AE61AD6924F0030653
:1003900005F001050095334D06EB050CDCF808501F
:1003A000A607360F07FA06F825EA0805DFF8B88031
:1003B000404503D14FF0000817E044E0DFF8AC807F
:1003C000404502D14FF001080FE0DFF8A48040451E
:1003D00002D14FF0020808E0DFF89880404502D1D2
:1003E0004FF0030801E04FF0040808FA06F848EA65
:1003F0000508CCF808804D68D9F80060ED034D463B
:1004000001D5164300E096432E604D68DAF800608F
:10041000AD03554601D5164300E096432E604D6866
:10042000DBF80060ED025D4601D5164300E096431F
:100430002E604D68DEF80060AD02754601D51643AA
:1004400000E096432E60641C0D682A46E5407FF468
:1004500031AFBDE8F88F000000040140000011102A
:10046000001002400000014000080140000C014063
:1004700000100140001401400AB1016170470904F5
:10048000FBE7000001488068704700000000002082
:1004900002488168027811448160704700000020A2
:1004A000074810B5016841F010010160032000F019
:1004B00075F80F2000F006F800F024F8002010BDB9
:1004C0000020024070B50D4D04464FF47A71287833
:1004D000B1FBF0F00A490968B1FBF0F000F0AAFBAB
:1004E00048B9102C07D200222146501E00F036F8E1
:1004F00000206C6070BD012070BD00000000002075
:100500000C0000200C4808B5816941F001018161AF
:10051000816901F001010091C16941F08051C1611F
:10052000C06900F0805000900448416821F0E0610B
:1005300041F00071416008BD001002400000014020
:10054000002809DB00F01F020121914040098000D2
:1005500000F1E020C0F8001170470000F0B40E4B2D
:100560001B680C46C3F30223C3F10705042D00D911
:100570000425191D072901D2002300E0DB1E0126F6
:1005800006FA05F1491E214099409E40761E16400C
:100590003143F0BC00F0B7BF0CED00E0064900F0BD
:1005A000070208684FF6FF03184040EA0220034A9A
:1005B00010430860704700000CED00E00000FA05F1
:1005C0002DE9F0470F46050061D0434E306800F03A
:1005D0000700B84209D2306820F007003843306085
:1005E000306800F00700B84251D128683B4C8107C1
:1005F00012D5400703D5606840F4E0606060287859
:10060000000703D5606840F4605060606068A968C6
:1006100020F0F000084360602878C00728D06868A0
:10062000012810D02168022810D0890700292EDA6D
:10063000616821F0030101436160FFF723FF8046F9
:1006400041F288390DE021688903EFE78901EDE780
:10065000FFF718FFA0EB0801494502D90320BDE8C8
:10066000F0876068696800F00C00B0EB810FEFD193
:10067000306800F00700B8420BD9306820F007005E
:1006800038433060306800F00700B84201D00120E4
:10069000E5E72878400705D56068E96820F4E06060
:1006A000084360602878000706D56068296920F44F
:1006B000605040EAC100606000F038F86168084AA4
:1006C000C1F30311515CC840064908600648006840
:1006D000FFF7F8FE0020C2E70020024000100240B1
:1006E000601500080C0000200400002004480549A3
:1006F00000684968044AC1F30221515CC840704750
:100700000C00002000100240701500080448054944
:1007100000684968044AC1F3C221515CC84070476F
:100720000C000020001002407015000812A185B0D6
:100730000FC98DE80F0014A0144A00680490516896
:10074000134801F00C03042B10D0082B0ED1C1F379
:100750008343C9031DF803000AD5516804AAC1F3F5
:100760004041515C0A4A5043B0FBF1F005B070477C
:1007700008494843FAE70000020304050607080990
:100780000A0B0C0D0E0F10100102000000100240A9
:1007900000127A0000093D0030B585B000200290BB
:1007A00002200190032003900B4C4FF480700090C6
:1007B000A0690D4640F00400A061A069694600F000
:1007C000040004900548FFF767FD606820F0E060D2
:1007D0002843606005B030BD0010024000080140B1
:1007E0002DE9F84F040070D02078C04DC00749D0E3
:1007F0006868C0F38100012807D06868C0F38100F1
:10080000022809D16868C00306D52868800339D555
:1008100060680028E7D035E06068B0F5803F0BD015
:1008200010B1B0F5A02F11D0286820F480302860D6
:10083000286820F4802002E0286840F48030286096
:10084000606890B1FFF71EFE06460AE0286840F493
:1008500080202860F0E700BFFFF714FE801B6428AB
:1008600073D828688003F7D50CE0FFF70BFE064627
:1008700005E000BFFFF706FE801B6428F0D828685B
:100880008003F7D420789A4E80074FF001094FF08B
:10089000000839D5686810F00C0F07D06868C0F3FD
:1008A0008100022809D16868C00306D4286880073F
:1008B00014D52069012808D110E02069B0B1C6F82C
:1008C0000090FFF7DFFD074605E00AE1FFF7DAFDDC
:1008D000C01B0228C4D828688007F7D5286861693A
:1008E00020F0F80040EAC10028600DE0C6F8008062
:1008F000FFF7C8FD074604E0FFF7C4FDC01B022850
:1009000023D828688007F7D4207800072CD57948A9
:10091000A169D9B1C0F80090FFF7B4FD074604E023
:10092000FFF7B0FDC01B02280FD8686A8007F7D513
:1009300071484FF4FA510068B0FBF1F0009000BF2D
:100940000098411E0091FAD20EE080E0C0F80080CD
:10095000FFF798FD074604E0FFF794FDC01B02284F
:1009600075D8686A8007F7D42078400760D5E869B1
:100970000027C00008D4E86940F08050E861E869C9
:10098000012700F0805000905C480168C90513D42D
:100990000168834641F480710160FFF773FD824670
:1009A00006E000BFFFF76EFDA0EB0A0064284ED8FA
:1009B000DBF80000C005F5D5E06801280AD008B1D1
:1009C000052813D0286A20F001002862286A20F048
:1009D000040002E0286A40F001002862E06841F269
:1009E000883B98B1FFF74EFD82460BE0286A40F045
:1009F00004002862EEE700BFFFF744FDA0EB0A0108
:100A000059455AD8286A8007F6D50CE0FFF73AFD19
:100A1000824605E0FFF736FDA0EB0A0159454CD8A8
:100A2000286A8007F6D41FB1E86920F08050E86199
:100A3000E06988B36968C1F38101022944D00228C2
:100A4000C6F8608004D0FFF71DFD044638E034E0AE
:100A5000FFF718FD074604E0FFF714FDC01B02284E
:100A60002BD828688001F7D4206AB0F5803F05D1E3
:100A70006868A16820F4003008436860D4E9080180
:100A80000843696821F4741108436860C6F86090EF
:100A9000FFF7F8FC044606E025E000BFFFF7F2FC94
:100AA000001B022809D828688001F7D51BE000BF89
:100AB000FFF7E8FC001B022802D90320BDE8F88FED
:100AC00028688001F4D40EE00128F7D06868226A13
:100AD00000F48031914204D1616A00F470108842C0
:100AE00001D00120EAE70020E8E700000010024002
:100AF00000004242800442420C000020007000408E
:100B000070B5040005D00025A56294F8510010B11D
:100B100006E0012070BD84F85050204600F02EF809
:100B2000022084F851002068016821F04001016032
:100B3000D4E901010843D4E9031211430843616970
:100B40000843218B01F400710843E1690843216ADD
:100B50000843A16A084321680860A069042101EAEA
:100B60001040216848602068C16921F40061C161BA
:100B70006565012084F85100002070BD30B585B056
:100B800000240094019402940394254D03682548A1
:100B900002210322AB421AD1836943F4805383615B
:100BA000836903F480530493836943F004038361EE
:100BB00080691D4D00F004000490B020CDE90001D3
:100BC000039269462846FFF767FB40201EE0174D59
:100BD000AB4222D1C36943F48043C361C36903F4C8
:100BE00080430493836943F0080383618069104D57
:100BF00000F0080004904FF43040CDE9000103926A
:100C000069462846FFF748FB4FF48040CDE90004D1
:100C1000694628460294FFF73FFB05B030BD00004F
:100C20000030014000100240000801400038004040
:100C3000000C014010B5401EB0F1807F01D30120AF
:100C400010BD4FF0E02460610F21601700F05BFCE5
:100C50000020A06107202061002010BD7047704770
:100C600070B590F83C20012A19D0012400F83C4FBF
:100C70000222427050F83C3C5A689D6822F070068F
:100C80000A684968324325F0800529435A6050F8C4
:100C90003C2C9160447000210170084670BD022018
:100CA00070BD10B5040003D094F83D0010B107E00A
:100CB000012010BD002084F83C00204600F00CF814
:100CC000022084F83D00211D206800F053FB012024
:100CD00084F83D00002010BD00B585B000210091D2
:100CE0000191029103910068B0F1804F21D1124827
:100CF000C16941F00101C161C16901F001010491C3
:100D0000816941F0040181618069694600F0040055
:100D10000490062000900220019003900748FFF7FE
:100D2000BBFA002211461C20FFF718FC1C20FFF71D
:100D300007FC05B000BD00000010024000080140A3
:100D40000168CA6842F00102CA600068816801F067
:100D50000701062903D0016841F00101016000206C
:100D6000704770B5044690F83C00012817D0012563
:100D700084F83C50022084F83D002068826822F00C
:100D8000770222F47F4282600868502830D00DDC60
:100D900020284DD005DC98B310283BD148E0022034
:100DA00070BD302844D0402834D139E0602828D0A4
:100DB000702806D0B0F5805F2CD0B0F5005F29D147
:100DC0000AE0CB68D1E90121206800F009FB206826
:100DD000816841F0770109E0CB68D1E90121206801
:100DE00000F0FEFA2068816841F48041816011E0E2
:100DF000CA684968206800F005FB5021206807E0B8
:100E000016E0CA684968206800F00DFB6021206880
:100E100000F0F0FA84F83D50002084F83C0070BDEA
:100E2000CA684968206800F0EDFA40212068EFE7C1
:100E3000226801461046EBE7704770B5044600682B
:100E400001694FF00005C943890715D4C168C9433A
:100E5000890711D4E91E016101202077206880698B
:100E60008007204602D0FFF7E7FF04E000F098F883
:100E7000204600F096F8257720680169C9434907A4
:100E800017D4C168C943490713D46FF00401016145
:100E9000022020772068806910F4407F204602D02D
:100EA000FFF7CAFF04E000F07BF8204600F079F875
:100EB000257720680169C943090716D4C168C94369
:100EC000090712D46FF0080101610420207720681F
:100ED000C0698007204602D0FFF7AEFF04E000F0B3
:100EE0005FF8204600F05DF8257720680169C94366
:100EF000C90617D4C168C943C90613D46FF01001DD
:100F00000161082020772068C06910F4407F2046E6
:100F100002D0FFF791FF04E000F042F8204600F015
:100F200040F8257720680169C943C90708D1C1681D
:100F3000C943C90704D1891E0161204600F032F877
:100F400020680169C943090609D4C168C943090673
:100F500005D46FF0800101612046FFF77FFE206815
:100F60000169C943490609D4C168C943490605D482
:100F70006FF040010161204600F015F8206801691A
:100F8000C94389060BD4C168C943890607D46FF0E9
:100F9000200101612046BDE87040FFF760BE70BDD2
:100FA000704770477047704770B5040004D094F8DC
:100FB0003900002510B106E0012070BD84F83850DA
:100FC000204600F023F8242084F839002068C16806
:100FD00021F40051C160204600F038FA2068016910
:100FE00021F4904101612068416921F02A014161A9
:100FF0002068C16841F40051C160E563202084F895
:10100000390084F83A00002070BD000030B585B08A
:1010100000240094019402940394006814498842C7
:1010200024D11448816941F480418161816901F4CE
:1010300080410491816941F00401816180690E4D14
:1010400000F0040004904FF4007000900220019022
:101050000320039069462846FFF71EF92815CDE9BD
:101060000004694628460294FFF716F905B030BD22
:10107000003801400010024000080140FEE7000077
:101080002DE9F04385B0002538480095019502957B
:101090000395816941F010018161816901F01001BE
:1010A0000491816941F020018161816901F0200191
:1010B0000491816941F004018161816901F00401B9
:1010C0000491816941F0080181618069284F00F035
:1010D00008004FF400540490002221463846FFF7E0
:1010E000CBF9DFF89090002209214846FFF7C4F9B8
:1010F000DFF88480002202214046FFF7BDF9012677
:10110000CDE900460224CDE9025469463846FFF78E
:10111000C3F80920CDE90006CDE9025469464846E6
:10112000FFF7BAF815480096CDE901056946404633
:10113000FFF7B2F8CDE90046CDE9025469464046D2
:10114000FFF7AAF80420CDE900056946029440465D
:10115000FFF7A2F8E001CDE9000469464846039490
:10116000FFF79AF805B0BDE8F083000000100240D8
:101170000010014000080140000C01400000111067
:10118000104810B50E4901604FF482714160002192
:101190008160C1604FF480220161C0E90512102214
:1011A000C0E90721416281620A21C162FFF7A8FC00
:1011B000002803D0BDE81040FFF76BB810BD000059
:1011C0000030014010000020104810B50E490160A9
:1011D0004FF48271416000218160C1604FF4802230
:1011E0000161C0E905120822C0E90721416281625C
:1011F0000A21C162FFF784FC002803D0BDE810403B
:10120000FFF747B810BD000000380040680000201C
:1012100010B586B0002416480094019402940394FB
:1012200004944FF08041059401604721C0E9011406
:1012300040F2E731C0E903148461FFF732FD08B1E1
:10124000FFF727F84FF48050009069460848FFF7F1
:1012500088FD08B1FFF71DF8049404A9044805941B
:10126000FFF7FEFC002801D0FFF713F806B010BD11
:10127000C00000200C4810B50A4901604FF4E1316C
:101280004160002181600C22C160C0E904128161CB
:10129000C161FFF789FE002803D0BDE81040FEF7CA
:1012A000F8BF10BD0038014000010020FEE7FEE756
:1012B00070477047FFF7ECB830B58FB0282168460B
:1012C000FEF782FF14210AA8FEF77EFF0121080421
:1012D000CDE900100024029402250491CDE90750C5
:1012E0004FF4E01009906846FFF77AFA08B172B639
:1012F000FEE70F20CDE90A054FF48060CDE90C40F0
:1013000002210AA80E94FFF75BF908B172B6FEE756
:1013100000224FF0E0611046FFF73EFA0FB030BDFB
:101320000D48016841F00101016041680B4A11401C
:10133000416001680A4A11400160016821F480217E
:101340000160416821F4FE0141604FF41F0181609A
:101350000449C00308607047001002400000FFF815
:10136000FFFFF6FE08ED00E00148FFF766BD000054
:10137000C0000020F0B50268164B174C174D4FF017
:101380008047984205D0B84203D0A04201D0A8427D
:1013900003D122F070064A683243984205D0B84221
:1013A00003D0A04201D0A84203D122F44074CA68FD
:1013B00022434C6922F08002224302608A68C262A2
:1013C0000A688262984201D1096901630121416181
:1013D000F0BD0000002C0140000400400008004067
:1013E00010B5846842EA032224F47F440A4322436E
:1013F000826010BD826822F070020A4342F0070149
:101400008160704710B5036A046A24F00104046225
:10141000846924F0F00444EA021423F00A020A4327
:101420008461026210BD10B5036A23F010030362E9
:101430008369046A23F4704343EA023224F0A00370
:1014400043EA01118261016210BD00002DE9F04103
:10145000044600680169E26821F4405111430161CA
:101460002169A0680843616908432168CA6841F29C
:101470000C639A430243CA6020684169A26921F45F
:101480004071114341611E4920686425322688421B
:1014900002D1FFF73BF901E0FFF728F900EBC001AB
:1014A00001EB001160686FF018078000B1FBF0F2EB
:1014B000B2FBF5F2B1FBF0F37A4303EB8202B1FB2E
:1014C000F0F306EB0212B2FBF5F2B3FBF5F302F018
:1014D000F00202EB0312B1FBF0F3B1FBF0F0B0FB52
:1014E000F5F0784303EB800006EB0010B0FBF5F05D
:1014F000216800F00F0010448860BDE8F081000012
:1015000000380140FEE70907090E002804DB00F15E
:10151000E02080F80014704700F00F0000F1E02098
:1015200080F8141D70470000FEF7BAFFFFF7C4FEF5
:10153000FFF7A6FDFFF724FEFFF746FEFFF79AFE32
:10154000FFF766FE012202210348FEF795FF0348DC
:10155000FFF7F6FBFEE70000000C0140C000002092
:101560000000000000000000010203040607080953
:10157000000000000102030498150008000000208C
:101580001000000028010008A81500081000002025
:101590009007000044010008010000001000000056
:0815A000000000000024F4002B
:04000005080000ED02
:00000001FF
