:020000040800F2
:10000000F807002055020008611A00089116000840
:100010005D1A000801040008651D000800000000CA
:10002000000000000000000000000000691A000845
:100030000504000800000000651A00086D1A000899
:100040006F0200086F0200086F0200086F020008CC
:100050006F0200086F0200086F0200086F020008BC
:100060006F0200086F0200086F0200086F020008AC
:100070006F0200086F0200086F0200086F0200089C
:100080006F0200086F0200086F0200086F0200088C
:100090006F0200086F0200086F0200086F0200087C
:1000A0006F0200086F0200086F0200086F0200086C
:1000B0006F0200086F0200086F0200086F0200085C
:1000C0006F0200086F0200086F0200086F0200084C
:1000D0006F0200086F0200086F0200086F0200083C
:1000E0006F0200086F0200086F0200086F0200082C
:1000F0006F0200086F0200086F0200086F0200081C
:100100006F0200086F0200086F0200086F0200080B
:100110006F0200086F0200086F0200086F020008FB
:100120006F0200086F0200086F0200086F020008EB
:100130006F0200086F0200086F0200086F020008DB
:100140006F0200086F0200086F0200086F020008CB
:100150006F0200086F0200086F0200086F020008BB
:100160006F0200086F0200086F0200086F020008AB
:100170006F0200086F0200086F0200080000000014
:100180006F0200086F02000800F002F800F052F859
:1001900014A696E8000CB244B344DA4501D100F04D
:1001A00049F8BAE80F000FA696E83000A5EB040561
:1001B00004EB0607AAEB0704A7F101074FEA1515A0
:1001C0004FEA3414A4F10104AC4201D300F032F838
:1001D00013F0010F18BFFB1A43F0010300F001F800
:1001E000DBE71847D81B0000F81B0000103A24BFBB
:1001F00078C878C1FAD8520724BF30C830C144BF8C
:1002000004680C6070470000704700000023002461
:1002100000250026103A28BF78C1FBD8520728BF16
:1002200030C148BF0B6070471FB501F0AEFD1FBD68
:1002300010B510BD00F0A9F81146FFF7F5FF01F069
:1002400093FD00F0C7F803B4FFF7F2FF03BC00F022
:10025000CFF800000948804709480047FEE7FEE75D
:10026000FEE7FEE7FEE7FEE7FEE7FEE7FEE7FEE766
:1002700004480549054A064B704700001D1B00084D
:1002800089010008F8010020F8070020F803002089
:10029000F803002053EA020C00F069802DE9F04BCE
:1002A0004FF00006002B1FBFB3FA83F503FA05F4E5
:1002B00024FA05F65E4012BF1643B2FA82F502FA3E
:1002C00005F4C5F120051EBF22FA05FC44EA0C0422
:1002D000203556EA044C4FEA144418BF641C4FF012
:1002E00000084FF00009904271EB030C39D300294C
:1002F00019BFB1FA81F701FA07F6B0FA80F700FAF0
:1003000007F6C7F120071EBF20FA07FC46EA0C06D5
:100310002037B6FBF4FCA7EB0507103F07F01F0BD7
:10032000CBF120062CFA06F60CFA0BFB44BFB346C1
:100330000026202FA4BF5E464FF0000B5BEA060CA0
:1003400008BF4FF0010B19EB0B0948EB0608ABFB9C
:10035000027C06FB02CC0BFB03CCC01B71EB0C0137
:10036000C1E70B46024641464846BDE8F08B13B54F
:10037000084318BF4FF0FF300146AFF30080BDE8DF
:100380001C407047704770477047754600F02CF866
:10039000AE4605006946534620F00700854618B072
:1003A00020B5FFF765FFBDE820404FF000064FF095
:1003B00000074FF000084FF0000BAC46ACE8C00956
:1003C000ACE8C009ACE8C009ACE8C00921F00701FD
:1003D0008D46704710B50446AFF300802046BDE857
:1003E0001040FFF730BF00000048704710000020A9
:1003F00001491820ABBEFEE726000200704700004E
:10040000FEE700007047000072B600BFFEE7000084
:100410002DE9F04F82B000F13E4707F1FF778605E6
:1004200046EA972741F60046C4F20206082243F640
:10043000004EB04208BF0722C4F2010E072F38BF9A
:100440003A46002600274FF00008009209E000BF5E
:1004500008F101080237B8F1100F06F1040600F0A8
:10046000A3800D68012202FA08F415EA0409EFD00E
:10047000D1F804B003220BF0030CACF10105BA4033
:10048000012D6FEA020A0FD88268CD6802EA0A02DB
:10049000BD402A4382604268A243CBF3001404FAB1
:1004A00008F42243426005E0BCF1030F02D14FF093
:1004B000030C1EE0C2688C6802EA0A02BC402243B8
:1004C000BCF1020FC26014D16FF0030202EA5802BD
:1004D0000244D2F820C006F01C040F230D69A3408B
:1004E0002CEA0303A5402B431362D1F804B00BF0B0
:1004F000030C02680CFA07F302EA0A021A431BF41F
:10050000403F0260A4D0002243F644030192C4F2AB
:1005100002031A684FF6084C42F480421A601A68C7
:10052000CFF6FF7C02F480420192019A28F0030288
:10053000724452F80C3006F00C050F24AC40A34373
:10054000009C04FA05F52B4342F80C30DEF8082035
:100550004B6842EA090543F60C4CDC0258BF22EA1C
:100560000905CEF80850C4F2010CDCF800209C020A
:1005700042EA090558BF22EA0905CCF80050DEF826
:1005800004209C0342EA090558BF22EA0905CEF877
:100590000450DEF80020DB0342EA090558BF22EAD6
:1005A0000905CEF8005053E702B0BDE8F08F000017
:1005B000002A08BF090481617047000040F2F4106E
:1005C000C2F2000000687047002804BF0120704795
:1005D000F0B581B0044690F83D0028B9002084F8B9
:1005E0003C00204600F0A2F8242084F83D0020685A
:1005F000016821F001010160016841F400410160DE
:10060000016821F40041016000F01EFA636848F2BD
:10061000A16CC0F2010C40F60011C0F23D0163452F
:100620003CBF48F28041C0F21E01884202D2012044
:1006300001B0F0BD4DF68361C4F21B31A0FB011285
:100640002168970CD1F804E04FF496762EF03F0520
:1006500045EA92454D60774348F638160D6AC0F278
:100660004106A7FB067625F03F07634538BF960C89
:10067000721C3A430A62CA6948F2A0664CF6FF77D8
:10068000C0F20106B34222EA07020BD801385B0030
:10069000B0FBF3F001306FF31F30042898BF042043
:1006A0001BE000BFA768013857B119277B43B0FB97
:1006B000F3F001306FF31F3070B100F5804007E0B8
:1006C00003EB4303B0FBF3F001306FF31F3018B1BD
:1006D00000F5004001E000BF01201043C861086838
:1006E000D4E9072320F0C00010431843086088684D
:1006F00048F2FF3204F10C0790438CCF18431043AB
:10070000A6698860C86820F0FF0038433043C8609D
:10071000086840F00100086000202021206484F86F
:100720003D10206384F83E0001B0F0BD016845F241
:100730000040C4F20000814218BF7047B0B586B0D7
:10074000002443F630050194C4F20205296800F53F
:10075000D83041F002012960296801F002010191BD
:100760000199C02101911221CDE9021403210491C4
:100770000421059101A9FFF74BFE0094286940F47C
:1007800000102861286900F400100090009806B05D
:10079000BDE8B0407047000040F2000040F2F411A4
:1007A000C2F20000C2F2000100780A68104408603A
:1007B0007047000080B543F60040C4F202000168B3
:1007C00041F400710160016841F4806101600168D9
:1007D00041F480710160032000F074F80F2000F0F4
:1007E00005F800F027F8002080BD000070B540F249
:1007F0000006C2F2000640F208013278C2F200019F
:100800004FF47A730968B3FBF2F20446B1FBF2F1DC
:10081000084600F0DFFB0F2C4FF0010508D838B96F
:100820004FF0FF3021460022002500F01FF87460D1
:10083000284670BD82B0002043F640010190C4F20A
:1008400002014A6842F480424A604A6802F48042E7
:100850000192019A0090086840F080500860086892
:1008600000F080500090009802B0704710B54EF62E
:100870000C5CCEF2000CDCF80030C3F3022E8EF0DC
:100880000704042C28BF0424BEF103034FF0FF3EED
:100890000EFA04F438BF0023A14399400EFA03F383
:1008A0009A43114300F00F0200F160430901043A3A
:1008B00003F564436244002848BF02F10C03197039
:1008C00010BD00004EF60C51CEF200010A684FF642
:1008D000FF031A4060F30A2242F0806040F0FD708E
:1008E00008607047002804BF012070472DE9F041DF
:1008F00043F60808C4F202080446D8F8F8030D4687
:1009000000F00700884207D288F8F853D8F8F803B7
:1009100000F00700A84277D12068810717D541076A
:1009200005D5D8F8001041F4E051C8F800100107CF
:1009300005D5D8F8001041F46041C8F80010D8F887
:100940000010A26821F0F0011143C8F80010C007A0
:1009500040D1D8F8F80300F00700A84207D988F87A
:10096000F853D8F8F80300F00700A8424CD12068EB
:10097000410707D5D8F80010E26821F4E05111438F
:10098000C8F80010000708D5D8F80000216920F445
:10099000604040EAC100C8F8000000F07DF8D8F8D7
:1009A000001041F6A452C1F30311C0F60002515CDD
:1009B00040F2080220FA01F140F20400C2F2000005
:1009C0000068C2F200021160FFF710FF0020BDE8CE
:1009D000F08100BF6068811E022907D258F8081C08
:1009E00089015CBF0120BDE8F08111E0012807D139
:1009F00058F8081C89035CBF0120BDE8F08107E0BE
:100A000058F8081C890703D40120BDE8F08100BF15
:100A1000D8F8001021F003010843C8F80000FFF7E0
:100A2000CDFD064641F28837D8F80000616800F035
:100A30000C00B0EB810F8CD0FFF7C0FD801BB842DB
:100A4000F2D90320BDE8F08140F2080043F6080126
:100A5000C2F20000C4F202010068096841F6B45213
:100A6000C1F38221C0F60002515CC840704700000B
:100A700040F2080043F60801C2F20000C4F202018D
:100A80000068096841F6B452C1F34231C0F6000271
:100A9000515CC8407047000010B543F60404C4F22E
:100AA0000204606800F00C0142F200400829C0F224
:100AB000F40007D0042918BF10BD41F20020C0F295
:100AC0007A0010BD216801F03F02216823684902C5
:100AD000C3F3881106D4A1FB00010023FFF7DAFB62
:100AE00007E000BF41F20020C0F27A004843B0FBAB
:100AF000F2F021680222C1F3014102EB4101B0FB97
:100B0000F1F010BD002804BF012070472DE9F0412D
:100B100082B00446007843F60006C007C4F202061D
:100B20000CD0B06800F00C00042840F081803068E0
:100B3000800303D56068002800F06A812078800770
:100B40001BD5B06810F00C0F09D0B06800F00C0095
:100B5000082840F087807068400200F18380306888
:100B6000800703D5E068012840F052813068216990
:100B700020F0F80040EAC10030602078000713D46C
:100B8000207840072AD4A569002D00F03C81B06888
:100B900000F00C00082840F0A180012D40F01081E9
:100BA000012002B0BDE8F0816069002840F2000039
:100BB000C4F2472000F07E800121C0F8801EFFF7BC
:100BC000FDFC0546706F8007DAD4FFF7F7FC401B89
:100BD0000228F7D9032002B0BDE8F081306C5FEA4B
:100BE000C0080AD400200190306C40F0805030647E
:100BF000306C00F080500190019847F20007C4F279
:100C000000073868C00547D4386840F48070386001
:100C1000FFF7D4FC054600BF3868C0053CD4FFF799
:100C2000CDFC401B0228F7D9032002B0BDE8F081BB
:100C3000B06800F00C00082803D1706840023FF54E
:100C400076AF6068B0F5803F07D0B0F5A02F40F0D8
:100C50009B80306840F480203060306840F4803001
:100C600030609BE0E06800285CD00020C4F24720A0
:100C700001210160FFF7A2FC054600BF3068800734
:100C80003FF574AFFFF79AFC401B0228F6D903200A
:100C900002B0BDE8F08100BFA068012805D005289A
:100CA00054D1306F40F004003067306F40F00100E5
:100CB000306755E00021C0F8801EFFF77FFC054635
:100CC000706F80077FF55CAFFFF778FC401B022850
:100CD000F6D9032002B0BDE8F08100BF0027C4F2BE
:100CE000472700203866FFF769FC022D05460DD125
:100CF0003068800140F19080FFF760FC401B0228C3
:100D00004FF00300F4D902B0BDE8F08130688001F3
:100D100079D5FFF753FC401B02284FF00300F5D9AB
:100D2000F1E700BF0020C4F2472000210160FFF777
:100D300045FC0546306880077FF51FAFFFF73EFC96
:100D4000401B02284FF00300F4D9DCE7316F002884
:100D500021F001013167316F21F0040131677DD04D
:100D6000FFF72CFC054641F2883700BF306F800743
:100D700000F18680FFF722FC401BB842F6D9032021
:100D800002B0BDE8F08100BF3168002821F4803155
:100D90003160316821F4802131607BD0FFF70EFC97
:100DA000054600BF306880033FF5C8AEFFF706FC7C
:100DB000401B6428F6D9032002B0BDE8F08100BFD3
:100DC0007068E16900F480028A4221D1216A00F052
:100DD0003F028A421CD147F6C071626A0140B1EB02
:100DE000821F15D1A16A4FF6FF73C903994300F41E
:100DF0004032A1F580318A420AD1E16A00F0706088
:100E0000B0EB016F04D1002002B0BDE8F08100BF5B
:100E1000012002B0BDE8F08104F11C052FCD08438C
:100E200040EA8210D9034FF6FF729143A1F5803159
:100E300040EA05600843706001203866FFF7BEFB9A
:100E4000044600BF30688001DDD4FFF7B7FB001B0C
:100E500002284FF00300F5D955E700BFFFF7AEFBBE
:100E6000054641F2883700BF306F800708D5FFF78D
:100E7000A5FB401BB8424FF00300F5D943E700BF84
:100E8000B8F1000F3FF57FAE306C20F08050306439
:100E900079E600BFFFF792FB054600BF306880038C
:100EA0007FF54CAEFFF78AFB401B64284FF0030030
:100EB000F4D928E770B538B10446406A30B1002053
:100EC000206104F1140007E0012070BD6068B0F5F6
:100ED000827F03D004F11C00002101600026A6627D
:100EE00094F8510020B9204684F8506000F03CF896
:100EF000022084F8510094E80F0001F48271056823
:100F000002F4044225F040050560114403F4006238
:100F10002369114403F002026369114403F00102E2
:100F2000A369E569114403F40072114405F0380225
:100F3000256A114405F08002A56A114305F40052A8
:100F400011430160626A042101EA134102F01002B8
:100F500011444160C16921F40061C16101206665ED
:100F600084F85100304670BD016843F60000C4F2B9
:100F70000000814218BF704780B586B0002143F65B
:100F800030020191C4F20202136900F5E63043F425
:100F900080431361136903F480430193019B019122
:100FA000136843F002031360126802F00202019218
:100FB000019A4FF4604201920222CDE902210321FD
:100FC00004910521059101A9FFF722FA06B0BDE8B9
:100FD00080407047411E0020B0EB116F1CBF012004
:100FE00070474EF21002CEF2000251604EF62351CD
:100FF000CEF20001F0230B70072190601160704762
:1010000090F83C20012A4FF0020254D010B580F82D
:101010003D200268D2F804E0D2F808C00C682EF037
:101020007003234341F2FF74C4F20004A2425360F0
:101030000EDC40F2FF73C4F200039A4216DCB2F1F8
:10104000804F2BD040F20043C4F2000324E000BFE5
:1010500040F2FF33C4F201039A4213DC41F600036D
:10106000C4F200039A4219D0002313E040F60003B3
:10107000C4F200039A4211D040F60043C4F20003C8
:101080000AE000BF44F20003C4F201039A4205D013
:1010900040F20043C4F201039A4204D149682CF0A3
:1010A0008003194391600121002280F83D1080F8EF
:1010B0003C20BDE81040104670470000002804BFE7
:1010C0000120704710B5044690F83D0028B9002073
:1010D00084F83C00204600F01FF8022084F83D0010
:1010E0002068211D00F024FD012084F8460084F8CA
:1010F0003E0084F83F0084F8400084F8410084F802
:10110000420084F8430084F8440084F8450084F8E1
:101110003D00002010BD00000068B0F1804F18BFF6
:10112000704781B00020009043F64000C4F20200F6
:10113000016841F001010160006800F001000090C9
:10114000009801B07047000090F83C20012A4FF051
:10115000020200F0C58080B580F83D20D0F800C0C4
:101160004FF67772DCF8083023EA0202CCF8082048
:101170000B684F2B28DC1F2B44DD202B45D0302B58
:1011800043D0402B40F0AE80D1F804E0C968DCF8D1
:101190002030DCF8202022F00102CCF82020DCF8FE
:1011A000182022F0F00242EA011123F00A0242EA7A
:1011B0000E02CCF81810CCF82020DCF8081041F012
:1011C000470121F0300180E06F2B27DDB3F5005F90
:1011D00048D0B3F5805F7AD0702B40F08380D1E99E
:1011E00001E3C968DCF8082043EA0E0322F47F42D9
:1011F00043EA01211143CCF80810DCF8081041F053
:10120000770162E00BB1102B6CD1DCF8081021F0F3
:101210007001194341F0070157E000BF502B35D052
:10122000602B5FD1D1F804E0C968DCF82030DCF82D
:10123000202022F01002CCF82020DCF8182022F424
:10124000704242EA013123F0A00242EA0E12CCF8C9
:101250001810CCF82020DCF8081041F0670121F0CC
:10126000100132E0D1E901E3C968DCF8082043EA63
:101270000E0322F47F4243EA01211143CCF8081007
:10128000DCF8081041F480411FE000BFD1F804E011
:10129000C968DCF82030DCF8202022F00102CCF80C
:1012A0002020DCF8182022F0F00242EA011123F09D
:1012B0000A0242EA0E02CCF81810CCF82020DCF822
:1012C000081041F0570121F02001CCF8081000224D
:1012D000012180F83D10002180F83C10BDE88040DD
:1012E000104670470122F3E790F83C30012B04BF11
:1012F000022070474FEAB202032A00F201812DE971
:10130000F043DFE802F0033F7FBF00BF036840F215
:1013100000461C6A1A6A24F0020422F001021A62D2
:101320001A46D3F804C052F818EF8F6843F480656A
:10133000C4F20106B54244EA070405D1CF6824F09F
:101340000C0427F004073C430F68B54206D1D1E9ED
:1013500005582CF440762E4346EA080C2EF073060E
:101360003743C3F804C09F614F6809695F631C621B
:101370009F6947F008079F619F6927F004079F61F5
:10138000B2E000BF036840F200481C6A1A6A24F009
:10139000200422F010021A621A46D3F804C052F850
:1013A00018EF8F6843F48065C4F20108454544EAAC
:1013B000071407D1CF686FF0400624F0C00406EA96
:1013C00007163443D1F80090454506D1D1E90556BA
:1013D0002CF440672E4347EA860C2EF4E64747EA92
:1013E0000927C3F804C09F614F6809699F631C62A5
:1013F0009F6947F400679F619F6927F480679F6139
:1014000071E000BF036840F200481C6A1A6A24F4C5
:10141000007422F480721A621A46D3F804C052F89B
:101420001CEF8F6843F48065C4F20108454544EA27
:10143000072408D1CF6840F2FF463F0224F44064FD
:1014400027EA06063443D1F80090454506D1D1E994
:1014500005562CF440572E4347EA061C2EF073071E
:1014600047EA0907C3F804C0DF614F680969DF6311
:101470001C62DF6947F00807DF61DF6927F00407B6
:10148000DF6131E0036840F20045D3F820C01A6AFA
:1014900043F4806722F480521A621A465C6852F85C
:1014A0001CEFD1F800808E68C4F20105AF4204D170
:1014B0004D6924F4804444EA85142CF4005747EA2B
:1014C00006372EF4E64646EA08265C60DE614E6882
:1014D00009691E641F62DF6947F40067DF61DF6925
:1014E00027F48067DF610902136819431160002146
:1014F000BDE8F043002280F83C200846704700BF5A
:101500000121002280F83C2008467047002804BFD3
:101510000120704710B5044690F83D0028B900201E
:1015200084F83C00204600F01FF8022084F83D00BB
:101530002068211D00F0FCFA012084F8460084F8A0
:101540003E0084F83F0084F8400084F8410084F8AD
:10155000420084F8430084F8440084F8450084F88D
:101560003D00002010BD000070470000002804BFAF
:101570000120704710B5044690F8410028B90020BA
:1015800084F84000204600F021F8242084F841002F
:101590002068C16821F40051C160204600F06AFB58
:1015A0002068016921F490410161416921F02A011B
:1015B0004161C16841F40051C16000202021606494
:1015C00084F8411084F84210606310BD80B586B085
:1015D000006844F60002C4F2000200219042CDE906
:1015E0000411CDE90211019124D044F20041C4F26A
:1015F0000001884249D1002043F630010090C4F236
:1016000002010A6942F400320A610A6902F40032F6
:101610000092009A0090086840F001000860086895
:101620000C2100F00100009000980020C4F202009C
:101630001FE000BF43F630000091C4F202000269CF
:1016400042F480220261026902F480220092009A30
:101650000091016841F00201016000684FF44061AF
:1016600000F00200009000980020C4F2020000F593
:1016700080600191022102910021039103210491D4
:101680000721059101A9FEF7C3FE06B080BD000049
:10169000FEE700002DE9F04F87B0002643F630004A
:1016A000CDE905660196C4F20200016840F60048E3
:1016B00041F0100101600168C4F2020801F010015C
:1016C0000191019901960168A8F5806441F0040137
:1016D00001600168002201F0040101910199019665
:1016E000016841F080010160016801F08001019111
:1016F00001990196016841F001010160016801F062
:101700000101019101990196016841F00201016016
:10171000016801F00201019101990196016841F00F
:101720000801016000684FF4005100F008000190CA
:1017300001982046FEF73CFFA8F540673846112186
:101740000022FEF735FFA8F5006948464FF48051A6
:101750000022FEF72DFF4046012100224FF0010A32
:10176000FEF726FF4FF6FF7002AD02904FF0030B1D
:1017700008F580602946CDE903B6FEF749FE4FF42F
:101780000050CDE9020A20462946CDE90466FEF75D
:101790003FFE41F6FF70CDE9020B20462946049634
:1017A000FEF736FE1120CDE9020A38462946CDE97A
:1017B0000466FEF72DFE49F6C070CDE9020B3846EF
:1017C00029460496FEF724FE40F23F30CDE9020B95
:1017D000484629460496FEF71BFE4FF48050CDE99B
:1017E000020A48462946CDE90466FEF711FE4FF687
:1017F000FC70CDE9020B404629460496FEF708FE30
:1018000040462946CDE902AACDE90466FEF700FE6E
:101810000220CDE90206404629460496FEF7F8FD6F
:1018200007B0BDE8F08F000080B540F2700045F2CF
:101830000041C2F20000C4F2000141F68022002300
:101840004FF4804CC0F2060280E80E00C0E9033C71
:10185000C0E90533C0E90733FEF7B6FE002808BF2C
:1018600080BDBDE88040FEF7CFBD0000B0B540F2BE
:10187000C40043F60001C2F20000C4F200014FF4BC
:101880008272002380E80E0000F10C014FF0020C80
:101890004FF0010E4FF40074102581E808500A2122
:1018A000C0E90645C0E90833C0E90A31FFF702FB89
:1018B000002808BFB0BDBDE8B040FEF7A5BD0000E0
:1018C00010B594B040F21C100021C2F200004FF09D
:1018D00080424FF0FF330E91CDE90C110991CDE913
:1018E0000711CDE90511CDE90311CDE90111C0E9D9
:1018F0000021C0E9021301618161FFF7DFFB0028CD
:1019000018BFFEF781FD4FF480500B9040F21C1081
:10191000C2F200000BA9FFF717FC002818BFFEF762
:1019200073FD40F21C10C2F20000FFF7EFFD00282B
:1019300018BFFEF769FD40F21C100024C2F200003F
:1019400008A9CDE90844FFF75BFB002818BFFEF7A4
:101950005BFD6020CDE9010440F21C10C2F20000E2
:1019600001A9002203940594FFF7BEFC002818BFCC
:10197000FEF74AFD40F21C14C2F2000401A9204601
:101980000422FFF7B1FC002818BFFEF73DFD2068D8
:10199000B0F1804F02D014B010BD00BF002043F65C
:1019A00030010F90C4F202010A6842F001020A609D
:1019B000096801F001010F910F9922210F91022175
:1019C000CDE910101290012013900020C4F2020003
:1019D0000FA9FEF71DFD14B010BD000080B540F248
:1019E000641044F20041C2F20000C4F2000144F26B
:1019F000402200234FF00C0CC0F20F0280E80E00D2
:101A0000C0E90333C0E905C3C361FFF7AFFD002898
:101A100008BF80BDBDE88040FEF7F6BC80B540F24F
:101A2000AC1044F60001C2F20000C4F2000148F21A
:101A3000804200234FF0080CC0F21E0280E80E0026
:101A4000C0E90333C0E905C3C361FFF78FFD002878
:101A500008BF80BDBDE88040FEF7D6BCFEE70000B1
:101A6000FEE700007047000070470000FEF794BEDC
:101A7000B0B592B0002443F64000CDE90A44CDE968
:101A800008440594CDE90344CDE901440094C4F22F
:101A900002000168022541F080510160006800F0F9
:101AA00080500090009847F200000094C4F20000BB
:101AB000016841F480410160006800F480400090BA
:101AC0000098012006904FF4803007904FF480007A
:101AD0000D9008200E904FF4A870CDE90F0504205A
:101AE000119006A80C95FFF70DF818B172B600BF5B
:101AF000FEE700BF0F20CDE901054FF4A050049090
:101B00004FF48050059001A805210394FEF7EAFEEA
:101B100010B172B6FEE700BF12B0B0BD4EF68850ED
:101B2000CEF20000016841F47001016070470000CE
:101B3000B0B540F6FF3E0568C4F2000E40F2004C1E
:101B40007045C4F2010C27DCB0F1804F31D040F277
:101B50000043C4F2000398422BD040F60003C4F2C5
:101B60000003984225D041F6FF73C4F20003984267
:101B70002ADC70453CDCB0F1804F5FD040F200437E
:101B8000C4F20003984259D040F60003C4F20003A7
:101B9000984253D057E000BF40F60043C4F2000320
:101BA000984206D0604504D00023C4F20103984255
:101BB000D9D14B6825F0700243EA020541F6FF7364
:101BC000C4F200039842D4DD43F6FF73C4F201036C
:101BD000984221DC42F20003C4F2000398422DD067
:101BE0000023C4F20103984228D0604526D02AE0A1
:101BF00040F60043C4F2000398421FD041F60003B0
:101C0000C4F20003984219D041F60043C4F2000325
:101C1000984213D017E000BF44F20003C4F201035E
:101C200098420BD044F60003C4F20103984205D059
:101C300044F20043C4F20103984204D1CB6825F476
:101C4000407243EA02050A688C684B69C46240F43A
:101C500080648262644504BF09690163026825F0FB
:101C6000800142F0040219430260012242610160D6
:101C7000B0BD000010B504460068D4E902C2236973
:101C8000016921F4405111430161626943EA0C0189
:101C9000E3691143C268194349F20C639A43114343
:101CA000C1604169A26921F4407141F200431143CE
:101CB00040F48062C4F201039A42416102D1FEF70E
:101CC000D7FE01E0FEF7C0FEE16963681922B1F5B5
:101CD000004FA0FB020123D15A00DB0FFEF7DAFA16
:101CE00048F21F51C5F2EB11A0FB01235A094FF630
:101CF0009C73C0F6FF7303F1805302FB0300322391
:101D000003EBC000A0FB01014FF4F87000EA1110D2
:101D100000EB0210C1F3421108442168886010BD35
:101D20009A009B0FFEF7B6FA48F21F51C5F2EB116D
:101D3000A0FB01235A094FF69C73C0F6FF7302FB08
:101D40000300322303EB0010A0FB0101F02000EAA6
:101D5000511000EB0210C1F3431108442168886060
:101D600010BD0000FEE70000FEF724FDFFF780FE37
:101D7000FFF790FCFFF758FDFFF778FDFFF7A0FD98
:101D8000FFF72CFEFFF74AFEFEE7F1EE100A4FF6D2
:101D9000FF71C0F2C03120EA010040F04070E1EE76
:101DA000100A704700000000000000000102030458
:101DB000060708090000000001020304E01D0008F6
:101DC0000000002010000000EC010008F01D0008D9
:101DD00010000020E80700000C02000800000000CE
:101DE00001000000100000000024F40000000000CA
:040000050800018965
:00000001FF
